{
	"contracts/3b_many_owners.sol": {
		"ERC20": {
			"abi": [
				{
					"inputs": [],
					"stateMutability": "nonpayable",
					"type": "constructor"
				},
				{
					"anonymous": false,
					"inputs": [
						{
							"indexed": false,
							"internalType": "string",
							"name": "comment",
							"type": "string"
						}
					],
					"name": "MessageLog",
					"type": "event"
				},
				{
					"inputs": [
						{
							"internalType": "address",
							"name": "target",
							"type": "address"
						}
					],
					"name": "addOwner",
					"outputs": [],
					"stateMutability": "nonpayable",
					"type": "function"
				},
				{
					"inputs": [
						{
							"internalType": "address",
							"name": "",
							"type": "address"
						}
					],
					"name": "balances",
					"outputs": [
						{
							"internalType": "uint256",
							"name": "",
							"type": "uint256"
						}
					],
					"stateMutability": "view",
					"type": "function"
				},
				{
					"inputs": [],
					"name": "buyToken",
					"outputs": [],
					"stateMutability": "payable",
					"type": "function"
				},
				{
					"inputs": [],
					"name": "compute_token_value",
					"outputs": [
						{
							"internalType": "uint256",
							"name": "",
							"type": "uint256"
						}
					],
					"stateMutability": "pure",
					"type": "function"
				},
				{
					"inputs": [
						{
							"internalType": "address",
							"name": "target",
							"type": "address"
						}
					],
					"name": "deleteOwner",
					"outputs": [],
					"stateMutability": "nonpayable",
					"type": "function"
				},
				{
					"inputs": [],
					"name": "getBalance",
					"outputs": [
						{
							"internalType": "uint256",
							"name": "",
							"type": "uint256"
						}
					],
					"stateMutability": "view",
					"type": "function"
				},
				{
					"inputs": [],
					"name": "hodlerCount",
					"outputs": [
						{
							"internalType": "uint256",
							"name": "",
							"type": "uint256"
						}
					],
					"stateMutability": "view",
					"type": "function"
				},
				{
					"inputs": [
						{
							"internalType": "uint256",
							"name": "",
							"type": "uint256"
						}
					],
					"name": "hodlers",
					"outputs": [
						{
							"internalType": "address",
							"name": "",
							"type": "address"
						}
					],
					"stateMutability": "view",
					"type": "function"
				},
				{
					"inputs": [
						{
							"internalType": "uint256",
							"name": "amount",
							"type": "uint256"
						}
					],
					"name": "mint",
					"outputs": [],
					"stateMutability": "nonpayable",
					"type": "function"
				},
				{
					"inputs": [],
					"name": "originalOwner",
					"outputs": [
						{
							"internalType": "address",
							"name": "",
							"type": "address"
						}
					],
					"stateMutability": "view",
					"type": "function"
				},
				{
					"inputs": [
						{
							"internalType": "address payable",
							"name": "owner",
							"type": "address"
						}
					],
					"name": "ownerPayout",
					"outputs": [],
					"stateMutability": "payable",
					"type": "function"
				},
				{
					"inputs": [
						{
							"internalType": "address",
							"name": "",
							"type": "address"
						}
					],
					"name": "owners",
					"outputs": [
						{
							"internalType": "bool",
							"name": "",
							"type": "bool"
						}
					],
					"stateMutability": "view",
					"type": "function"
				},
				{
					"inputs": [
						{
							"internalType": "uint256",
							"name": "num_tokens",
							"type": "uint256"
						}
					],
					"name": "sellToken",
					"outputs": [],
					"stateMutability": "payable",
					"type": "function"
				},
				{
					"inputs": [
						{
							"internalType": "address",
							"name": "wallet",
							"type": "address"
						},
						{
							"internalType": "uint256",
							"name": "amount",
							"type": "uint256"
						}
					],
					"name": "send",
					"outputs": [],
					"stateMutability": "nonpayable",
					"type": "function"
				},
				{
					"inputs": [],
					"name": "tokens_remaining",
					"outputs": [
						{
							"internalType": "uint256",
							"name": "",
							"type": "uint256"
						}
					],
					"stateMutability": "view",
					"type": "function"
				},
				{
					"inputs": [],
					"name": "total_tokens",
					"outputs": [
						{
							"internalType": "uint256",
							"name": "",
							"type": "uint256"
						}
					],
					"stateMutability": "view",
					"type": "function"
				}
			],
			"devdoc": {
				"kind": "dev",
				"methods": {},
				"version": 1
			},
			"evm": {
				"assembly": "    /* \"contracts/3b_many_owners.sol\":553:3995  contract ERC20 {... */\n  mstore(0x40, 0x80)\n    /* \"contracts/3b_many_owners.sol\":1151:1384  constructor()... */\n  callvalue\n  dup1\n  iszero\n  tag_1\n  jumpi\n  0x00\n  dup1\n  revert\ntag_1:\n  pop\n    /* \"contracts/3b_many_owners.sol\":1195:1205  msg.sender */\n  caller\n    /* \"contracts/3b_many_owners.sol\":1179:1192  originalOwner */\n  0x01\n  0x00\n    /* \"contracts/3b_many_owners.sol\":1179:1205  originalOwner = msg.sender */\n  0x0100\n  exp\n  dup2\n  sload\n  dup2\n  0xffffffffffffffffffffffffffffffffffffffff\n  mul\n  not\n  and\n  swap1\n  dup4\n  0xffffffffffffffffffffffffffffffffffffffff\n  and\n  mul\n  or\n  swap1\n  sstore\n  pop\n    /* \"contracts/3b_many_owners.sol\":1234:1241  1000000 */\n  0x0f4240\n    /* \"contracts/3b_many_owners.sol\":1215:1231  tokens_remaining */\n  0x05\n    /* \"contracts/3b_many_owners.sol\":1215:1241  tokens_remaining = 1000000 */\n  dup2\n  swap1\n  sstore\n  pop\n    /* \"contracts/3b_many_owners.sol\":1266:1282  tokens_remaining */\n  sload(0x05)\n    /* \"contracts/3b_many_owners.sol\":1251:1263  total_tokens */\n  0x04\n    /* \"contracts/3b_many_owners.sol\":1251:1282  total_tokens = tokens_remaining */\n  dup2\n  swap1\n  sstore\n  pop\n    /* \"contracts/3b_many_owners.sol\":1313:1317  true */\n  0x01\n    /* \"contracts/3b_many_owners.sol\":1292:1298  owners */\n  0x00\n    /* \"contracts/3b_many_owners.sol\":1292:1310  owners[msg.sender] */\n  dup1\n    /* \"contracts/3b_many_owners.sol\":1299:1309  msg.sender */\n  caller\n    /* \"contracts/3b_many_owners.sol\":1292:1310  owners[msg.sender] */\n  0xffffffffffffffffffffffffffffffffffffffff\n  and\n  0xffffffffffffffffffffffffffffffffffffffff\n  and\n  dup2\n  mstore\n  0x20\n  add\n  swap1\n  dup2\n  mstore\n  0x20\n  add\n  0x00\n  keccak256\n  0x00\n    /* \"contracts/3b_many_owners.sol\":1292:1317  owners[msg.sender] = true */\n  0x0100\n  exp\n  dup2\n  sload\n  dup2\n  0xff\n  mul\n  not\n  and\n  swap1\n  dup4\n  iszero\n  iszero\n  mul\n  or\n  swap1\n  sstore\n  pop\n    /* \"contracts/3b_many_owners.sol\":553:3995  contract ERC20 {... */\n  dataSize(sub_0)\n  dup1\n  dataOffset(sub_0)\n  0x00\n  codecopy\n  0x00\n  return\nstop\n\nsub_0: assembly {\n        /* \"contracts/3b_many_owners.sol\":553:3995  contract ERC20 {... */\n      mstore(0x40, 0x80)\n      jumpi(tag_1, lt(calldatasize, 0x04))\n      shr(0xe0, calldataload(0x00))\n      dup1\n      0x8c8a9606\n      gt\n      tag_18\n      jumpi\n      dup1\n      0xcd5c4c70\n      gt\n      tag_19\n      jumpi\n      dup1\n      0xcd5c4c70\n      eq\n      tag_14\n      jumpi\n      dup1\n      0xd0679d34\n      eq\n      tag_15\n      jumpi\n      dup1\n      0xf1fffdcb\n      eq\n      tag_16\n      jumpi\n      dup1\n      0xfd1b6f2b\n      eq\n      tag_17\n      jumpi\n      jump(tag_1)\n    tag_19:\n      dup1\n      0x8c8a9606\n      eq\n      tag_10\n      jumpi\n      dup1\n      0xa0712d68\n      eq\n      tag_11\n      jumpi\n      dup1\n      0xa4821719\n      eq\n      tag_12\n      jumpi\n      dup1\n      0xc6490835\n      eq\n      tag_13\n      jumpi\n      jump(tag_1)\n    tag_18:\n      dup1\n      0x27e235e3\n      gt\n      tag_20\n      jumpi\n      dup1\n      0x27e235e3\n      eq\n      tag_6\n      jumpi\n      dup1\n      0x7065cb48\n      eq\n      tag_7\n      jumpi\n      dup1\n      0x7a3b1e86\n      eq\n      tag_8\n      jumpi\n      dup1\n      0x865cf928\n      eq\n      tag_9\n      jumpi\n      jump(tag_1)\n    tag_20:\n      dup1\n      0x022914a7\n      eq\n      tag_2\n      jumpi\n      dup1\n      0x12065fe0\n      eq\n      tag_3\n      jumpi\n      dup1\n      0x1828db82\n      eq\n      tag_4\n      jumpi\n      dup1\n      0x2397e4d7\n      eq\n      tag_5\n      jumpi\n    tag_1:\n      0x00\n      dup1\n      revert\n        /* \"contracts/3b_many_owners.sol\":890:928  mapping(address => bool) public owners */\n    tag_2:\n      callvalue\n      dup1\n      iszero\n      tag_21\n      jumpi\n      0x00\n      dup1\n      revert\n    tag_21:\n      pop\n      tag_22\n      0x04\n      dup1\n      calldatasize\n      sub\n      dup2\n      add\n      swap1\n      tag_23\n      swap2\n      swap1\n      tag_24\n      jump\t// in\n    tag_23:\n      tag_25\n      jump\t// in\n    tag_22:\n      mload(0x40)\n      tag_26\n      swap2\n      swap1\n      tag_27\n      jump\t// in\n    tag_26:\n      mload(0x40)\n      dup1\n      swap2\n      sub\n      swap1\n      return\n        /* \"contracts/3b_many_owners.sol\":2310:2407  function getBalance() public view returns (uint256) {... */\n    tag_3:\n      callvalue\n      dup1\n      iszero\n      tag_28\n      jumpi\n      0x00\n      dup1\n      revert\n    tag_28:\n      pop\n      tag_29\n      tag_30\n      jump\t// in\n    tag_29:\n      mload(0x40)\n      tag_31\n      swap2\n      swap1\n      tag_32\n      jump\t// in\n    tag_31:\n      mload(0x40)\n      dup1\n      swap2\n      sub\n      swap1\n      return\n        /* \"contracts/3b_many_owners.sol\":2413:2561  function ownerPayout(address payable owner) public payable onlyOwner {... */\n    tag_4:\n      tag_33\n      0x04\n      dup1\n      calldatasize\n      sub\n      dup2\n      add\n      swap1\n      tag_34\n      swap2\n      swap1\n      tag_35\n      jump\t// in\n    tag_34:\n      tag_36\n      jump\t// in\n    tag_33:\n      stop\n        /* \"contracts/3b_many_owners.sol\":3396:3748  function sellToken(uint256 num_tokens) public payable{... */\n    tag_5:\n      tag_37\n      0x04\n      dup1\n      calldatasize\n      sub\n      dup2\n      add\n      swap1\n      tag_38\n      swap2\n      swap1\n      tag_39\n      jump\t// in\n    tag_38:\n      tag_40\n      jump\t// in\n    tag_37:\n      stop\n        /* \"contracts/3b_many_owners.sol\":1102:1145  mapping(address => uint256) public balances */\n    tag_6:\n      callvalue\n      dup1\n      iszero\n      tag_41\n      jumpi\n      0x00\n      dup1\n      revert\n    tag_41:\n      pop\n      tag_42\n      0x04\n      dup1\n      calldatasize\n      sub\n      dup2\n      add\n      swap1\n      tag_43\n      swap2\n      swap1\n      tag_24\n      jump\t// in\n    tag_43:\n      tag_44\n      jump\t// in\n    tag_42:\n      mload(0x40)\n      tag_45\n      swap2\n      swap1\n      tag_32\n      jump\t// in\n    tag_45:\n      mload(0x40)\n      dup1\n      swap2\n      sub\n      swap1\n      return\n        /* \"contracts/3b_many_owners.sol\":1814:1902  function addOwner(address target) public onlyOwner{... */\n    tag_7:\n      callvalue\n      dup1\n      iszero\n      tag_46\n      jumpi\n      0x00\n      dup1\n      revert\n    tag_46:\n      pop\n      tag_47\n      0x04\n      dup1\n      calldatasize\n      sub\n      dup2\n      add\n      swap1\n      tag_48\n      swap2\n      swap1\n      tag_24\n      jump\t// in\n    tag_48:\n      tag_49\n      jump\t// in\n    tag_47:\n      stop\n        /* \"contracts/3b_many_owners.sol\":969:993  address[] public hodlers */\n    tag_8:\n      callvalue\n      dup1\n      iszero\n      tag_50\n      jumpi\n      0x00\n      dup1\n      revert\n    tag_50:\n      pop\n      tag_51\n      0x04\n      dup1\n      calldatasize\n      sub\n      dup2\n      add\n      swap1\n      tag_52\n      swap2\n      swap1\n      tag_39\n      jump\t// in\n    tag_52:\n      tag_53\n      jump\t// in\n    tag_51:\n      mload(0x40)\n      tag_54\n      swap2\n      swap1\n      tag_55\n      jump\t// in\n    tag_54:\n      mload(0x40)\n      dup1\n      swap2\n      sub\n      swap1\n      return\n        /* \"contracts/3b_many_owners.sol\":1064:1095  uint256 public tokens_remaining */\n    tag_9:\n      callvalue\n      dup1\n      iszero\n      tag_56\n      jumpi\n      0x00\n      dup1\n      revert\n    tag_56:\n      pop\n      tag_57\n      tag_58\n      jump\t// in\n    tag_57:\n      mload(0x40)\n      tag_59\n      swap2\n      swap1\n      tag_32\n      jump\t// in\n    tag_59:\n      mload(0x40)\n      dup1\n      swap2\n      sub\n      swap1\n      return\n        /* \"contracts/3b_many_owners.sol\":2567:2676  function compute_token_value() public pure virtual returns(uint256)... */\n    tag_10:\n      callvalue\n      dup1\n      iszero\n      tag_60\n      jumpi\n      0x00\n      dup1\n      revert\n    tag_60:\n      pop\n      tag_61\n      tag_62\n      jump\t// in\n    tag_61:\n      mload(0x40)\n      tag_63\n      swap2\n      swap1\n      tag_32\n      jump\t// in\n    tag_63:\n      mload(0x40)\n      dup1\n      swap2\n      sub\n      swap1\n      return\n        /* \"contracts/3b_many_owners.sol\":2182:2304  function mint(uint256 amount) public onlyOwner {... */\n    tag_11:\n      callvalue\n      dup1\n      iszero\n      tag_64\n      jumpi\n      0x00\n      dup1\n      revert\n    tag_64:\n      pop\n      tag_65\n      0x04\n      dup1\n      calldatasize\n      sub\n      dup2\n      add\n      swap1\n      tag_66\n      swap2\n      swap1\n      tag_39\n      jump\t// in\n    tag_66:\n      tag_67\n      jump\t// in\n    tag_65:\n      stop\n        /* \"contracts/3b_many_owners.sol\":2682:3389  function buyToken() public payable {... */\n    tag_12:\n      tag_68\n      tag_69\n      jump\t// in\n    tag_68:\n      stop\n        /* \"contracts/3b_many_owners.sol\":1031:1058  uint256 public total_tokens */\n    tag_13:\n      callvalue\n      dup1\n      iszero\n      tag_70\n      jumpi\n      0x00\n      dup1\n      revert\n    tag_70:\n      pop\n      tag_71\n      tag_72\n      jump\t// in\n    tag_71:\n      mload(0x40)\n      tag_73\n      swap2\n      swap1\n      tag_32\n      jump\t// in\n    tag_73:\n      mload(0x40)\n      dup1\n      swap2\n      sub\n      swap1\n      return\n        /* \"contracts/3b_many_owners.sol\":2076:2176  function deleteOwner(address target) public onlyOriginalOwner{... */\n    tag_14:\n      callvalue\n      dup1\n      iszero\n      tag_74\n      jumpi\n      0x00\n      dup1\n      revert\n    tag_74:\n      pop\n      tag_75\n      0x04\n      dup1\n      calldatasize\n      sub\n      dup2\n      add\n      swap1\n      tag_76\n      swap2\n      swap1\n      tag_24\n      jump\t// in\n    tag_76:\n      tag_77\n      jump\t// in\n    tag_75:\n      stop\n        /* \"contracts/3b_many_owners.sol\":3754:3993  function send(address wallet, uint256 amount) public {... */\n    tag_15:\n      callvalue\n      dup1\n      iszero\n      tag_78\n      jumpi\n      0x00\n      dup1\n      revert\n    tag_78:\n      pop\n      tag_79\n      0x04\n      dup1\n      calldatasize\n      sub\n      dup2\n      add\n      swap1\n      tag_80\n      swap2\n      swap1\n      tag_81\n      jump\t// in\n    tag_80:\n      tag_82\n      jump\t// in\n    tag_79:\n      stop\n        /* \"contracts/3b_many_owners.sol\":934:962  address public originalOwner */\n    tag_16:\n      callvalue\n      dup1\n      iszero\n      tag_83\n      jumpi\n      0x00\n      dup1\n      revert\n    tag_83:\n      pop\n      tag_84\n      tag_85\n      jump\t// in\n    tag_84:\n      mload(0x40)\n      tag_86\n      swap2\n      swap1\n      tag_55\n      jump\t// in\n    tag_86:\n      mload(0x40)\n      dup1\n      swap2\n      sub\n      swap1\n      return\n        /* \"contracts/3b_many_owners.sol\":999:1025  uint256 public hodlerCount */\n    tag_17:\n      callvalue\n      dup1\n      iszero\n      tag_87\n      jumpi\n      0x00\n      dup1\n      revert\n    tag_87:\n      pop\n      tag_88\n      tag_89\n      jump\t// in\n    tag_88:\n      mload(0x40)\n      tag_90\n      swap2\n      swap1\n      tag_32\n      jump\t// in\n    tag_90:\n      mload(0x40)\n      dup1\n      swap2\n      sub\n      swap1\n      return\n        /* \"contracts/3b_many_owners.sol\":890:928  mapping(address => bool) public owners */\n    tag_25:\n      mstore(0x20, 0x00)\n      dup1\n      0x00\n      mstore\n      keccak256(0x00, 0x40)\n      0x00\n      swap2\n      pop\n      sload\n      swap1\n      0x0100\n      exp\n      swap1\n      div\n      0xff\n      and\n      dup2\n      jump\t// out\n        /* \"contracts/3b_many_owners.sol\":2310:2407  function getBalance() public view returns (uint256) {... */\n    tag_30:\n        /* \"contracts/3b_many_owners.sol\":2353:2360  uint256 */\n      0x00\n        /* \"contracts/3b_many_owners.sol\":2379:2400  address(this).balance */\n      selfbalance\n        /* \"contracts/3b_many_owners.sol\":2372:2400  return address(this).balance */\n      swap1\n      pop\n        /* \"contracts/3b_many_owners.sol\":2310:2407  function getBalance() public view returns (uint256) {... */\n      swap1\n      jump\t// out\n        /* \"contracts/3b_many_owners.sol\":2413:2561  function ownerPayout(address payable owner) public payable onlyOwner {... */\n    tag_36:\n        /* \"contracts/3b_many_owners.sol\":1499:1505  owners */\n      0x00\n        /* \"contracts/3b_many_owners.sol\":1499:1517  owners[msg.sender] */\n      dup1\n        /* \"contracts/3b_many_owners.sol\":1506:1516  msg.sender */\n      caller\n        /* \"contracts/3b_many_owners.sol\":1499:1517  owners[msg.sender] */\n      0xffffffffffffffffffffffffffffffffffffffff\n      and\n      0xffffffffffffffffffffffffffffffffffffffff\n      and\n      dup2\n      mstore\n      0x20\n      add\n      swap1\n      dup2\n      mstore\n      0x20\n      add\n      0x00\n      keccak256\n      0x00\n      swap1\n      sload\n      swap1\n      0x0100\n      exp\n      swap1\n      div\n      0xff\n      and\n        /* \"contracts/3b_many_owners.sol\":1491:1532  require(owners[msg.sender], \"owner only\") */\n      tag_93\n      jumpi\n      mload(0x40)\n      0x08c379a000000000000000000000000000000000000000000000000000000000\n      dup2\n      mstore\n      0x04\n      add\n      tag_94\n      swap1\n      tag_95\n      jump\t// in\n    tag_94:\n      mload(0x40)\n      dup1\n      swap2\n      sub\n      swap1\n      revert\n    tag_93:\n        /* \"contracts/3b_many_owners.sol\":2500:2506  owners */\n      0x00\n        /* \"contracts/3b_many_owners.sol\":2500:2513  owners[owner] */\n      dup1\n        /* \"contracts/3b_many_owners.sol\":2507:2512  owner */\n      dup3\n        /* \"contracts/3b_many_owners.sol\":2500:2513  owners[owner] */\n      0xffffffffffffffffffffffffffffffffffffffff\n      and\n      0xffffffffffffffffffffffffffffffffffffffff\n      and\n      dup2\n      mstore\n      0x20\n      add\n      swap1\n      dup2\n      mstore\n      0x20\n      add\n      0x00\n      keccak256\n      0x00\n      swap1\n      sload\n      swap1\n      0x0100\n      exp\n      swap1\n      div\n      0xff\n      and\n        /* \"contracts/3b_many_owners.sol\":2492:2514  require(owners[owner]) */\n      tag_97\n      jumpi\n      0x00\n      dup1\n      revert\n    tag_97:\n        /* \"contracts/3b_many_owners.sol\":2524:2529  owner */\n      dup1\n        /* \"contracts/3b_many_owners.sol\":2524:2538  owner.transfer */\n      0xffffffffffffffffffffffffffffffffffffffff\n      and\n        /* \"contracts/3b_many_owners.sol\":2524:2554  owner.transfer( getBalance() ) */\n      0x08fc\n        /* \"contracts/3b_many_owners.sol\":2540:2552  getBalance() */\n      tag_98\n        /* \"contracts/3b_many_owners.sol\":2540:2550  getBalance */\n      tag_30\n        /* \"contracts/3b_many_owners.sol\":2540:2552  getBalance() */\n      jump\t// in\n    tag_98:\n        /* \"contracts/3b_many_owners.sol\":2524:2554  owner.transfer( getBalance() ) */\n      swap1\n      dup2\n      iszero\n      mul\n      swap1\n      mload(0x40)\n      0x00\n      mload(0x40)\n      dup1\n      dup4\n      sub\n      dup2\n      dup6\n      dup9\n      dup9\n      call\n      swap4\n      pop\n      pop\n      pop\n      pop\n      iszero\n      dup1\n      iszero\n      tag_100\n      jumpi\n      returndatasize\n      0x00\n      dup1\n      returndatacopy\n      revert(0x00, returndatasize)\n    tag_100:\n      pop\n        /* \"contracts/3b_many_owners.sol\":2413:2561  function ownerPayout(address payable owner) public payable onlyOwner {... */\n      pop\n      jump\t// out\n        /* \"contracts/3b_many_owners.sol\":3396:3748  function sellToken(uint256 num_tokens) public payable{... */\n    tag_40:\n        /* \"contracts/3b_many_owners.sol\":3459:3480  uint256 token_balance */\n      0x00\n        /* \"contracts/3b_many_owners.sol\":3483:3491  balances */\n      0x06\n        /* \"contracts/3b_many_owners.sol\":3483:3503  balances[msg.sender] */\n      0x00\n        /* \"contracts/3b_many_owners.sol\":3492:3502  msg.sender */\n      caller\n        /* \"contracts/3b_many_owners.sol\":3483:3503  balances[msg.sender] */\n      0xffffffffffffffffffffffffffffffffffffffff\n      and\n      0xffffffffffffffffffffffffffffffffffffffff\n      and\n      dup2\n      mstore\n      0x20\n      add\n      swap1\n      dup2\n      mstore\n      0x20\n      add\n      0x00\n      keccak256\n      sload\n        /* \"contracts/3b_many_owners.sol\":3459:3503  uint256 token_balance = balances[msg.sender] */\n      swap1\n      pop\n        /* \"contracts/3b_many_owners.sol\":3535:3548  token_balance */\n      dup1\n        /* \"contracts/3b_many_owners.sol\":3521:3531  num_tokens */\n      dup3\n        /* \"contracts/3b_many_owners.sol\":3521:3548  num_tokens <= token_balance */\n      gt\n      iszero\n        /* \"contracts/3b_many_owners.sol\":3513:3549  require(num_tokens <= token_balance) */\n      tag_102\n      jumpi\n      0x00\n      dup1\n      revert\n    tag_102:\n        /* \"contracts/3b_many_owners.sol\":3580:3581  0 */\n      0x00\n        /* \"contracts/3b_many_owners.sol\":3567:3577  num_tokens */\n      dup3\n        /* \"contracts/3b_many_owners.sol\":3567:3581  num_tokens > 0 */\n      gt\n        /* \"contracts/3b_many_owners.sol\":3559:3582  require(num_tokens > 0) */\n      tag_103\n      jumpi\n      0x00\n      dup1\n      revert\n    tag_103:\n        /* \"contracts/3b_many_owners.sol\":3616:3626  num_tokens */\n      dup2\n        /* \"contracts/3b_many_owners.sol\":3592:3600  balances */\n      0x06\n        /* \"contracts/3b_many_owners.sol\":3592:3612  balances[msg.sender] */\n      0x00\n        /* \"contracts/3b_many_owners.sol\":3601:3611  msg.sender */\n      caller\n        /* \"contracts/3b_many_owners.sol\":3592:3612  balances[msg.sender] */\n      0xffffffffffffffffffffffffffffffffffffffff\n      and\n      0xffffffffffffffffffffffffffffffffffffffff\n      and\n      dup2\n      mstore\n      0x20\n      add\n      swap1\n      dup2\n      mstore\n      0x20\n      add\n      0x00\n      keccak256\n      0x00\n        /* \"contracts/3b_many_owners.sol\":3592:3626  balances[msg.sender] -= num_tokens */\n      dup3\n      dup3\n      sload\n      tag_104\n      swap2\n      swap1\n      tag_105\n      jump\t// in\n    tag_104:\n      swap3\n      pop\n      pop\n      dup2\n      swap1\n      sstore\n      pop\n        /* \"contracts/3b_many_owners.sol\":3656:3666  num_tokens */\n      dup2\n        /* \"contracts/3b_many_owners.sol\":3636:3652  tokens_remaining */\n      0x05\n      0x00\n        /* \"contracts/3b_many_owners.sol\":3636:3666  tokens_remaining += num_tokens */\n      dup3\n      dup3\n      sload\n      tag_106\n      swap2\n      swap1\n      tag_107\n      jump\t// in\n    tag_106:\n      swap3\n      pop\n      pop\n      dup2\n      swap1\n      sstore\n      pop\n        /* \"contracts/3b_many_owners.sol\":3685:3695  msg.sender */\n      caller\n        /* \"contracts/3b_many_owners.sol\":3677:3705  payable(msg.sender).transfer */\n      0xffffffffffffffffffffffffffffffffffffffff\n      and\n        /* \"contracts/3b_many_owners.sol\":3677:3741  payable(msg.sender).transfer(num_tokens * compute_token_value()) */\n      0x08fc\n        /* \"contracts/3b_many_owners.sol\":3719:3740  compute_token_value() */\n      tag_108\n        /* \"contracts/3b_many_owners.sol\":3719:3738  compute_token_value */\n      tag_62\n        /* \"contracts/3b_many_owners.sol\":3719:3740  compute_token_value() */\n      jump\t// in\n    tag_108:\n        /* \"contracts/3b_many_owners.sol\":3706:3716  num_tokens */\n      dup5\n        /* \"contracts/3b_many_owners.sol\":3706:3740  num_tokens * compute_token_value() */\n      tag_109\n      swap2\n      swap1\n      tag_110\n      jump\t// in\n    tag_109:\n        /* \"contracts/3b_many_owners.sol\":3677:3741  payable(msg.sender).transfer(num_tokens * compute_token_value()) */\n      swap1\n      dup2\n      iszero\n      mul\n      swap1\n      mload(0x40)\n      0x00\n      mload(0x40)\n      dup1\n      dup4\n      sub\n      dup2\n      dup6\n      dup9\n      dup9\n      call\n      swap4\n      pop\n      pop\n      pop\n      pop\n      iszero\n      dup1\n      iszero\n      tag_112\n      jumpi\n      returndatasize\n      0x00\n      dup1\n      returndatacopy\n      revert(0x00, returndatasize)\n    tag_112:\n      pop\n        /* \"contracts/3b_many_owners.sol\":3449:3748  {... */\n      pop\n        /* \"contracts/3b_many_owners.sol\":3396:3748  function sellToken(uint256 num_tokens) public payable{... */\n      pop\n      jump\t// out\n        /* \"contracts/3b_many_owners.sol\":1102:1145  mapping(address => uint256) public balances */\n    tag_44:\n      mstore(0x20, 0x06)\n      dup1\n      0x00\n      mstore\n      keccak256(0x00, 0x40)\n      0x00\n      swap2\n      pop\n      swap1\n      pop\n      sload\n      dup2\n      jump\t// out\n        /* \"contracts/3b_many_owners.sol\":1814:1902  function addOwner(address target) public onlyOwner{... */\n    tag_49:\n        /* \"contracts/3b_many_owners.sol\":1499:1505  owners */\n      0x00\n        /* \"contracts/3b_many_owners.sol\":1499:1517  owners[msg.sender] */\n      dup1\n        /* \"contracts/3b_many_owners.sol\":1506:1516  msg.sender */\n      caller\n        /* \"contracts/3b_many_owners.sol\":1499:1517  owners[msg.sender] */\n      0xffffffffffffffffffffffffffffffffffffffff\n      and\n      0xffffffffffffffffffffffffffffffffffffffff\n      and\n      dup2\n      mstore\n      0x20\n      add\n      swap1\n      dup2\n      mstore\n      0x20\n      add\n      0x00\n      keccak256\n      0x00\n      swap1\n      sload\n      swap1\n      0x0100\n      exp\n      swap1\n      div\n      0xff\n      and\n        /* \"contracts/3b_many_owners.sol\":1491:1532  require(owners[msg.sender], \"owner only\") */\n      tag_114\n      jumpi\n      mload(0x40)\n      0x08c379a000000000000000000000000000000000000000000000000000000000\n      dup2\n      mstore\n      0x04\n      add\n      tag_115\n      swap1\n      tag_95\n      jump\t// in\n    tag_115:\n      mload(0x40)\n      dup1\n      swap2\n      sub\n      swap1\n      revert\n    tag_114:\n        /* \"contracts/3b_many_owners.sol\":1891:1895  true */\n      0x01\n        /* \"contracts/3b_many_owners.sol\":1874:1880  owners */\n      0x00\n        /* \"contracts/3b_many_owners.sol\":1874:1888  owners[target] */\n      dup1\n        /* \"contracts/3b_many_owners.sol\":1881:1887  target */\n      dup4\n        /* \"contracts/3b_many_owners.sol\":1874:1888  owners[target] */\n      0xffffffffffffffffffffffffffffffffffffffff\n      and\n      0xffffffffffffffffffffffffffffffffffffffff\n      and\n      dup2\n      mstore\n      0x20\n      add\n      swap1\n      dup2\n      mstore\n      0x20\n      add\n      0x00\n      keccak256\n      0x00\n        /* \"contracts/3b_many_owners.sol\":1874:1895  owners[target] = true */\n      0x0100\n      exp\n      dup2\n      sload\n      dup2\n      0xff\n      mul\n      not\n      and\n      swap1\n      dup4\n      iszero\n      iszero\n      mul\n      or\n      swap1\n      sstore\n      pop\n        /* \"contracts/3b_many_owners.sol\":1814:1902  function addOwner(address target) public onlyOwner{... */\n      pop\n      jump\t// out\n        /* \"contracts/3b_many_owners.sol\":969:993  address[] public hodlers */\n    tag_53:\n      0x02\n      dup2\n      dup2\n      sload\n      dup2\n      lt\n      tag_117\n      jumpi\n      0x00\n      dup1\n      revert\n    tag_117:\n      swap1\n      0x00\n      mstore\n      keccak256(0x00, 0x20)\n      add\n      0x00\n      swap2\n      pop\n      sload\n      swap1\n      0x0100\n      exp\n      swap1\n      div\n      0xffffffffffffffffffffffffffffffffffffffff\n      and\n      dup2\n      jump\t// out\n        /* \"contracts/3b_many_owners.sol\":1064:1095  uint256 public tokens_remaining */\n    tag_58:\n      sload(0x05)\n      dup2\n      jump\t// out\n        /* \"contracts/3b_many_owners.sol\":2567:2676  function compute_token_value() public pure virtual returns(uint256)... */\n    tag_62:\n        /* \"contracts/3b_many_owners.sol\":2626:2633  uint256 */\n      0x00\n        /* \"contracts/3b_many_owners.sol\":2656:2669  1000000000000 */\n      0xe8d4a51000\n        /* \"contracts/3b_many_owners.sol\":2649:2669  return 1000000000000 */\n      swap1\n      pop\n        /* \"contracts/3b_many_owners.sol\":2567:2676  function compute_token_value() public pure virtual returns(uint256)... */\n      swap1\n      jump\t// out\n        /* \"contracts/3b_many_owners.sol\":2182:2304  function mint(uint256 amount) public onlyOwner {... */\n    tag_67:\n        /* \"contracts/3b_many_owners.sol\":1499:1505  owners */\n      0x00\n        /* \"contracts/3b_many_owners.sol\":1499:1517  owners[msg.sender] */\n      dup1\n        /* \"contracts/3b_many_owners.sol\":1506:1516  msg.sender */\n      caller\n        /* \"contracts/3b_many_owners.sol\":1499:1517  owners[msg.sender] */\n      0xffffffffffffffffffffffffffffffffffffffff\n      and\n      0xffffffffffffffffffffffffffffffffffffffff\n      and\n      dup2\n      mstore\n      0x20\n      add\n      swap1\n      dup2\n      mstore\n      0x20\n      add\n      0x00\n      keccak256\n      0x00\n      swap1\n      sload\n      swap1\n      0x0100\n      exp\n      swap1\n      div\n      0xff\n      and\n        /* \"contracts/3b_many_owners.sol\":1491:1532  require(owners[msg.sender], \"owner only\") */\n      tag_121\n      jumpi\n      mload(0x40)\n      0x08c379a000000000000000000000000000000000000000000000000000000000\n      dup2\n      mstore\n      0x04\n      add\n      tag_122\n      swap1\n      tag_95\n      jump\t// in\n    tag_122:\n      mload(0x40)\n      dup1\n      swap2\n      sub\n      swap1\n      revert\n    tag_121:\n        /* \"contracts/3b_many_owners.sol\":2255:2261  amount */\n      dup1\n        /* \"contracts/3b_many_owners.sol\":2239:2251  total_tokens */\n      0x04\n      0x00\n        /* \"contracts/3b_many_owners.sol\":2239:2261  total_tokens += amount */\n      dup3\n      dup3\n      sload\n      tag_124\n      swap2\n      swap1\n      tag_107\n      jump\t// in\n    tag_124:\n      swap3\n      pop\n      pop\n      dup2\n      swap1\n      sstore\n      pop\n        /* \"contracts/3b_many_owners.sol\":2291:2297  amount */\n      dup1\n        /* \"contracts/3b_many_owners.sol\":2271:2287  tokens_remaining */\n      0x05\n      0x00\n        /* \"contracts/3b_many_owners.sol\":2271:2297  tokens_remaining += amount */\n      dup3\n      dup3\n      sload\n      tag_125\n      swap2\n      swap1\n      tag_107\n      jump\t// in\n    tag_125:\n      swap3\n      pop\n      pop\n      dup2\n      swap1\n      sstore\n      pop\n        /* \"contracts/3b_many_owners.sol\":2182:2304  function mint(uint256 amount) public onlyOwner {... */\n      pop\n      jump\t// out\n        /* \"contracts/3b_many_owners.sol\":2682:3389  function buyToken() public payable {... */\n    tag_69:\n        /* \"contracts/3b_many_owners.sol\":2727:2746  uint256 token_value */\n      0x00\n        /* \"contracts/3b_many_owners.sol\":2749:2770  compute_token_value() */\n      tag_127\n        /* \"contracts/3b_many_owners.sol\":2749:2768  compute_token_value */\n      tag_62\n        /* \"contracts/3b_many_owners.sol\":2749:2770  compute_token_value() */\n      jump\t// in\n    tag_127:\n        /* \"contracts/3b_many_owners.sol\":2727:2770  uint256 token_value = compute_token_value() */\n      swap1\n      pop\n        /* \"contracts/3b_many_owners.sol\":2780:2798  uint256 num_tokens */\n      0x00\n        /* \"contracts/3b_many_owners.sol\":2801:2836  Math.divide(msg.value, token_value) */\n      tag_128\n        /* \"contracts/3b_many_owners.sol\":2813:2822  msg.value */\n      callvalue\n        /* \"contracts/3b_many_owners.sol\":2824:2835  token_value */\n      dup4\n        /* \"contracts/3b_many_owners.sol\":2801:2812  Math.divide */\n      tag_129\n        /* \"contracts/3b_many_owners.sol\":2801:2836  Math.divide(msg.value, token_value) */\n      jump\t// in\n    tag_128:\n        /* \"contracts/3b_many_owners.sol\":2780:2836  uint256 num_tokens = Math.divide(msg.value, token_value) */\n      swap1\n      pop\n        /* \"contracts/3b_many_owners.sol\":2868:2869  0 */\n      0x00\n        /* \"contracts/3b_many_owners.sol\":2855:2865  num_tokens */\n      dup2\n        /* \"contracts/3b_many_owners.sol\":2855:2869  num_tokens > 0 */\n      gt\n        /* \"contracts/3b_many_owners.sol\":2847:2870  require(num_tokens > 0) */\n      tag_130\n      jumpi\n      0x00\n      dup1\n      revert\n    tag_130:\n        /* \"contracts/3b_many_owners.sol\":2899:2915  tokens_remaining */\n      sload(0x05)\n        /* \"contracts/3b_many_owners.sol\":2885:2895  num_tokens */\n      dup2\n        /* \"contracts/3b_many_owners.sol\":2885:2915  num_tokens >= tokens_remaining */\n      lt\n        /* \"contracts/3b_many_owners.sol\":2881:3026  if (num_tokens >= tokens_remaining){... */\n      tag_131\n      jumpi\n        /* \"contracts/3b_many_owners.sol\":2943:2959  tokens_remaining */\n      sload(0x05)\n        /* \"contracts/3b_many_owners.sol\":2930:2959  num_tokens = tokens_remaining */\n      swap1\n      pop\n        /* \"contracts/3b_many_owners.sol\":2979:3015  MessageLog(\"You bought everything!\") */\n      0xded73d9b7994988fc49241f75c8f6577ad0070900ff55ffe76e498cf7e03bef4\n      mload(0x40)\n      tag_132\n      swap1\n      tag_133\n      jump\t// in\n    tag_132:\n      mload(0x40)\n      dup1\n      swap2\n      sub\n      swap1\n      log1\n        /* \"contracts/3b_many_owners.sol\":2881:3026  if (num_tokens >= tokens_remaining){... */\n    tag_131:\n        /* \"contracts/3b_many_owners.sol\":3036:3048  uint256 cost */\n      0x00\n        /* \"contracts/3b_many_owners.sol\":3065:3075  num_tokens */\n      dup2\n        /* \"contracts/3b_many_owners.sol\":3051:3062  token_value */\n      dup4\n        /* \"contracts/3b_many_owners.sol\":3051:3075  token_value * num_tokens */\n      tag_134\n      swap2\n      swap1\n      tag_110\n      jump\t// in\n    tag_134:\n        /* \"contracts/3b_many_owners.sol\":3036:3075  uint256 cost = token_value * num_tokens */\n      swap1\n      pop\n        /* \"contracts/3b_many_owners.sol\":3085:3099  uint256 change */\n      0x00\n        /* \"contracts/3b_many_owners.sol\":3123:3127  cost */\n      dup2\n        /* \"contracts/3b_many_owners.sol\":3111:3120  msg.value */\n      callvalue\n        /* \"contracts/3b_many_owners.sol\":3111:3127  msg.value - cost */\n      tag_135\n      swap2\n      swap1\n      tag_105\n      jump\t// in\n    tag_135:\n        /* \"contracts/3b_many_owners.sol\":3085:3129  uint256 change = uint256((msg.value - cost)) */\n      swap1\n      pop\n        /* \"contracts/3b_many_owners.sol\":3210:3220  msg.sender */\n      caller\n        /* \"contracts/3b_many_owners.sol\":3202:3230  payable(msg.sender).transfer */\n      0xffffffffffffffffffffffffffffffffffffffff\n      and\n        /* \"contracts/3b_many_owners.sol\":3202:3238  payable(msg.sender).transfer(change) */\n      0x08fc\n        /* \"contracts/3b_many_owners.sol\":3231:3237  change */\n      dup3\n        /* \"contracts/3b_many_owners.sol\":3202:3238  payable(msg.sender).transfer(change) */\n      swap1\n      dup2\n      iszero\n      mul\n      swap1\n      mload(0x40)\n      0x00\n      mload(0x40)\n      dup1\n      dup4\n      sub\n      dup2\n      dup6\n      dup9\n      dup9\n      call\n      swap4\n      pop\n      pop\n      pop\n      pop\n      iszero\n      dup1\n      iszero\n      tag_137\n      jumpi\n      returndatasize\n      0x00\n      dup1\n      returndatacopy\n      revert(0x00, returndatasize)\n    tag_137:\n      pop\n        /* \"contracts/3b_many_owners.sol\":3273:3283  num_tokens */\n      dup3\n        /* \"contracts/3b_many_owners.sol\":3249:3257  balances */\n      0x06\n        /* \"contracts/3b_many_owners.sol\":3249:3269  balances[msg.sender] */\n      0x00\n        /* \"contracts/3b_many_owners.sol\":3258:3268  msg.sender */\n      caller\n        /* \"contracts/3b_many_owners.sol\":3249:3269  balances[msg.sender] */\n      0xffffffffffffffffffffffffffffffffffffffff\n      and\n      0xffffffffffffffffffffffffffffffffffffffff\n      and\n      dup2\n      mstore\n      0x20\n      add\n      swap1\n      dup2\n      mstore\n      0x20\n      add\n      0x00\n      keccak256\n      0x00\n        /* \"contracts/3b_many_owners.sol\":3249:3283  balances[msg.sender] += num_tokens */\n      dup3\n      dup3\n      sload\n      tag_138\n      swap2\n      swap1\n      tag_107\n      jump\t// in\n    tag_138:\n      swap3\n      pop\n      pop\n      dup2\n      swap1\n      sstore\n      pop\n        /* \"contracts/3b_many_owners.sol\":3313:3323  num_tokens */\n      dup3\n        /* \"contracts/3b_many_owners.sol\":3293:3309  tokens_remaining */\n      0x05\n      0x00\n        /* \"contracts/3b_many_owners.sol\":3293:3323  tokens_remaining -= num_tokens */\n      dup3\n      dup3\n      sload\n      tag_139\n      swap2\n      swap1\n      tag_105\n      jump\t// in\n    tag_139:\n      swap3\n      pop\n      pop\n      dup2\n      swap1\n      sstore\n      pop\n        /* \"contracts/3b_many_owners.sol\":3334:3345  hodlerCount */\n      0x03\n      0x00\n        /* \"contracts/3b_many_owners.sol\":3334:3348  hodlerCount ++ */\n      dup2\n      sload\n      dup1\n      swap3\n      swap2\n      swap1\n      tag_140\n      swap1\n      tag_141\n      jump\t// in\n    tag_140:\n      swap2\n      swap1\n      pop\n      sstore\n      pop\n        /* \"contracts/3b_many_owners.sol\":3358:3365  hodlers */\n      0x02\n        /* \"contracts/3b_many_owners.sol\":3371:3381  msg.sender */\n      caller\n        /* \"contracts/3b_many_owners.sol\":3358:3382  hodlers.push(msg.sender) */\n      swap1\n      dup1\n      0x01\n      dup2\n      sload\n      add\n      dup1\n      dup3\n      sstore\n      dup1\n      swap2\n      pop\n      pop\n      0x01\n      swap1\n      sub\n      swap1\n      0x00\n      mstore\n      keccak256(0x00, 0x20)\n      add\n      0x00\n      swap1\n      swap2\n      swap1\n      swap2\n      swap1\n      swap2\n      0x0100\n      exp\n      dup2\n      sload\n      dup2\n      0xffffffffffffffffffffffffffffffffffffffff\n      mul\n      not\n      and\n      swap1\n      dup4\n      0xffffffffffffffffffffffffffffffffffffffff\n      and\n      mul\n      or\n      swap1\n      sstore\n      pop\n        /* \"contracts/3b_many_owners.sol\":2717:3389  {... */\n      pop\n      pop\n      pop\n      pop\n        /* \"contracts/3b_many_owners.sol\":2682:3389  function buyToken() public payable {... */\n      jump\t// out\n        /* \"contracts/3b_many_owners.sol\":1031:1058  uint256 public total_tokens */\n    tag_72:\n      sload(0x04)\n      dup2\n      jump\t// out\n        /* \"contracts/3b_many_owners.sol\":2076:2176  function deleteOwner(address target) public onlyOriginalOwner{... */\n    tag_77:\n        /* \"contracts/3b_many_owners.sol\":1619:1629  msg.sender */\n      caller\n        /* \"contracts/3b_many_owners.sol\":1602:1629  originalOwner == msg.sender */\n      0xffffffffffffffffffffffffffffffffffffffff\n      and\n        /* \"contracts/3b_many_owners.sol\":1602:1615  originalOwner */\n      0x01\n      0x00\n      swap1\n      sload\n      swap1\n      0x0100\n      exp\n      swap1\n      div\n      0xffffffffffffffffffffffffffffffffffffffff\n      and\n        /* \"contracts/3b_many_owners.sol\":1602:1629  originalOwner == msg.sender */\n      0xffffffffffffffffffffffffffffffffffffffff\n      and\n      eq\n        /* \"contracts/3b_many_owners.sol\":1594:1647  require(originalOwner == msg.sender, \"og owner only\") */\n      tag_144\n      jumpi\n      mload(0x40)\n      0x08c379a000000000000000000000000000000000000000000000000000000000\n      dup2\n      mstore\n      0x04\n      add\n      tag_145\n      swap1\n      tag_146\n      jump\t// in\n    tag_145:\n      mload(0x40)\n      dup1\n      swap2\n      sub\n      swap1\n      revert\n    tag_144:\n        /* \"contracts/3b_many_owners.sol\":2164:2169  false */\n      0x00\n        /* \"contracts/3b_many_owners.sol\":2147:2153  owners */\n      dup1\n        /* \"contracts/3b_many_owners.sol\":2147:2161  owners[target] */\n      0x00\n        /* \"contracts/3b_many_owners.sol\":2154:2160  target */\n      dup4\n        /* \"contracts/3b_many_owners.sol\":2147:2161  owners[target] */\n      0xffffffffffffffffffffffffffffffffffffffff\n      and\n      0xffffffffffffffffffffffffffffffffffffffff\n      and\n      dup2\n      mstore\n      0x20\n      add\n      swap1\n      dup2\n      mstore\n      0x20\n      add\n      0x00\n      keccak256\n      0x00\n        /* \"contracts/3b_many_owners.sol\":2147:2169  owners[target] = false */\n      0x0100\n      exp\n      dup2\n      sload\n      dup2\n      0xff\n      mul\n      not\n      and\n      swap1\n      dup4\n      iszero\n      iszero\n      mul\n      or\n      swap1\n      sstore\n      pop\n        /* \"contracts/3b_many_owners.sol\":2076:2176  function deleteOwner(address target) public onlyOriginalOwner{... */\n      pop\n      jump\t// out\n        /* \"contracts/3b_many_owners.sol\":3754:3993  function send(address wallet, uint256 amount) public {... */\n    tag_82:\n        /* \"contracts/3b_many_owners.sol\":3835:3843  balances */\n      0x06\n        /* \"contracts/3b_many_owners.sol\":3835:3855  balances[msg.sender] */\n      0x00\n        /* \"contracts/3b_many_owners.sol\":3844:3854  msg.sender */\n      caller\n        /* \"contracts/3b_many_owners.sol\":3835:3855  balances[msg.sender] */\n      0xffffffffffffffffffffffffffffffffffffffff\n      and\n      0xffffffffffffffffffffffffffffffffffffffff\n      and\n      dup2\n      mstore\n      0x20\n      add\n      swap1\n      dup2\n      mstore\n      0x20\n      add\n      0x00\n      keccak256\n      sload\n        /* \"contracts/3b_many_owners.sol\":3825:3831  amount */\n      dup2\n        /* \"contracts/3b_many_owners.sol\":3825:3855  amount <= balances[msg.sender] */\n      gt\n      iszero\n        /* \"contracts/3b_many_owners.sol\":3817:3856  require(amount <= balances[msg.sender]) */\n      tag_149\n      jumpi\n      0x00\n      dup1\n      revert\n    tag_149:\n        /* \"contracts/3b_many_owners.sol\":3890:3896  amount */\n      dup1\n        /* \"contracts/3b_many_owners.sol\":3866:3874  balances */\n      0x06\n        /* \"contracts/3b_many_owners.sol\":3866:3886  balances[msg.sender] */\n      0x00\n        /* \"contracts/3b_many_owners.sol\":3875:3885  msg.sender */\n      caller\n        /* \"contracts/3b_many_owners.sol\":3866:3886  balances[msg.sender] */\n      0xffffffffffffffffffffffffffffffffffffffff\n      and\n      0xffffffffffffffffffffffffffffffffffffffff\n      and\n      dup2\n      mstore\n      0x20\n      add\n      swap1\n      dup2\n      mstore\n      0x20\n      add\n      0x00\n      keccak256\n      0x00\n        /* \"contracts/3b_many_owners.sol\":3866:3896  balances[msg.sender] -= amount */\n      dup3\n      dup3\n      sload\n      tag_150\n      swap2\n      swap1\n      tag_105\n      jump\t// in\n    tag_150:\n      swap3\n      pop\n      pop\n      dup2\n      swap1\n      sstore\n      pop\n        /* \"contracts/3b_many_owners.sol\":3926:3932  amount */\n      dup1\n        /* \"contracts/3b_many_owners.sol\":3906:3914  balances */\n      0x06\n        /* \"contracts/3b_many_owners.sol\":3906:3922  balances[wallet] */\n      0x00\n        /* \"contracts/3b_many_owners.sol\":3915:3921  wallet */\n      dup5\n        /* \"contracts/3b_many_owners.sol\":3906:3922  balances[wallet] */\n      0xffffffffffffffffffffffffffffffffffffffff\n      and\n      0xffffffffffffffffffffffffffffffffffffffff\n      and\n      dup2\n      mstore\n      0x20\n      add\n      swap1\n      dup2\n      mstore\n      0x20\n      add\n      0x00\n      keccak256\n      0x00\n        /* \"contracts/3b_many_owners.sol\":3906:3932  balances[wallet] += amount */\n      dup3\n      dup3\n      sload\n      tag_151\n      swap2\n      swap1\n      tag_107\n      jump\t// in\n    tag_151:\n      swap3\n      pop\n      pop\n      dup2\n      swap1\n      sstore\n      pop\n        /* \"contracts/3b_many_owners.sol\":3942:3953  hodlerCount */\n      0x03\n      0x00\n        /* \"contracts/3b_many_owners.sol\":3942:3956  hodlerCount ++ */\n      dup2\n      sload\n      dup1\n      swap3\n      swap2\n      swap1\n      tag_152\n      swap1\n      tag_141\n      jump\t// in\n    tag_152:\n      swap2\n      swap1\n      pop\n      sstore\n      pop\n        /* \"contracts/3b_many_owners.sol\":3966:3973  hodlers */\n      0x02\n        /* \"contracts/3b_many_owners.sol\":3979:3985  wallet */\n      dup3\n        /* \"contracts/3b_many_owners.sol\":3966:3986  hodlers.push(wallet) */\n      swap1\n      dup1\n      0x01\n      dup2\n      sload\n      add\n      dup1\n      dup3\n      sstore\n      dup1\n      swap2\n      pop\n      pop\n      0x01\n      swap1\n      sub\n      swap1\n      0x00\n      mstore\n      keccak256(0x00, 0x20)\n      add\n      0x00\n      swap1\n      swap2\n      swap1\n      swap2\n      swap1\n      swap2\n      0x0100\n      exp\n      dup2\n      sload\n      dup2\n      0xffffffffffffffffffffffffffffffffffffffff\n      mul\n      not\n      and\n      swap1\n      dup4\n      0xffffffffffffffffffffffffffffffffffffffff\n      and\n      mul\n      or\n      swap1\n      sstore\n      pop\n        /* \"contracts/3b_many_owners.sol\":3754:3993  function send(address wallet, uint256 amount) public {... */\n      pop\n      pop\n      jump\t// out\n        /* \"contracts/3b_many_owners.sol\":934:962  address public originalOwner */\n    tag_85:\n      0x01\n      0x00\n      swap1\n      sload\n      swap1\n      0x0100\n      exp\n      swap1\n      div\n      0xffffffffffffffffffffffffffffffffffffffff\n      and\n      dup2\n      jump\t// out\n        /* \"contracts/3b_many_owners.sol\":999:1025  uint256 public hodlerCount */\n    tag_89:\n      sload(0x03)\n      dup2\n      jump\t// out\n        /* \"contracts/Math.sol\":76:231  function divide(uint256 a, uint256 b) internal pure returns (uint256) {... */\n    tag_129:\n        /* \"contracts/Math.sol\":137:144  uint256 */\n      0x00\n        /* \"contracts/Math.sol\":168:169  0 */\n      dup1\n        /* \"contracts/Math.sol\":164:165  b */\n      dup3\n        /* \"contracts/Math.sol\":164:169  b > 0 */\n      gt\n        /* \"contracts/Math.sol\":156:170  require(b > 0) */\n      tag_155\n      jumpi\n      0x00\n      dup1\n      revert\n    tag_155:\n        /* \"contracts/Math.sol\":180:189  uint256 c */\n      0x00\n        /* \"contracts/Math.sol\":194:195  b */\n      dup3\n        /* \"contracts/Math.sol\":192:193  a */\n      dup5\n        /* \"contracts/Math.sol\":192:195  a/b */\n      tag_156\n      swap2\n      swap1\n      tag_157\n      jump\t// in\n    tag_156:\n        /* \"contracts/Math.sol\":180:195  uint256 c = a/b */\n      swap1\n      pop\n        /* \"contracts/Math.sol\":212:213  c */\n      dup1\n        /* \"contracts/Math.sol\":205:213  return c */\n      swap2\n      pop\n      pop\n        /* \"contracts/Math.sol\":76:231  function divide(uint256 a, uint256 b) internal pure returns (uint256) {... */\n      swap3\n      swap2\n      pop\n      pop\n      jump\t// out\n        /* \"#utility.yul\":88:205   */\n    tag_159:\n        /* \"#utility.yul\":197:198   */\n      0x00\n        /* \"#utility.yul\":194:195   */\n      dup1\n        /* \"#utility.yul\":187:199   */\n      revert\n        /* \"#utility.yul\":334:460   */\n    tag_161:\n        /* \"#utility.yul\":371:378   */\n      0x00\n        /* \"#utility.yul\":411:453   */\n      0xffffffffffffffffffffffffffffffffffffffff\n        /* \"#utility.yul\":404:409   */\n      dup3\n        /* \"#utility.yul\":400:454   */\n      and\n        /* \"#utility.yul\":389:454   */\n      swap1\n      pop\n        /* \"#utility.yul\":334:460   */\n      swap2\n      swap1\n      pop\n      jump\t// out\n        /* \"#utility.yul\":466:562   */\n    tag_162:\n        /* \"#utility.yul\":503:510   */\n      0x00\n        /* \"#utility.yul\":532:556   */\n      tag_190\n        /* \"#utility.yul\":550:555   */\n      dup3\n        /* \"#utility.yul\":532:556   */\n      tag_161\n      jump\t// in\n    tag_190:\n        /* \"#utility.yul\":521:556   */\n      swap1\n      pop\n        /* \"#utility.yul\":466:562   */\n      swap2\n      swap1\n      pop\n      jump\t// out\n        /* \"#utility.yul\":568:690   */\n    tag_163:\n        /* \"#utility.yul\":641:665   */\n      tag_192\n        /* \"#utility.yul\":659:664   */\n      dup2\n        /* \"#utility.yul\":641:665   */\n      tag_162\n      jump\t// in\n    tag_192:\n        /* \"#utility.yul\":634:639   */\n      dup2\n        /* \"#utility.yul\":631:666   */\n      eq\n        /* \"#utility.yul\":621:684   */\n      tag_193\n      jumpi\n        /* \"#utility.yul\":680:681   */\n      0x00\n        /* \"#utility.yul\":677:678   */\n      dup1\n        /* \"#utility.yul\":670:682   */\n      revert\n        /* \"#utility.yul\":621:684   */\n    tag_193:\n        /* \"#utility.yul\":568:690   */\n      pop\n      jump\t// out\n        /* \"#utility.yul\":696:835   */\n    tag_164:\n        /* \"#utility.yul\":742:747   */\n      0x00\n        /* \"#utility.yul\":780:786   */\n      dup2\n        /* \"#utility.yul\":767:787   */\n      calldataload\n        /* \"#utility.yul\":758:787   */\n      swap1\n      pop\n        /* \"#utility.yul\":796:829   */\n      tag_195\n        /* \"#utility.yul\":823:828   */\n      dup2\n        /* \"#utility.yul\":796:829   */\n      tag_163\n      jump\t// in\n    tag_195:\n        /* \"#utility.yul\":696:835   */\n      swap3\n      swap2\n      pop\n      pop\n      jump\t// out\n        /* \"#utility.yul\":841:1170   */\n    tag_24:\n        /* \"#utility.yul\":900:906   */\n      0x00\n        /* \"#utility.yul\":949:951   */\n      0x20\n        /* \"#utility.yul\":937:946   */\n      dup3\n        /* \"#utility.yul\":928:935   */\n      dup5\n        /* \"#utility.yul\":924:947   */\n      sub\n        /* \"#utility.yul\":920:952   */\n      slt\n        /* \"#utility.yul\":917:1036   */\n      iszero\n      tag_197\n      jumpi\n        /* \"#utility.yul\":955:1034   */\n      tag_198\n      tag_159\n      jump\t// in\n    tag_198:\n        /* \"#utility.yul\":917:1036   */\n    tag_197:\n        /* \"#utility.yul\":1075:1076   */\n      0x00\n        /* \"#utility.yul\":1100:1153   */\n      tag_199\n        /* \"#utility.yul\":1145:1152   */\n      dup5\n        /* \"#utility.yul\":1136:1142   */\n      dup3\n        /* \"#utility.yul\":1125:1134   */\n      dup6\n        /* \"#utility.yul\":1121:1143   */\n      add\n        /* \"#utility.yul\":1100:1153   */\n      tag_164\n      jump\t// in\n    tag_199:\n        /* \"#utility.yul\":1090:1153   */\n      swap2\n      pop\n        /* \"#utility.yul\":1046:1163   */\n      pop\n        /* \"#utility.yul\":841:1170   */\n      swap3\n      swap2\n      pop\n      pop\n      jump\t// out\n        /* \"#utility.yul\":1176:1266   */\n    tag_165:\n        /* \"#utility.yul\":1210:1217   */\n      0x00\n        /* \"#utility.yul\":1253:1258   */\n      dup2\n        /* \"#utility.yul\":1246:1259   */\n      iszero\n        /* \"#utility.yul\":1239:1260   */\n      iszero\n        /* \"#utility.yul\":1228:1260   */\n      swap1\n      pop\n        /* \"#utility.yul\":1176:1266   */\n      swap2\n      swap1\n      pop\n      jump\t// out\n        /* \"#utility.yul\":1272:1381   */\n    tag_166:\n        /* \"#utility.yul\":1353:1374   */\n      tag_202\n        /* \"#utility.yul\":1368:1373   */\n      dup2\n        /* \"#utility.yul\":1353:1374   */\n      tag_165\n      jump\t// in\n    tag_202:\n        /* \"#utility.yul\":1348:1351   */\n      dup3\n        /* \"#utility.yul\":1341:1375   */\n      mstore\n        /* \"#utility.yul\":1272:1381   */\n      pop\n      pop\n      jump\t// out\n        /* \"#utility.yul\":1387:1597   */\n    tag_27:\n        /* \"#utility.yul\":1474:1478   */\n      0x00\n        /* \"#utility.yul\":1512:1514   */\n      0x20\n        /* \"#utility.yul\":1501:1510   */\n      dup3\n        /* \"#utility.yul\":1497:1515   */\n      add\n        /* \"#utility.yul\":1489:1515   */\n      swap1\n      pop\n        /* \"#utility.yul\":1525:1590   */\n      tag_204\n        /* \"#utility.yul\":1587:1588   */\n      0x00\n        /* \"#utility.yul\":1576:1585   */\n      dup4\n        /* \"#utility.yul\":1572:1589   */\n      add\n        /* \"#utility.yul\":1563:1569   */\n      dup5\n        /* \"#utility.yul\":1525:1590   */\n      tag_166\n      jump\t// in\n    tag_204:\n        /* \"#utility.yul\":1387:1597   */\n      swap3\n      swap2\n      pop\n      pop\n      jump\t// out\n        /* \"#utility.yul\":1603:1680   */\n    tag_167:\n        /* \"#utility.yul\":1640:1647   */\n      0x00\n        /* \"#utility.yul\":1669:1674   */\n      dup2\n        /* \"#utility.yul\":1658:1674   */\n      swap1\n      pop\n        /* \"#utility.yul\":1603:1680   */\n      swap2\n      swap1\n      pop\n      jump\t// out\n        /* \"#utility.yul\":1686:1804   */\n    tag_168:\n        /* \"#utility.yul\":1773:1797   */\n      tag_207\n        /* \"#utility.yul\":1791:1796   */\n      dup2\n        /* \"#utility.yul\":1773:1797   */\n      tag_167\n      jump\t// in\n    tag_207:\n        /* \"#utility.yul\":1768:1771   */\n      dup3\n        /* \"#utility.yul\":1761:1798   */\n      mstore\n        /* \"#utility.yul\":1686:1804   */\n      pop\n      pop\n      jump\t// out\n        /* \"#utility.yul\":1810:2032   */\n    tag_32:\n        /* \"#utility.yul\":1903:1907   */\n      0x00\n        /* \"#utility.yul\":1941:1943   */\n      0x20\n        /* \"#utility.yul\":1930:1939   */\n      dup3\n        /* \"#utility.yul\":1926:1944   */\n      add\n        /* \"#utility.yul\":1918:1944   */\n      swap1\n      pop\n        /* \"#utility.yul\":1954:2025   */\n      tag_209\n        /* \"#utility.yul\":2022:2023   */\n      0x00\n        /* \"#utility.yul\":2011:2020   */\n      dup4\n        /* \"#utility.yul\":2007:2024   */\n      add\n        /* \"#utility.yul\":1998:2004   */\n      dup5\n        /* \"#utility.yul\":1954:2025   */\n      tag_168\n      jump\t// in\n    tag_209:\n        /* \"#utility.yul\":1810:2032   */\n      swap3\n      swap2\n      pop\n      pop\n      jump\t// out\n        /* \"#utility.yul\":2038:2142   */\n    tag_169:\n        /* \"#utility.yul\":2083:2090   */\n      0x00\n        /* \"#utility.yul\":2112:2136   */\n      tag_211\n        /* \"#utility.yul\":2130:2135   */\n      dup3\n        /* \"#utility.yul\":2112:2136   */\n      tag_161\n      jump\t// in\n    tag_211:\n        /* \"#utility.yul\":2101:2136   */\n      swap1\n      pop\n        /* \"#utility.yul\":2038:2142   */\n      swap2\n      swap1\n      pop\n      jump\t// out\n        /* \"#utility.yul\":2148:2286   */\n    tag_170:\n        /* \"#utility.yul\":2229:2261   */\n      tag_213\n        /* \"#utility.yul\":2255:2260   */\n      dup2\n        /* \"#utility.yul\":2229:2261   */\n      tag_169\n      jump\t// in\n    tag_213:\n        /* \"#utility.yul\":2222:2227   */\n      dup2\n        /* \"#utility.yul\":2219:2262   */\n      eq\n        /* \"#utility.yul\":2209:2280   */\n      tag_214\n      jumpi\n        /* \"#utility.yul\":2276:2277   */\n      0x00\n        /* \"#utility.yul\":2273:2274   */\n      dup1\n        /* \"#utility.yul\":2266:2278   */\n      revert\n        /* \"#utility.yul\":2209:2280   */\n    tag_214:\n        /* \"#utility.yul\":2148:2286   */\n      pop\n      jump\t// out\n        /* \"#utility.yul\":2292:2447   */\n    tag_171:\n        /* \"#utility.yul\":2346:2351   */\n      0x00\n        /* \"#utility.yul\":2384:2390   */\n      dup2\n        /* \"#utility.yul\":2371:2391   */\n      calldataload\n        /* \"#utility.yul\":2362:2391   */\n      swap1\n      pop\n        /* \"#utility.yul\":2400:2441   */\n      tag_216\n        /* \"#utility.yul\":2435:2440   */\n      dup2\n        /* \"#utility.yul\":2400:2441   */\n      tag_170\n      jump\t// in\n    tag_216:\n        /* \"#utility.yul\":2292:2447   */\n      swap3\n      swap2\n      pop\n      pop\n      jump\t// out\n        /* \"#utility.yul\":2453:2798   */\n    tag_35:\n        /* \"#utility.yul\":2520:2526   */\n      0x00\n        /* \"#utility.yul\":2569:2571   */\n      0x20\n        /* \"#utility.yul\":2557:2566   */\n      dup3\n        /* \"#utility.yul\":2548:2555   */\n      dup5\n        /* \"#utility.yul\":2544:2567   */\n      sub\n        /* \"#utility.yul\":2540:2572   */\n      slt\n        /* \"#utility.yul\":2537:2656   */\n      iszero\n      tag_218\n      jumpi\n        /* \"#utility.yul\":2575:2654   */\n      tag_219\n      tag_159\n      jump\t// in\n    tag_219:\n        /* \"#utility.yul\":2537:2656   */\n    tag_218:\n        /* \"#utility.yul\":2695:2696   */\n      0x00\n        /* \"#utility.yul\":2720:2781   */\n      tag_220\n        /* \"#utility.yul\":2773:2780   */\n      dup5\n        /* \"#utility.yul\":2764:2770   */\n      dup3\n        /* \"#utility.yul\":2753:2762   */\n      dup6\n        /* \"#utility.yul\":2749:2771   */\n      add\n        /* \"#utility.yul\":2720:2781   */\n      tag_171\n      jump\t// in\n    tag_220:\n        /* \"#utility.yul\":2710:2781   */\n      swap2\n      pop\n        /* \"#utility.yul\":2666:2791   */\n      pop\n        /* \"#utility.yul\":2453:2798   */\n      swap3\n      swap2\n      pop\n      pop\n      jump\t// out\n        /* \"#utility.yul\":2804:2926   */\n    tag_172:\n        /* \"#utility.yul\":2877:2901   */\n      tag_222\n        /* \"#utility.yul\":2895:2900   */\n      dup2\n        /* \"#utility.yul\":2877:2901   */\n      tag_167\n      jump\t// in\n    tag_222:\n        /* \"#utility.yul\":2870:2875   */\n      dup2\n        /* \"#utility.yul\":2867:2902   */\n      eq\n        /* \"#utility.yul\":2857:2920   */\n      tag_223\n      jumpi\n        /* \"#utility.yul\":2916:2917   */\n      0x00\n        /* \"#utility.yul\":2913:2914   */\n      dup1\n        /* \"#utility.yul\":2906:2918   */\n      revert\n        /* \"#utility.yul\":2857:2920   */\n    tag_223:\n        /* \"#utility.yul\":2804:2926   */\n      pop\n      jump\t// out\n        /* \"#utility.yul\":2932:3071   */\n    tag_173:\n        /* \"#utility.yul\":2978:2983   */\n      0x00\n        /* \"#utility.yul\":3016:3022   */\n      dup2\n        /* \"#utility.yul\":3003:3023   */\n      calldataload\n        /* \"#utility.yul\":2994:3023   */\n      swap1\n      pop\n        /* \"#utility.yul\":3032:3065   */\n      tag_225\n        /* \"#utility.yul\":3059:3064   */\n      dup2\n        /* \"#utility.yul\":3032:3065   */\n      tag_172\n      jump\t// in\n    tag_225:\n        /* \"#utility.yul\":2932:3071   */\n      swap3\n      swap2\n      pop\n      pop\n      jump\t// out\n        /* \"#utility.yul\":3077:3406   */\n    tag_39:\n        /* \"#utility.yul\":3136:3142   */\n      0x00\n        /* \"#utility.yul\":3185:3187   */\n      0x20\n        /* \"#utility.yul\":3173:3182   */\n      dup3\n        /* \"#utility.yul\":3164:3171   */\n      dup5\n        /* \"#utility.yul\":3160:3183   */\n      sub\n        /* \"#utility.yul\":3156:3188   */\n      slt\n        /* \"#utility.yul\":3153:3272   */\n      iszero\n      tag_227\n      jumpi\n        /* \"#utility.yul\":3191:3270   */\n      tag_228\n      tag_159\n      jump\t// in\n    tag_228:\n        /* \"#utility.yul\":3153:3272   */\n    tag_227:\n        /* \"#utility.yul\":3311:3312   */\n      0x00\n        /* \"#utility.yul\":3336:3389   */\n      tag_229\n        /* \"#utility.yul\":3381:3388   */\n      dup5\n        /* \"#utility.yul\":3372:3378   */\n      dup3\n        /* \"#utility.yul\":3361:3370   */\n      dup6\n        /* \"#utility.yul\":3357:3379   */\n      add\n        /* \"#utility.yul\":3336:3389   */\n      tag_173\n      jump\t// in\n    tag_229:\n        /* \"#utility.yul\":3326:3389   */\n      swap2\n      pop\n        /* \"#utility.yul\":3282:3399   */\n      pop\n        /* \"#utility.yul\":3077:3406   */\n      swap3\n      swap2\n      pop\n      pop\n      jump\t// out\n        /* \"#utility.yul\":3412:3530   */\n    tag_174:\n        /* \"#utility.yul\":3499:3523   */\n      tag_231\n        /* \"#utility.yul\":3517:3522   */\n      dup2\n        /* \"#utility.yul\":3499:3523   */\n      tag_162\n      jump\t// in\n    tag_231:\n        /* \"#utility.yul\":3494:3497   */\n      dup3\n        /* \"#utility.yul\":3487:3524   */\n      mstore\n        /* \"#utility.yul\":3412:3530   */\n      pop\n      pop\n      jump\t// out\n        /* \"#utility.yul\":3536:3758   */\n    tag_55:\n        /* \"#utility.yul\":3629:3633   */\n      0x00\n        /* \"#utility.yul\":3667:3669   */\n      0x20\n        /* \"#utility.yul\":3656:3665   */\n      dup3\n        /* \"#utility.yul\":3652:3670   */\n      add\n        /* \"#utility.yul\":3644:3670   */\n      swap1\n      pop\n        /* \"#utility.yul\":3680:3751   */\n      tag_233\n        /* \"#utility.yul\":3748:3749   */\n      0x00\n        /* \"#utility.yul\":3737:3746   */\n      dup4\n        /* \"#utility.yul\":3733:3750   */\n      add\n        /* \"#utility.yul\":3724:3730   */\n      dup5\n        /* \"#utility.yul\":3680:3751   */\n      tag_174\n      jump\t// in\n    tag_233:\n        /* \"#utility.yul\":3536:3758   */\n      swap3\n      swap2\n      pop\n      pop\n      jump\t// out\n        /* \"#utility.yul\":3764:4238   */\n    tag_81:\n        /* \"#utility.yul\":3832:3838   */\n      0x00\n        /* \"#utility.yul\":3840:3846   */\n      dup1\n        /* \"#utility.yul\":3889:3891   */\n      0x40\n        /* \"#utility.yul\":3877:3886   */\n      dup4\n        /* \"#utility.yul\":3868:3875   */\n      dup6\n        /* \"#utility.yul\":3864:3887   */\n      sub\n        /* \"#utility.yul\":3860:3892   */\n      slt\n        /* \"#utility.yul\":3857:3976   */\n      iszero\n      tag_235\n      jumpi\n        /* \"#utility.yul\":3895:3974   */\n      tag_236\n      tag_159\n      jump\t// in\n    tag_236:\n        /* \"#utility.yul\":3857:3976   */\n    tag_235:\n        /* \"#utility.yul\":4015:4016   */\n      0x00\n        /* \"#utility.yul\":4040:4093   */\n      tag_237\n        /* \"#utility.yul\":4085:4092   */\n      dup6\n        /* \"#utility.yul\":4076:4082   */\n      dup3\n        /* \"#utility.yul\":4065:4074   */\n      dup7\n        /* \"#utility.yul\":4061:4083   */\n      add\n        /* \"#utility.yul\":4040:4093   */\n      tag_164\n      jump\t// in\n    tag_237:\n        /* \"#utility.yul\":4030:4093   */\n      swap3\n      pop\n        /* \"#utility.yul\":3986:4103   */\n      pop\n        /* \"#utility.yul\":4142:4144   */\n      0x20\n        /* \"#utility.yul\":4168:4221   */\n      tag_238\n        /* \"#utility.yul\":4213:4220   */\n      dup6\n        /* \"#utility.yul\":4204:4210   */\n      dup3\n        /* \"#utility.yul\":4193:4202   */\n      dup7\n        /* \"#utility.yul\":4189:4211   */\n      add\n        /* \"#utility.yul\":4168:4221   */\n      tag_173\n      jump\t// in\n    tag_238:\n        /* \"#utility.yul\":4158:4221   */\n      swap2\n      pop\n        /* \"#utility.yul\":4113:4231   */\n      pop\n        /* \"#utility.yul\":3764:4238   */\n      swap3\n      pop\n      swap3\n      swap1\n      pop\n      jump\t// out\n        /* \"#utility.yul\":4244:4413   */\n    tag_175:\n        /* \"#utility.yul\":4328:4339   */\n      0x00\n        /* \"#utility.yul\":4362:4368   */\n      dup3\n        /* \"#utility.yul\":4357:4360   */\n      dup3\n        /* \"#utility.yul\":4350:4369   */\n      mstore\n        /* \"#utility.yul\":4402:4406   */\n      0x20\n        /* \"#utility.yul\":4397:4400   */\n      dup3\n        /* \"#utility.yul\":4393:4407   */\n      add\n        /* \"#utility.yul\":4378:4407   */\n      swap1\n      pop\n        /* \"#utility.yul\":4244:4413   */\n      swap3\n      swap2\n      pop\n      pop\n      jump\t// out\n        /* \"#utility.yul\":4419:4579   */\n    tag_176:\n        /* \"#utility.yul\":4559:4571   */\n      0x6f776e6572206f6e6c7900000000000000000000000000000000000000000000\n        /* \"#utility.yul\":4555:4556   */\n      0x00\n        /* \"#utility.yul\":4547:4553   */\n      dup3\n        /* \"#utility.yul\":4543:4557   */\n      add\n        /* \"#utility.yul\":4536:4572   */\n      mstore\n        /* \"#utility.yul\":4419:4579   */\n      pop\n      jump\t// out\n        /* \"#utility.yul\":4585:4951   */\n    tag_177:\n        /* \"#utility.yul\":4727:4730   */\n      0x00\n        /* \"#utility.yul\":4748:4815   */\n      tag_242\n        /* \"#utility.yul\":4812:4814   */\n      0x0a\n        /* \"#utility.yul\":4807:4810   */\n      dup4\n        /* \"#utility.yul\":4748:4815   */\n      tag_175\n      jump\t// in\n    tag_242:\n        /* \"#utility.yul\":4741:4815   */\n      swap2\n      pop\n        /* \"#utility.yul\":4824:4917   */\n      tag_243\n        /* \"#utility.yul\":4913:4916   */\n      dup3\n        /* \"#utility.yul\":4824:4917   */\n      tag_176\n      jump\t// in\n    tag_243:\n        /* \"#utility.yul\":4942:4944   */\n      0x20\n        /* \"#utility.yul\":4937:4940   */\n      dup3\n        /* \"#utility.yul\":4933:4945   */\n      add\n        /* \"#utility.yul\":4926:4945   */\n      swap1\n      pop\n        /* \"#utility.yul\":4585:4951   */\n      swap2\n      swap1\n      pop\n      jump\t// out\n        /* \"#utility.yul\":4957:5376   */\n    tag_95:\n        /* \"#utility.yul\":5123:5127   */\n      0x00\n        /* \"#utility.yul\":5161:5163   */\n      0x20\n        /* \"#utility.yul\":5150:5159   */\n      dup3\n        /* \"#utility.yul\":5146:5164   */\n      add\n        /* \"#utility.yul\":5138:5164   */\n      swap1\n      pop\n        /* \"#utility.yul\":5210:5219   */\n      dup2\n        /* \"#utility.yul\":5204:5208   */\n      dup2\n        /* \"#utility.yul\":5200:5220   */\n      sub\n        /* \"#utility.yul\":5196:5197   */\n      0x00\n        /* \"#utility.yul\":5185:5194   */\n      dup4\n        /* \"#utility.yul\":5181:5198   */\n      add\n        /* \"#utility.yul\":5174:5221   */\n      mstore\n        /* \"#utility.yul\":5238:5369   */\n      tag_245\n        /* \"#utility.yul\":5364:5368   */\n      dup2\n        /* \"#utility.yul\":5238:5369   */\n      tag_177\n      jump\t// in\n    tag_245:\n        /* \"#utility.yul\":5230:5369   */\n      swap1\n      pop\n        /* \"#utility.yul\":4957:5376   */\n      swap2\n      swap1\n      pop\n      jump\t// out\n        /* \"#utility.yul\":5382:5562   */\n    tag_178:\n        /* \"#utility.yul\":5430:5507   */\n      0x4e487b7100000000000000000000000000000000000000000000000000000000\n        /* \"#utility.yul\":5427:5428   */\n      0x00\n        /* \"#utility.yul\":5420:5508   */\n      mstore\n        /* \"#utility.yul\":5527:5531   */\n      0x11\n        /* \"#utility.yul\":5524:5525   */\n      0x04\n        /* \"#utility.yul\":5517:5532   */\n      mstore\n        /* \"#utility.yul\":5551:5555   */\n      0x24\n        /* \"#utility.yul\":5548:5549   */\n      0x00\n        /* \"#utility.yul\":5541:5556   */\n      revert\n        /* \"#utility.yul\":5568:5762   */\n    tag_105:\n        /* \"#utility.yul\":5608:5612   */\n      0x00\n        /* \"#utility.yul\":5628:5648   */\n      tag_248\n        /* \"#utility.yul\":5646:5647   */\n      dup3\n        /* \"#utility.yul\":5628:5648   */\n      tag_167\n      jump\t// in\n    tag_248:\n        /* \"#utility.yul\":5623:5648   */\n      swap2\n      pop\n        /* \"#utility.yul\":5662:5682   */\n      tag_249\n        /* \"#utility.yul\":5680:5681   */\n      dup4\n        /* \"#utility.yul\":5662:5682   */\n      tag_167\n      jump\t// in\n    tag_249:\n        /* \"#utility.yul\":5657:5682   */\n      swap3\n      pop\n        /* \"#utility.yul\":5706:5707   */\n      dup3\n        /* \"#utility.yul\":5703:5704   */\n      dup3\n        /* \"#utility.yul\":5699:5708   */\n      sub\n        /* \"#utility.yul\":5691:5708   */\n      swap1\n      pop\n        /* \"#utility.yul\":5730:5731   */\n      dup2\n        /* \"#utility.yul\":5724:5728   */\n      dup2\n        /* \"#utility.yul\":5721:5732   */\n      gt\n        /* \"#utility.yul\":5718:5755   */\n      iszero\n      tag_250\n      jumpi\n        /* \"#utility.yul\":5735:5753   */\n      tag_251\n      tag_178\n      jump\t// in\n    tag_251:\n        /* \"#utility.yul\":5718:5755   */\n    tag_250:\n        /* \"#utility.yul\":5568:5762   */\n      swap3\n      swap2\n      pop\n      pop\n      jump\t// out\n        /* \"#utility.yul\":5768:5959   */\n    tag_107:\n        /* \"#utility.yul\":5808:5811   */\n      0x00\n        /* \"#utility.yul\":5827:5847   */\n      tag_253\n        /* \"#utility.yul\":5845:5846   */\n      dup3\n        /* \"#utility.yul\":5827:5847   */\n      tag_167\n      jump\t// in\n    tag_253:\n        /* \"#utility.yul\":5822:5847   */\n      swap2\n      pop\n        /* \"#utility.yul\":5861:5881   */\n      tag_254\n        /* \"#utility.yul\":5879:5880   */\n      dup4\n        /* \"#utility.yul\":5861:5881   */\n      tag_167\n      jump\t// in\n    tag_254:\n        /* \"#utility.yul\":5856:5881   */\n      swap3\n      pop\n        /* \"#utility.yul\":5904:5905   */\n      dup3\n        /* \"#utility.yul\":5901:5902   */\n      dup3\n        /* \"#utility.yul\":5897:5906   */\n      add\n        /* \"#utility.yul\":5890:5906   */\n      swap1\n      pop\n        /* \"#utility.yul\":5925:5928   */\n      dup1\n        /* \"#utility.yul\":5922:5923   */\n      dup3\n        /* \"#utility.yul\":5919:5929   */\n      gt\n        /* \"#utility.yul\":5916:5952   */\n      iszero\n      tag_255\n      jumpi\n        /* \"#utility.yul\":5932:5950   */\n      tag_256\n      tag_178\n      jump\t// in\n    tag_256:\n        /* \"#utility.yul\":5916:5952   */\n    tag_255:\n        /* \"#utility.yul\":5768:5959   */\n      swap3\n      swap2\n      pop\n      pop\n      jump\t// out\n        /* \"#utility.yul\":5965:6375   */\n    tag_110:\n        /* \"#utility.yul\":6005:6012   */\n      0x00\n        /* \"#utility.yul\":6028:6048   */\n      tag_258\n        /* \"#utility.yul\":6046:6047   */\n      dup3\n        /* \"#utility.yul\":6028:6048   */\n      tag_167\n      jump\t// in\n    tag_258:\n        /* \"#utility.yul\":6023:6048   */\n      swap2\n      pop\n        /* \"#utility.yul\":6062:6082   */\n      tag_259\n        /* \"#utility.yul\":6080:6081   */\n      dup4\n        /* \"#utility.yul\":6062:6082   */\n      tag_167\n      jump\t// in\n    tag_259:\n        /* \"#utility.yul\":6057:6082   */\n      swap3\n      pop\n        /* \"#utility.yul\":6117:6118   */\n      dup3\n        /* \"#utility.yul\":6114:6115   */\n      dup3\n        /* \"#utility.yul\":6110:6119   */\n      mul\n        /* \"#utility.yul\":6139:6169   */\n      tag_260\n        /* \"#utility.yul\":6157:6168   */\n      dup2\n        /* \"#utility.yul\":6139:6169   */\n      tag_167\n      jump\t// in\n    tag_260:\n        /* \"#utility.yul\":6128:6169   */\n      swap2\n      pop\n        /* \"#utility.yul\":6318:6319   */\n      dup3\n        /* \"#utility.yul\":6309:6316   */\n      dup3\n        /* \"#utility.yul\":6305:6320   */\n      div\n        /* \"#utility.yul\":6302:6303   */\n      dup5\n        /* \"#utility.yul\":6299:6321   */\n      eq\n        /* \"#utility.yul\":6279:6280   */\n      dup4\n        /* \"#utility.yul\":6272:6281   */\n      iszero\n        /* \"#utility.yul\":6252:6335   */\n      or\n        /* \"#utility.yul\":6229:6368   */\n      tag_261\n      jumpi\n        /* \"#utility.yul\":6348:6366   */\n      tag_262\n      tag_178\n      jump\t// in\n    tag_262:\n        /* \"#utility.yul\":6229:6368   */\n    tag_261:\n        /* \"#utility.yul\":6013:6375   */\n      pop\n        /* \"#utility.yul\":5965:6375   */\n      swap3\n      swap2\n      pop\n      pop\n      jump\t// out\n        /* \"#utility.yul\":6381:6553   */\n    tag_179:\n        /* \"#utility.yul\":6521:6545   */\n      0x596f7520626f756768742065766572797468696e672100000000000000000000\n        /* \"#utility.yul\":6517:6518   */\n      0x00\n        /* \"#utility.yul\":6509:6515   */\n      dup3\n        /* \"#utility.yul\":6505:6519   */\n      add\n        /* \"#utility.yul\":6498:6546   */\n      mstore\n        /* \"#utility.yul\":6381:6553   */\n      pop\n      jump\t// out\n        /* \"#utility.yul\":6559:6925   */\n    tag_180:\n        /* \"#utility.yul\":6701:6704   */\n      0x00\n        /* \"#utility.yul\":6722:6789   */\n      tag_265\n        /* \"#utility.yul\":6786:6788   */\n      0x16\n        /* \"#utility.yul\":6781:6784   */\n      dup4\n        /* \"#utility.yul\":6722:6789   */\n      tag_175\n      jump\t// in\n    tag_265:\n        /* \"#utility.yul\":6715:6789   */\n      swap2\n      pop\n        /* \"#utility.yul\":6798:6891   */\n      tag_266\n        /* \"#utility.yul\":6887:6890   */\n      dup3\n        /* \"#utility.yul\":6798:6891   */\n      tag_179\n      jump\t// in\n    tag_266:\n        /* \"#utility.yul\":6916:6918   */\n      0x20\n        /* \"#utility.yul\":6911:6914   */\n      dup3\n        /* \"#utility.yul\":6907:6919   */\n      add\n        /* \"#utility.yul\":6900:6919   */\n      swap1\n      pop\n        /* \"#utility.yul\":6559:6925   */\n      swap2\n      swap1\n      pop\n      jump\t// out\n        /* \"#utility.yul\":6931:7350   */\n    tag_133:\n        /* \"#utility.yul\":7097:7101   */\n      0x00\n        /* \"#utility.yul\":7135:7137   */\n      0x20\n        /* \"#utility.yul\":7124:7133   */\n      dup3\n        /* \"#utility.yul\":7120:7138   */\n      add\n        /* \"#utility.yul\":7112:7138   */\n      swap1\n      pop\n        /* \"#utility.yul\":7184:7193   */\n      dup2\n        /* \"#utility.yul\":7178:7182   */\n      dup2\n        /* \"#utility.yul\":7174:7194   */\n      sub\n        /* \"#utility.yul\":7170:7171   */\n      0x00\n        /* \"#utility.yul\":7159:7168   */\n      dup4\n        /* \"#utility.yul\":7155:7172   */\n      add\n        /* \"#utility.yul\":7148:7195   */\n      mstore\n        /* \"#utility.yul\":7212:7343   */\n      tag_268\n        /* \"#utility.yul\":7338:7342   */\n      dup2\n        /* \"#utility.yul\":7212:7343   */\n      tag_180\n      jump\t// in\n    tag_268:\n        /* \"#utility.yul\":7204:7343   */\n      swap1\n      pop\n        /* \"#utility.yul\":6931:7350   */\n      swap2\n      swap1\n      pop\n      jump\t// out\n        /* \"#utility.yul\":7356:7589   */\n    tag_141:\n        /* \"#utility.yul\":7395:7398   */\n      0x00\n        /* \"#utility.yul\":7418:7442   */\n      tag_270\n        /* \"#utility.yul\":7436:7441   */\n      dup3\n        /* \"#utility.yul\":7418:7442   */\n      tag_167\n      jump\t// in\n    tag_270:\n        /* \"#utility.yul\":7409:7442   */\n      swap2\n      pop\n        /* \"#utility.yul\":7464:7530   */\n      0xffffffffffffffffffffffffffffffffffffffffffffffffffffffffffffffff\n        /* \"#utility.yul\":7457:7462   */\n      dup3\n        /* \"#utility.yul\":7454:7531   */\n      sub\n        /* \"#utility.yul\":7451:7554   */\n      tag_271\n      jumpi\n        /* \"#utility.yul\":7534:7552   */\n      tag_272\n      tag_178\n      jump\t// in\n    tag_272:\n        /* \"#utility.yul\":7451:7554   */\n    tag_271:\n        /* \"#utility.yul\":7581:7582   */\n      0x01\n        /* \"#utility.yul\":7574:7579   */\n      dup3\n        /* \"#utility.yul\":7570:7583   */\n      add\n        /* \"#utility.yul\":7563:7583   */\n      swap1\n      pop\n        /* \"#utility.yul\":7356:7589   */\n      swap2\n      swap1\n      pop\n      jump\t// out\n        /* \"#utility.yul\":7595:7758   */\n    tag_181:\n        /* \"#utility.yul\":7735:7750   */\n      0x6f67206f776e6572206f6e6c7900000000000000000000000000000000000000\n        /* \"#utility.yul\":7731:7732   */\n      0x00\n        /* \"#utility.yul\":7723:7729   */\n      dup3\n        /* \"#utility.yul\":7719:7733   */\n      add\n        /* \"#utility.yul\":7712:7751   */\n      mstore\n        /* \"#utility.yul\":7595:7758   */\n      pop\n      jump\t// out\n        /* \"#utility.yul\":7764:8130   */\n    tag_182:\n        /* \"#utility.yul\":7906:7909   */\n      0x00\n        /* \"#utility.yul\":7927:7994   */\n      tag_275\n        /* \"#utility.yul\":7991:7993   */\n      0x0d\n        /* \"#utility.yul\":7986:7989   */\n      dup4\n        /* \"#utility.yul\":7927:7994   */\n      tag_175\n      jump\t// in\n    tag_275:\n        /* \"#utility.yul\":7920:7994   */\n      swap2\n      pop\n        /* \"#utility.yul\":8003:8096   */\n      tag_276\n        /* \"#utility.yul\":8092:8095   */\n      dup3\n        /* \"#utility.yul\":8003:8096   */\n      tag_181\n      jump\t// in\n    tag_276:\n        /* \"#utility.yul\":8121:8123   */\n      0x20\n        /* \"#utility.yul\":8116:8119   */\n      dup3\n        /* \"#utility.yul\":8112:8124   */\n      add\n        /* \"#utility.yul\":8105:8124   */\n      swap1\n      pop\n        /* \"#utility.yul\":7764:8130   */\n      swap2\n      swap1\n      pop\n      jump\t// out\n        /* \"#utility.yul\":8136:8555   */\n    tag_146:\n        /* \"#utility.yul\":8302:8306   */\n      0x00\n        /* \"#utility.yul\":8340:8342   */\n      0x20\n        /* \"#utility.yul\":8329:8338   */\n      dup3\n        /* \"#utility.yul\":8325:8343   */\n      add\n        /* \"#utility.yul\":8317:8343   */\n      swap1\n      pop\n        /* \"#utility.yul\":8389:8398   */\n      dup2\n        /* \"#utility.yul\":8383:8387   */\n      dup2\n        /* \"#utility.yul\":8379:8399   */\n      sub\n        /* \"#utility.yul\":8375:8376   */\n      0x00\n        /* \"#utility.yul\":8364:8373   */\n      dup4\n        /* \"#utility.yul\":8360:8377   */\n      add\n        /* \"#utility.yul\":8353:8400   */\n      mstore\n        /* \"#utility.yul\":8417:8548   */\n      tag_278\n        /* \"#utility.yul\":8543:8547   */\n      dup2\n        /* \"#utility.yul\":8417:8548   */\n      tag_182\n      jump\t// in\n    tag_278:\n        /* \"#utility.yul\":8409:8548   */\n      swap1\n      pop\n        /* \"#utility.yul\":8136:8555   */\n      swap2\n      swap1\n      pop\n      jump\t// out\n        /* \"#utility.yul\":8561:8741   */\n    tag_183:\n        /* \"#utility.yul\":8609:8686   */\n      0x4e487b7100000000000000000000000000000000000000000000000000000000\n        /* \"#utility.yul\":8606:8607   */\n      0x00\n        /* \"#utility.yul\":8599:8687   */\n      mstore\n        /* \"#utility.yul\":8706:8710   */\n      0x12\n        /* \"#utility.yul\":8703:8704   */\n      0x04\n        /* \"#utility.yul\":8696:8711   */\n      mstore\n        /* \"#utility.yul\":8730:8734   */\n      0x24\n        /* \"#utility.yul\":8727:8728   */\n      0x00\n        /* \"#utility.yul\":8720:8735   */\n      revert\n        /* \"#utility.yul\":8747:8932   */\n    tag_157:\n        /* \"#utility.yul\":8787:8788   */\n      0x00\n        /* \"#utility.yul\":8804:8824   */\n      tag_281\n        /* \"#utility.yul\":8822:8823   */\n      dup3\n        /* \"#utility.yul\":8804:8824   */\n      tag_167\n      jump\t// in\n    tag_281:\n        /* \"#utility.yul\":8799:8824   */\n      swap2\n      pop\n        /* \"#utility.yul\":8838:8858   */\n      tag_282\n        /* \"#utility.yul\":8856:8857   */\n      dup4\n        /* \"#utility.yul\":8838:8858   */\n      tag_167\n      jump\t// in\n    tag_282:\n        /* \"#utility.yul\":8833:8858   */\n      swap3\n      pop\n        /* \"#utility.yul\":8877:8878   */\n      dup3\n        /* \"#utility.yul\":8867:8902   */\n      tag_283\n      jumpi\n        /* \"#utility.yul\":8882:8900   */\n      tag_284\n      tag_183\n      jump\t// in\n    tag_284:\n        /* \"#utility.yul\":8867:8902   */\n    tag_283:\n        /* \"#utility.yul\":8924:8925   */\n      dup3\n        /* \"#utility.yul\":8921:8922   */\n      dup3\n        /* \"#utility.yul\":8917:8926   */\n      div\n        /* \"#utility.yul\":8912:8926   */\n      swap1\n      pop\n        /* \"#utility.yul\":8747:8932   */\n      swap3\n      swap2\n      pop\n      pop\n      jump\t// out\n\n    auxdata: 0xa2646970667358221220148783ae8791476ab03207029df973378abecfa7299b93eb4be94fe099f147aa64736f6c634300081a0033\n}\n",
				"bytecode": {
					"linkReferences": {},
					"object": "6080604052348015600e575f80fd5b503360015f6101000a81548173ffffffffffffffffffffffffffffffffffffffff021916908373ffffffffffffffffffffffffffffffffffffffff160217905550620f424060058190555060055460048190555060015f803373ffffffffffffffffffffffffffffffffffffffff1673ffffffffffffffffffffffffffffffffffffffff1681526020019081526020015f205f6101000a81548160ff021916908315150217905550611145806100c35f395ff3fe6080604052600436106100f2575f3560e01c80638c8a960611610089578063cd5c4c7011610058578063cd5c4c70146102e4578063d0679d341461030c578063f1fffdcb14610334578063fd1b6f2b1461035e576100f2565b80638c8a96061461025e578063a0712d6814610288578063a4821719146102b0578063c6490835146102ba576100f2565b806327e235e3116100c557806327e235e3146101945780637065cb48146101d05780637a3b1e86146101f8578063865cf92814610234576100f2565b8063022914a7146100f657806312065fe0146101325780631828db821461015c5780632397e4d714610178575b5f80fd5b348015610101575f80fd5b5061011c60048036038101906101179190610c9f565b610388565b6040516101299190610ce4565b60405180910390f35b34801561013d575f80fd5b506101466103a4565b6040516101539190610d15565b60405180910390f35b61017660048036038101906101719190610d69565b6103ab565b005b610192600480360381019061018d9190610dbe565b6104d2565b005b34801561019f575f80fd5b506101ba60048036038101906101b59190610c9f565b6105ef565b6040516101c79190610d15565b60405180910390f35b3480156101db575f80fd5b506101f660048036038101906101f19190610c9f565b610604565b005b348015610203575f80fd5b5061021e60048036038101906102199190610dbe565b6106e3565b60405161022b9190610df8565b60405180910390f35b34801561023f575f80fd5b5061024861071e565b6040516102559190610d15565b60405180910390f35b348015610269575f80fd5b50610272610724565b60405161027f9190610d15565b60405180910390f35b348015610293575f80fd5b506102ae60048036038101906102a99190610dbe565b610730565b005b6102b86107eb565b005b3480156102c5575f80fd5b506102ce61099c565b6040516102db9190610d15565b60405180910390f35b3480156102ef575f80fd5b5061030a60048036038101906103059190610c9f565b6109a2565b005b348015610317575f80fd5b50610332600480360381019061032d9190610e11565b610a87565b005b34801561033f575f80fd5b50610348610bf1565b6040516103559190610df8565b60405180910390f35b348015610369575f80fd5b50610372610c16565b60405161037f9190610d15565b60405180910390f35b5f602052805f5260405f205f915054906101000a900460ff1681565b5f47905090565b5f803373ffffffffffffffffffffffffffffffffffffffff1673ffffffffffffffffffffffffffffffffffffffff1681526020019081526020015f205f9054906101000a900460ff16610433576040517f08c379a000000000000000000000000000000000000000000000000000000000815260040161042a90610ea9565b60405180910390fd5b5f808273ffffffffffffffffffffffffffffffffffffffff1673ffffffffffffffffffffffffffffffffffffffff1681526020019081526020015f205f9054906101000a900460ff16610484575f80fd5b8073ffffffffffffffffffffffffffffffffffffffff166108fc6104a66103a4565b90811502906040515f60405180830381858888f193505050501580156104ce573d5f803e3d5ffd5b5050565b5f60065f3373ffffffffffffffffffffffffffffffffffffffff1673ffffffffffffffffffffffffffffffffffffffff1681526020019081526020015f205490508082111561051f575f80fd5b5f821161052a575f80fd5b8160065f3373ffffffffffffffffffffffffffffffffffffffff1673ffffffffffffffffffffffffffffffffffffffff1681526020019081526020015f205f8282546105769190610ef4565b925050819055508160055f82825461058e9190610f27565b925050819055503373ffffffffffffffffffffffffffffffffffffffff166108fc6105b7610724565b846105c29190610f5a565b90811502906040515f60405180830381858888f193505050501580156105ea573d5f803e3d5ffd5b505050565b6006602052805f5260405f205f915090505481565b5f803373ffffffffffffffffffffffffffffffffffffffff1673ffffffffffffffffffffffffffffffffffffffff1681526020019081526020015f205f9054906101000a900460ff1661068c576040517f08c379a000000000000000000000000000000000000000000000000000000000815260040161068390610ea9565b60405180910390fd5b60015f808373ffffffffffffffffffffffffffffffffffffffff1673ffffffffffffffffffffffffffffffffffffffff1681526020019081526020015f205f6101000a81548160ff02191690831515021790555050565b600281815481106106f2575f80fd5b905f5260205f20015f915054906101000a900473ffffffffffffffffffffffffffffffffffffffff1681565b60055481565b5f64e8d4a51000905090565b5f803373ffffffffffffffffffffffffffffffffffffffff1673ffffffffffffffffffffffffffffffffffffffff1681526020019081526020015f205f9054906101000a900460ff166107b8576040517f08c379a00000000000000000000000000000000000000000000000000000000081526004016107af90610ea9565b60405180910390fd5b8060045f8282546107c99190610f27565b925050819055508060055f8282546107e19190610f27565b9250508190555050565b5f6107f4610724565b90505f6108013483610c1c565b90505f811161080e575f80fd5b60055481106108525760055490507fded73d9b7994988fc49241f75c8f6577ad0070900ff55ffe76e498cf7e03bef460405161084990610fe5565b60405180910390a15b5f818361085f9190610f5a565b90505f813461086e9190610ef4565b90503373ffffffffffffffffffffffffffffffffffffffff166108fc8290811502906040515f60405180830381858888f193505050501580156108b3573d5f803e3d5ffd5b508260065f3373ffffffffffffffffffffffffffffffffffffffff1673ffffffffffffffffffffffffffffffffffffffff1681526020019081526020015f205f8282546109009190610f27565b925050819055508260055f8282546109189190610ef4565b9250508190555060035f81548092919061093190611003565b9190505550600233908060018154018082558091505060019003905f5260205f20015f9091909190916101000a81548173ffffffffffffffffffffffffffffffffffffffff021916908373ffffffffffffffffffffffffffffffffffffffff16021790555050505050565b60045481565b3373ffffffffffffffffffffffffffffffffffffffff1660015f9054906101000a900473ffffffffffffffffffffffffffffffffffffffff1673ffffffffffffffffffffffffffffffffffffffff1614610a31576040517f08c379a0000000000000000000000000000000000000000000000000000000008152600401610a2890611094565b60405180910390fd5b5f805f8373ffffffffffffffffffffffffffffffffffffffff1673ffffffffffffffffffffffffffffffffffffffff1681526020019081526020015f205f6101000a81548160ff02191690831515021790555050565b60065f3373ffffffffffffffffffffffffffffffffffffffff1673ffffffffffffffffffffffffffffffffffffffff1681526020019081526020015f2054811115610ad0575f80fd5b8060065f3373ffffffffffffffffffffffffffffffffffffffff1673ffffffffffffffffffffffffffffffffffffffff1681526020019081526020015f205f828254610b1c9190610ef4565b925050819055508060065f8473ffffffffffffffffffffffffffffffffffffffff1673ffffffffffffffffffffffffffffffffffffffff1681526020019081526020015f205f828254610b6f9190610f27565b9250508190555060035f815480929190610b8890611003565b9190505550600282908060018154018082558091505060019003905f5260205f20015f9091909190916101000a81548173ffffffffffffffffffffffffffffffffffffffff021916908373ffffffffffffffffffffffffffffffffffffffff1602179055505050565b60015f9054906101000a900473ffffffffffffffffffffffffffffffffffffffff1681565b60035481565b5f808211610c28575f80fd5b5f8284610c3591906110df565b90508091505092915050565b5f80fd5b5f73ffffffffffffffffffffffffffffffffffffffff82169050919050565b5f610c6e82610c45565b9050919050565b610c7e81610c64565b8114610c88575f80fd5b50565b5f81359050610c9981610c75565b92915050565b5f60208284031215610cb457610cb3610c41565b5b5f610cc184828501610c8b565b91505092915050565b5f8115159050919050565b610cde81610cca565b82525050565b5f602082019050610cf75f830184610cd5565b92915050565b5f819050919050565b610d0f81610cfd565b82525050565b5f602082019050610d285f830184610d06565b92915050565b5f610d3882610c45565b9050919050565b610d4881610d2e565b8114610d52575f80fd5b50565b5f81359050610d6381610d3f565b92915050565b5f60208284031215610d7e57610d7d610c41565b5b5f610d8b84828501610d55565b91505092915050565b610d9d81610cfd565b8114610da7575f80fd5b50565b5f81359050610db881610d94565b92915050565b5f60208284031215610dd357610dd2610c41565b5b5f610de084828501610daa565b91505092915050565b610df281610c64565b82525050565b5f602082019050610e0b5f830184610de9565b92915050565b5f8060408385031215610e2757610e26610c41565b5b5f610e3485828601610c8b565b9250506020610e4585828601610daa565b9150509250929050565b5f82825260208201905092915050565b7f6f776e6572206f6e6c79000000000000000000000000000000000000000000005f82015250565b5f610e93600a83610e4f565b9150610e9e82610e5f565b602082019050919050565b5f6020820190508181035f830152610ec081610e87565b9050919050565b7f4e487b71000000000000000000000000000000000000000000000000000000005f52601160045260245ffd5b5f610efe82610cfd565b9150610f0983610cfd565b9250828203905081811115610f2157610f20610ec7565b5b92915050565b5f610f3182610cfd565b9150610f3c83610cfd565b9250828201905080821115610f5457610f53610ec7565b5b92915050565b5f610f6482610cfd565b9150610f6f83610cfd565b9250828202610f7d81610cfd565b91508282048414831517610f9457610f93610ec7565b5b5092915050565b7f596f7520626f756768742065766572797468696e6721000000000000000000005f82015250565b5f610fcf601683610e4f565b9150610fda82610f9b565b602082019050919050565b5f6020820190508181035f830152610ffc81610fc3565b9050919050565b5f61100d82610cfd565b91507fffffffffffffffffffffffffffffffffffffffffffffffffffffffffffffffff820361103f5761103e610ec7565b5b600182019050919050565b7f6f67206f776e6572206f6e6c79000000000000000000000000000000000000005f82015250565b5f61107e600d83610e4f565b91506110898261104a565b602082019050919050565b5f6020820190508181035f8301526110ab81611072565b9050919050565b7f4e487b71000000000000000000000000000000000000000000000000000000005f52601260045260245ffd5b5f6110e982610cfd565b91506110f483610cfd565b925082611104576111036110b2565b5b82820490509291505056fea2646970667358221220148783ae8791476ab03207029df973378abecfa7299b93eb4be94fe099f147aa64736f6c634300081a0033",
					"opcodes": "PUSH1 0x80 PUSH1 0x40 MSTORE CALLVALUE DUP1 ISZERO PUSH1 0xE JUMPI PUSH0 DUP1 REVERT JUMPDEST POP CALLER PUSH1 0x1 PUSH0 PUSH2 0x100 EXP DUP2 SLOAD DUP2 PUSH20 0xFFFFFFFFFFFFFFFFFFFFFFFFFFFFFFFFFFFFFFFF MUL NOT AND SWAP1 DUP4 PUSH20 0xFFFFFFFFFFFFFFFFFFFFFFFFFFFFFFFFFFFFFFFF AND MUL OR SWAP1 SSTORE POP PUSH3 0xF4240 PUSH1 0x5 DUP2 SWAP1 SSTORE POP PUSH1 0x5 SLOAD PUSH1 0x4 DUP2 SWAP1 SSTORE POP PUSH1 0x1 PUSH0 DUP1 CALLER PUSH20 0xFFFFFFFFFFFFFFFFFFFFFFFFFFFFFFFFFFFFFFFF AND PUSH20 0xFFFFFFFFFFFFFFFFFFFFFFFFFFFFFFFFFFFFFFFF AND DUP2 MSTORE PUSH1 0x20 ADD SWAP1 DUP2 MSTORE PUSH1 0x20 ADD PUSH0 KECCAK256 PUSH0 PUSH2 0x100 EXP DUP2 SLOAD DUP2 PUSH1 0xFF MUL NOT AND SWAP1 DUP4 ISZERO ISZERO MUL OR SWAP1 SSTORE POP PUSH2 0x1145 DUP1 PUSH2 0xC3 PUSH0 CODECOPY PUSH0 RETURN INVALID PUSH1 0x80 PUSH1 0x40 MSTORE PUSH1 0x4 CALLDATASIZE LT PUSH2 0xF2 JUMPI PUSH0 CALLDATALOAD PUSH1 0xE0 SHR DUP1 PUSH4 0x8C8A9606 GT PUSH2 0x89 JUMPI DUP1 PUSH4 0xCD5C4C70 GT PUSH2 0x58 JUMPI DUP1 PUSH4 0xCD5C4C70 EQ PUSH2 0x2E4 JUMPI DUP1 PUSH4 0xD0679D34 EQ PUSH2 0x30C JUMPI DUP1 PUSH4 0xF1FFFDCB EQ PUSH2 0x334 JUMPI DUP1 PUSH4 0xFD1B6F2B EQ PUSH2 0x35E JUMPI PUSH2 0xF2 JUMP JUMPDEST DUP1 PUSH4 0x8C8A9606 EQ PUSH2 0x25E JUMPI DUP1 PUSH4 0xA0712D68 EQ PUSH2 0x288 JUMPI DUP1 PUSH4 0xA4821719 EQ PUSH2 0x2B0 JUMPI DUP1 PUSH4 0xC6490835 EQ PUSH2 0x2BA JUMPI PUSH2 0xF2 JUMP JUMPDEST DUP1 PUSH4 0x27E235E3 GT PUSH2 0xC5 JUMPI DUP1 PUSH4 0x27E235E3 EQ PUSH2 0x194 JUMPI DUP1 PUSH4 0x7065CB48 EQ PUSH2 0x1D0 JUMPI DUP1 PUSH4 0x7A3B1E86 EQ PUSH2 0x1F8 JUMPI DUP1 PUSH4 0x865CF928 EQ PUSH2 0x234 JUMPI PUSH2 0xF2 JUMP JUMPDEST DUP1 PUSH4 0x22914A7 EQ PUSH2 0xF6 JUMPI DUP1 PUSH4 0x12065FE0 EQ PUSH2 0x132 JUMPI DUP1 PUSH4 0x1828DB82 EQ PUSH2 0x15C JUMPI DUP1 PUSH4 0x2397E4D7 EQ PUSH2 0x178 JUMPI JUMPDEST PUSH0 DUP1 REVERT JUMPDEST CALLVALUE DUP1 ISZERO PUSH2 0x101 JUMPI PUSH0 DUP1 REVERT JUMPDEST POP PUSH2 0x11C PUSH1 0x4 DUP1 CALLDATASIZE SUB DUP2 ADD SWAP1 PUSH2 0x117 SWAP2 SWAP1 PUSH2 0xC9F JUMP JUMPDEST PUSH2 0x388 JUMP JUMPDEST PUSH1 0x40 MLOAD PUSH2 0x129 SWAP2 SWAP1 PUSH2 0xCE4 JUMP JUMPDEST PUSH1 0x40 MLOAD DUP1 SWAP2 SUB SWAP1 RETURN JUMPDEST CALLVALUE DUP1 ISZERO PUSH2 0x13D JUMPI PUSH0 DUP1 REVERT JUMPDEST POP PUSH2 0x146 PUSH2 0x3A4 JUMP JUMPDEST PUSH1 0x40 MLOAD PUSH2 0x153 SWAP2 SWAP1 PUSH2 0xD15 JUMP JUMPDEST PUSH1 0x40 MLOAD DUP1 SWAP2 SUB SWAP1 RETURN JUMPDEST PUSH2 0x176 PUSH1 0x4 DUP1 CALLDATASIZE SUB DUP2 ADD SWAP1 PUSH2 0x171 SWAP2 SWAP1 PUSH2 0xD69 JUMP JUMPDEST PUSH2 0x3AB JUMP JUMPDEST STOP JUMPDEST PUSH2 0x192 PUSH1 0x4 DUP1 CALLDATASIZE SUB DUP2 ADD SWAP1 PUSH2 0x18D SWAP2 SWAP1 PUSH2 0xDBE JUMP JUMPDEST PUSH2 0x4D2 JUMP JUMPDEST STOP JUMPDEST CALLVALUE DUP1 ISZERO PUSH2 0x19F JUMPI PUSH0 DUP1 REVERT JUMPDEST POP PUSH2 0x1BA PUSH1 0x4 DUP1 CALLDATASIZE SUB DUP2 ADD SWAP1 PUSH2 0x1B5 SWAP2 SWAP1 PUSH2 0xC9F JUMP JUMPDEST PUSH2 0x5EF JUMP JUMPDEST PUSH1 0x40 MLOAD PUSH2 0x1C7 SWAP2 SWAP1 PUSH2 0xD15 JUMP JUMPDEST PUSH1 0x40 MLOAD DUP1 SWAP2 SUB SWAP1 RETURN JUMPDEST CALLVALUE DUP1 ISZERO PUSH2 0x1DB JUMPI PUSH0 DUP1 REVERT JUMPDEST POP PUSH2 0x1F6 PUSH1 0x4 DUP1 CALLDATASIZE SUB DUP2 ADD SWAP1 PUSH2 0x1F1 SWAP2 SWAP1 PUSH2 0xC9F JUMP JUMPDEST PUSH2 0x604 JUMP JUMPDEST STOP JUMPDEST CALLVALUE DUP1 ISZERO PUSH2 0x203 JUMPI PUSH0 DUP1 REVERT JUMPDEST POP PUSH2 0x21E PUSH1 0x4 DUP1 CALLDATASIZE SUB DUP2 ADD SWAP1 PUSH2 0x219 SWAP2 SWAP1 PUSH2 0xDBE JUMP JUMPDEST PUSH2 0x6E3 JUMP JUMPDEST PUSH1 0x40 MLOAD PUSH2 0x22B SWAP2 SWAP1 PUSH2 0xDF8 JUMP JUMPDEST PUSH1 0x40 MLOAD DUP1 SWAP2 SUB SWAP1 RETURN JUMPDEST CALLVALUE DUP1 ISZERO PUSH2 0x23F JUMPI PUSH0 DUP1 REVERT JUMPDEST POP PUSH2 0x248 PUSH2 0x71E JUMP JUMPDEST PUSH1 0x40 MLOAD PUSH2 0x255 SWAP2 SWAP1 PUSH2 0xD15 JUMP JUMPDEST PUSH1 0x40 MLOAD DUP1 SWAP2 SUB SWAP1 RETURN JUMPDEST CALLVALUE DUP1 ISZERO PUSH2 0x269 JUMPI PUSH0 DUP1 REVERT JUMPDEST POP PUSH2 0x272 PUSH2 0x724 JUMP JUMPDEST PUSH1 0x40 MLOAD PUSH2 0x27F SWAP2 SWAP1 PUSH2 0xD15 JUMP JUMPDEST PUSH1 0x40 MLOAD DUP1 SWAP2 SUB SWAP1 RETURN JUMPDEST CALLVALUE DUP1 ISZERO PUSH2 0x293 JUMPI PUSH0 DUP1 REVERT JUMPDEST POP PUSH2 0x2AE PUSH1 0x4 DUP1 CALLDATASIZE SUB DUP2 ADD SWAP1 PUSH2 0x2A9 SWAP2 SWAP1 PUSH2 0xDBE JUMP JUMPDEST PUSH2 0x730 JUMP JUMPDEST STOP JUMPDEST PUSH2 0x2B8 PUSH2 0x7EB JUMP JUMPDEST STOP JUMPDEST CALLVALUE DUP1 ISZERO PUSH2 0x2C5 JUMPI PUSH0 DUP1 REVERT JUMPDEST POP PUSH2 0x2CE PUSH2 0x99C JUMP JUMPDEST PUSH1 0x40 MLOAD PUSH2 0x2DB SWAP2 SWAP1 PUSH2 0xD15 JUMP JUMPDEST PUSH1 0x40 MLOAD DUP1 SWAP2 SUB SWAP1 RETURN JUMPDEST CALLVALUE DUP1 ISZERO PUSH2 0x2EF JUMPI PUSH0 DUP1 REVERT JUMPDEST POP PUSH2 0x30A PUSH1 0x4 DUP1 CALLDATASIZE SUB DUP2 ADD SWAP1 PUSH2 0x305 SWAP2 SWAP1 PUSH2 0xC9F JUMP JUMPDEST PUSH2 0x9A2 JUMP JUMPDEST STOP JUMPDEST CALLVALUE DUP1 ISZERO PUSH2 0x317 JUMPI PUSH0 DUP1 REVERT JUMPDEST POP PUSH2 0x332 PUSH1 0x4 DUP1 CALLDATASIZE SUB DUP2 ADD SWAP1 PUSH2 0x32D SWAP2 SWAP1 PUSH2 0xE11 JUMP JUMPDEST PUSH2 0xA87 JUMP JUMPDEST STOP JUMPDEST CALLVALUE DUP1 ISZERO PUSH2 0x33F JUMPI PUSH0 DUP1 REVERT JUMPDEST POP PUSH2 0x348 PUSH2 0xBF1 JUMP JUMPDEST PUSH1 0x40 MLOAD PUSH2 0x355 SWAP2 SWAP1 PUSH2 0xDF8 JUMP JUMPDEST PUSH1 0x40 MLOAD DUP1 SWAP2 SUB SWAP1 RETURN JUMPDEST CALLVALUE DUP1 ISZERO PUSH2 0x369 JUMPI PUSH0 DUP1 REVERT JUMPDEST POP PUSH2 0x372 PUSH2 0xC16 JUMP JUMPDEST PUSH1 0x40 MLOAD PUSH2 0x37F SWAP2 SWAP1 PUSH2 0xD15 JUMP JUMPDEST PUSH1 0x40 MLOAD DUP1 SWAP2 SUB SWAP1 RETURN JUMPDEST PUSH0 PUSH1 0x20 MSTORE DUP1 PUSH0 MSTORE PUSH1 0x40 PUSH0 KECCAK256 PUSH0 SWAP2 POP SLOAD SWAP1 PUSH2 0x100 EXP SWAP1 DIV PUSH1 0xFF AND DUP2 JUMP JUMPDEST PUSH0 SELFBALANCE SWAP1 POP SWAP1 JUMP JUMPDEST PUSH0 DUP1 CALLER PUSH20 0xFFFFFFFFFFFFFFFFFFFFFFFFFFFFFFFFFFFFFFFF AND PUSH20 0xFFFFFFFFFFFFFFFFFFFFFFFFFFFFFFFFFFFFFFFF AND DUP2 MSTORE PUSH1 0x20 ADD SWAP1 DUP2 MSTORE PUSH1 0x20 ADD PUSH0 KECCAK256 PUSH0 SWAP1 SLOAD SWAP1 PUSH2 0x100 EXP SWAP1 DIV PUSH1 0xFF AND PUSH2 0x433 JUMPI PUSH1 0x40 MLOAD PUSH32 0x8C379A000000000000000000000000000000000000000000000000000000000 DUP2 MSTORE PUSH1 0x4 ADD PUSH2 0x42A SWAP1 PUSH2 0xEA9 JUMP JUMPDEST PUSH1 0x40 MLOAD DUP1 SWAP2 SUB SWAP1 REVERT JUMPDEST PUSH0 DUP1 DUP3 PUSH20 0xFFFFFFFFFFFFFFFFFFFFFFFFFFFFFFFFFFFFFFFF AND PUSH20 0xFFFFFFFFFFFFFFFFFFFFFFFFFFFFFFFFFFFFFFFF AND DUP2 MSTORE PUSH1 0x20 ADD SWAP1 DUP2 MSTORE PUSH1 0x20 ADD PUSH0 KECCAK256 PUSH0 SWAP1 SLOAD SWAP1 PUSH2 0x100 EXP SWAP1 DIV PUSH1 0xFF AND PUSH2 0x484 JUMPI PUSH0 DUP1 REVERT JUMPDEST DUP1 PUSH20 0xFFFFFFFFFFFFFFFFFFFFFFFFFFFFFFFFFFFFFFFF AND PUSH2 0x8FC PUSH2 0x4A6 PUSH2 0x3A4 JUMP JUMPDEST SWAP1 DUP2 ISZERO MUL SWAP1 PUSH1 0x40 MLOAD PUSH0 PUSH1 0x40 MLOAD DUP1 DUP4 SUB DUP2 DUP6 DUP9 DUP9 CALL SWAP4 POP POP POP POP ISZERO DUP1 ISZERO PUSH2 0x4CE JUMPI RETURNDATASIZE PUSH0 DUP1 RETURNDATACOPY RETURNDATASIZE PUSH0 REVERT JUMPDEST POP POP JUMP JUMPDEST PUSH0 PUSH1 0x6 PUSH0 CALLER PUSH20 0xFFFFFFFFFFFFFFFFFFFFFFFFFFFFFFFFFFFFFFFF AND PUSH20 0xFFFFFFFFFFFFFFFFFFFFFFFFFFFFFFFFFFFFFFFF AND DUP2 MSTORE PUSH1 0x20 ADD SWAP1 DUP2 MSTORE PUSH1 0x20 ADD PUSH0 KECCAK256 SLOAD SWAP1 POP DUP1 DUP3 GT ISZERO PUSH2 0x51F JUMPI PUSH0 DUP1 REVERT JUMPDEST PUSH0 DUP3 GT PUSH2 0x52A JUMPI PUSH0 DUP1 REVERT JUMPDEST DUP2 PUSH1 0x6 PUSH0 CALLER PUSH20 0xFFFFFFFFFFFFFFFFFFFFFFFFFFFFFFFFFFFFFFFF AND PUSH20 0xFFFFFFFFFFFFFFFFFFFFFFFFFFFFFFFFFFFFFFFF AND DUP2 MSTORE PUSH1 0x20 ADD SWAP1 DUP2 MSTORE PUSH1 0x20 ADD PUSH0 KECCAK256 PUSH0 DUP3 DUP3 SLOAD PUSH2 0x576 SWAP2 SWAP1 PUSH2 0xEF4 JUMP JUMPDEST SWAP3 POP POP DUP2 SWAP1 SSTORE POP DUP2 PUSH1 0x5 PUSH0 DUP3 DUP3 SLOAD PUSH2 0x58E SWAP2 SWAP1 PUSH2 0xF27 JUMP JUMPDEST SWAP3 POP POP DUP2 SWAP1 SSTORE POP CALLER PUSH20 0xFFFFFFFFFFFFFFFFFFFFFFFFFFFFFFFFFFFFFFFF AND PUSH2 0x8FC PUSH2 0x5B7 PUSH2 0x724 JUMP JUMPDEST DUP5 PUSH2 0x5C2 SWAP2 SWAP1 PUSH2 0xF5A JUMP JUMPDEST SWAP1 DUP2 ISZERO MUL SWAP1 PUSH1 0x40 MLOAD PUSH0 PUSH1 0x40 MLOAD DUP1 DUP4 SUB DUP2 DUP6 DUP9 DUP9 CALL SWAP4 POP POP POP POP ISZERO DUP1 ISZERO PUSH2 0x5EA JUMPI RETURNDATASIZE PUSH0 DUP1 RETURNDATACOPY RETURNDATASIZE PUSH0 REVERT JUMPDEST POP POP POP JUMP JUMPDEST PUSH1 0x6 PUSH1 0x20 MSTORE DUP1 PUSH0 MSTORE PUSH1 0x40 PUSH0 KECCAK256 PUSH0 SWAP2 POP SWAP1 POP SLOAD DUP2 JUMP JUMPDEST PUSH0 DUP1 CALLER PUSH20 0xFFFFFFFFFFFFFFFFFFFFFFFFFFFFFFFFFFFFFFFF AND PUSH20 0xFFFFFFFFFFFFFFFFFFFFFFFFFFFFFFFFFFFFFFFF AND DUP2 MSTORE PUSH1 0x20 ADD SWAP1 DUP2 MSTORE PUSH1 0x20 ADD PUSH0 KECCAK256 PUSH0 SWAP1 SLOAD SWAP1 PUSH2 0x100 EXP SWAP1 DIV PUSH1 0xFF AND PUSH2 0x68C JUMPI PUSH1 0x40 MLOAD PUSH32 0x8C379A000000000000000000000000000000000000000000000000000000000 DUP2 MSTORE PUSH1 0x4 ADD PUSH2 0x683 SWAP1 PUSH2 0xEA9 JUMP JUMPDEST PUSH1 0x40 MLOAD DUP1 SWAP2 SUB SWAP1 REVERT JUMPDEST PUSH1 0x1 PUSH0 DUP1 DUP4 PUSH20 0xFFFFFFFFFFFFFFFFFFFFFFFFFFFFFFFFFFFFFFFF AND PUSH20 0xFFFFFFFFFFFFFFFFFFFFFFFFFFFFFFFFFFFFFFFF AND DUP2 MSTORE PUSH1 0x20 ADD SWAP1 DUP2 MSTORE PUSH1 0x20 ADD PUSH0 KECCAK256 PUSH0 PUSH2 0x100 EXP DUP2 SLOAD DUP2 PUSH1 0xFF MUL NOT AND SWAP1 DUP4 ISZERO ISZERO MUL OR SWAP1 SSTORE POP POP JUMP JUMPDEST PUSH1 0x2 DUP2 DUP2 SLOAD DUP2 LT PUSH2 0x6F2 JUMPI PUSH0 DUP1 REVERT JUMPDEST SWAP1 PUSH0 MSTORE PUSH1 0x20 PUSH0 KECCAK256 ADD PUSH0 SWAP2 POP SLOAD SWAP1 PUSH2 0x100 EXP SWAP1 DIV PUSH20 0xFFFFFFFFFFFFFFFFFFFFFFFFFFFFFFFFFFFFFFFF AND DUP2 JUMP JUMPDEST PUSH1 0x5 SLOAD DUP2 JUMP JUMPDEST PUSH0 PUSH5 0xE8D4A51000 SWAP1 POP SWAP1 JUMP JUMPDEST PUSH0 DUP1 CALLER PUSH20 0xFFFFFFFFFFFFFFFFFFFFFFFFFFFFFFFFFFFFFFFF AND PUSH20 0xFFFFFFFFFFFFFFFFFFFFFFFFFFFFFFFFFFFFFFFF AND DUP2 MSTORE PUSH1 0x20 ADD SWAP1 DUP2 MSTORE PUSH1 0x20 ADD PUSH0 KECCAK256 PUSH0 SWAP1 SLOAD SWAP1 PUSH2 0x100 EXP SWAP1 DIV PUSH1 0xFF AND PUSH2 0x7B8 JUMPI PUSH1 0x40 MLOAD PUSH32 0x8C379A000000000000000000000000000000000000000000000000000000000 DUP2 MSTORE PUSH1 0x4 ADD PUSH2 0x7AF SWAP1 PUSH2 0xEA9 JUMP JUMPDEST PUSH1 0x40 MLOAD DUP1 SWAP2 SUB SWAP1 REVERT JUMPDEST DUP1 PUSH1 0x4 PUSH0 DUP3 DUP3 SLOAD PUSH2 0x7C9 SWAP2 SWAP1 PUSH2 0xF27 JUMP JUMPDEST SWAP3 POP POP DUP2 SWAP1 SSTORE POP DUP1 PUSH1 0x5 PUSH0 DUP3 DUP3 SLOAD PUSH2 0x7E1 SWAP2 SWAP1 PUSH2 0xF27 JUMP JUMPDEST SWAP3 POP POP DUP2 SWAP1 SSTORE POP POP JUMP JUMPDEST PUSH0 PUSH2 0x7F4 PUSH2 0x724 JUMP JUMPDEST SWAP1 POP PUSH0 PUSH2 0x801 CALLVALUE DUP4 PUSH2 0xC1C JUMP JUMPDEST SWAP1 POP PUSH0 DUP2 GT PUSH2 0x80E JUMPI PUSH0 DUP1 REVERT JUMPDEST PUSH1 0x5 SLOAD DUP2 LT PUSH2 0x852 JUMPI PUSH1 0x5 SLOAD SWAP1 POP PUSH32 0xDED73D9B7994988FC49241F75C8F6577AD0070900FF55FFE76E498CF7E03BEF4 PUSH1 0x40 MLOAD PUSH2 0x849 SWAP1 PUSH2 0xFE5 JUMP JUMPDEST PUSH1 0x40 MLOAD DUP1 SWAP2 SUB SWAP1 LOG1 JUMPDEST PUSH0 DUP2 DUP4 PUSH2 0x85F SWAP2 SWAP1 PUSH2 0xF5A JUMP JUMPDEST SWAP1 POP PUSH0 DUP2 CALLVALUE PUSH2 0x86E SWAP2 SWAP1 PUSH2 0xEF4 JUMP JUMPDEST SWAP1 POP CALLER PUSH20 0xFFFFFFFFFFFFFFFFFFFFFFFFFFFFFFFFFFFFFFFF AND PUSH2 0x8FC DUP3 SWAP1 DUP2 ISZERO MUL SWAP1 PUSH1 0x40 MLOAD PUSH0 PUSH1 0x40 MLOAD DUP1 DUP4 SUB DUP2 DUP6 DUP9 DUP9 CALL SWAP4 POP POP POP POP ISZERO DUP1 ISZERO PUSH2 0x8B3 JUMPI RETURNDATASIZE PUSH0 DUP1 RETURNDATACOPY RETURNDATASIZE PUSH0 REVERT JUMPDEST POP DUP3 PUSH1 0x6 PUSH0 CALLER PUSH20 0xFFFFFFFFFFFFFFFFFFFFFFFFFFFFFFFFFFFFFFFF AND PUSH20 0xFFFFFFFFFFFFFFFFFFFFFFFFFFFFFFFFFFFFFFFF AND DUP2 MSTORE PUSH1 0x20 ADD SWAP1 DUP2 MSTORE PUSH1 0x20 ADD PUSH0 KECCAK256 PUSH0 DUP3 DUP3 SLOAD PUSH2 0x900 SWAP2 SWAP1 PUSH2 0xF27 JUMP JUMPDEST SWAP3 POP POP DUP2 SWAP1 SSTORE POP DUP3 PUSH1 0x5 PUSH0 DUP3 DUP3 SLOAD PUSH2 0x918 SWAP2 SWAP1 PUSH2 0xEF4 JUMP JUMPDEST SWAP3 POP POP DUP2 SWAP1 SSTORE POP PUSH1 0x3 PUSH0 DUP2 SLOAD DUP1 SWAP3 SWAP2 SWAP1 PUSH2 0x931 SWAP1 PUSH2 0x1003 JUMP JUMPDEST SWAP2 SWAP1 POP SSTORE POP PUSH1 0x2 CALLER SWAP1 DUP1 PUSH1 0x1 DUP2 SLOAD ADD DUP1 DUP3 SSTORE DUP1 SWAP2 POP POP PUSH1 0x1 SWAP1 SUB SWAP1 PUSH0 MSTORE PUSH1 0x20 PUSH0 KECCAK256 ADD PUSH0 SWAP1 SWAP2 SWAP1 SWAP2 SWAP1 SWAP2 PUSH2 0x100 EXP DUP2 SLOAD DUP2 PUSH20 0xFFFFFFFFFFFFFFFFFFFFFFFFFFFFFFFFFFFFFFFF MUL NOT AND SWAP1 DUP4 PUSH20 0xFFFFFFFFFFFFFFFFFFFFFFFFFFFFFFFFFFFFFFFF AND MUL OR SWAP1 SSTORE POP POP POP POP POP JUMP JUMPDEST PUSH1 0x4 SLOAD DUP2 JUMP JUMPDEST CALLER PUSH20 0xFFFFFFFFFFFFFFFFFFFFFFFFFFFFFFFFFFFFFFFF AND PUSH1 0x1 PUSH0 SWAP1 SLOAD SWAP1 PUSH2 0x100 EXP SWAP1 DIV PUSH20 0xFFFFFFFFFFFFFFFFFFFFFFFFFFFFFFFFFFFFFFFF AND PUSH20 0xFFFFFFFFFFFFFFFFFFFFFFFFFFFFFFFFFFFFFFFF AND EQ PUSH2 0xA31 JUMPI PUSH1 0x40 MLOAD PUSH32 0x8C379A000000000000000000000000000000000000000000000000000000000 DUP2 MSTORE PUSH1 0x4 ADD PUSH2 0xA28 SWAP1 PUSH2 0x1094 JUMP JUMPDEST PUSH1 0x40 MLOAD DUP1 SWAP2 SUB SWAP1 REVERT JUMPDEST PUSH0 DUP1 PUSH0 DUP4 PUSH20 0xFFFFFFFFFFFFFFFFFFFFFFFFFFFFFFFFFFFFFFFF AND PUSH20 0xFFFFFFFFFFFFFFFFFFFFFFFFFFFFFFFFFFFFFFFF AND DUP2 MSTORE PUSH1 0x20 ADD SWAP1 DUP2 MSTORE PUSH1 0x20 ADD PUSH0 KECCAK256 PUSH0 PUSH2 0x100 EXP DUP2 SLOAD DUP2 PUSH1 0xFF MUL NOT AND SWAP1 DUP4 ISZERO ISZERO MUL OR SWAP1 SSTORE POP POP JUMP JUMPDEST PUSH1 0x6 PUSH0 CALLER PUSH20 0xFFFFFFFFFFFFFFFFFFFFFFFFFFFFFFFFFFFFFFFF AND PUSH20 0xFFFFFFFFFFFFFFFFFFFFFFFFFFFFFFFFFFFFFFFF AND DUP2 MSTORE PUSH1 0x20 ADD SWAP1 DUP2 MSTORE PUSH1 0x20 ADD PUSH0 KECCAK256 SLOAD DUP2 GT ISZERO PUSH2 0xAD0 JUMPI PUSH0 DUP1 REVERT JUMPDEST DUP1 PUSH1 0x6 PUSH0 CALLER PUSH20 0xFFFFFFFFFFFFFFFFFFFFFFFFFFFFFFFFFFFFFFFF AND PUSH20 0xFFFFFFFFFFFFFFFFFFFFFFFFFFFFFFFFFFFFFFFF AND DUP2 MSTORE PUSH1 0x20 ADD SWAP1 DUP2 MSTORE PUSH1 0x20 ADD PUSH0 KECCAK256 PUSH0 DUP3 DUP3 SLOAD PUSH2 0xB1C SWAP2 SWAP1 PUSH2 0xEF4 JUMP JUMPDEST SWAP3 POP POP DUP2 SWAP1 SSTORE POP DUP1 PUSH1 0x6 PUSH0 DUP5 PUSH20 0xFFFFFFFFFFFFFFFFFFFFFFFFFFFFFFFFFFFFFFFF AND PUSH20 0xFFFFFFFFFFFFFFFFFFFFFFFFFFFFFFFFFFFFFFFF AND DUP2 MSTORE PUSH1 0x20 ADD SWAP1 DUP2 MSTORE PUSH1 0x20 ADD PUSH0 KECCAK256 PUSH0 DUP3 DUP3 SLOAD PUSH2 0xB6F SWAP2 SWAP1 PUSH2 0xF27 JUMP JUMPDEST SWAP3 POP POP DUP2 SWAP1 SSTORE POP PUSH1 0x3 PUSH0 DUP2 SLOAD DUP1 SWAP3 SWAP2 SWAP1 PUSH2 0xB88 SWAP1 PUSH2 0x1003 JUMP JUMPDEST SWAP2 SWAP1 POP SSTORE POP PUSH1 0x2 DUP3 SWAP1 DUP1 PUSH1 0x1 DUP2 SLOAD ADD DUP1 DUP3 SSTORE DUP1 SWAP2 POP POP PUSH1 0x1 SWAP1 SUB SWAP1 PUSH0 MSTORE PUSH1 0x20 PUSH0 KECCAK256 ADD PUSH0 SWAP1 SWAP2 SWAP1 SWAP2 SWAP1 SWAP2 PUSH2 0x100 EXP DUP2 SLOAD DUP2 PUSH20 0xFFFFFFFFFFFFFFFFFFFFFFFFFFFFFFFFFFFFFFFF MUL NOT AND SWAP1 DUP4 PUSH20 0xFFFFFFFFFFFFFFFFFFFFFFFFFFFFFFFFFFFFFFFF AND MUL OR SWAP1 SSTORE POP POP POP JUMP JUMPDEST PUSH1 0x1 PUSH0 SWAP1 SLOAD SWAP1 PUSH2 0x100 EXP SWAP1 DIV PUSH20 0xFFFFFFFFFFFFFFFFFFFFFFFFFFFFFFFFFFFFFFFF AND DUP2 JUMP JUMPDEST PUSH1 0x3 SLOAD DUP2 JUMP JUMPDEST PUSH0 DUP1 DUP3 GT PUSH2 0xC28 JUMPI PUSH0 DUP1 REVERT JUMPDEST PUSH0 DUP3 DUP5 PUSH2 0xC35 SWAP2 SWAP1 PUSH2 0x10DF JUMP JUMPDEST SWAP1 POP DUP1 SWAP2 POP POP SWAP3 SWAP2 POP POP JUMP JUMPDEST PUSH0 DUP1 REVERT JUMPDEST PUSH0 PUSH20 0xFFFFFFFFFFFFFFFFFFFFFFFFFFFFFFFFFFFFFFFF DUP3 AND SWAP1 POP SWAP2 SWAP1 POP JUMP JUMPDEST PUSH0 PUSH2 0xC6E DUP3 PUSH2 0xC45 JUMP JUMPDEST SWAP1 POP SWAP2 SWAP1 POP JUMP JUMPDEST PUSH2 0xC7E DUP2 PUSH2 0xC64 JUMP JUMPDEST DUP2 EQ PUSH2 0xC88 JUMPI PUSH0 DUP1 REVERT JUMPDEST POP JUMP JUMPDEST PUSH0 DUP2 CALLDATALOAD SWAP1 POP PUSH2 0xC99 DUP2 PUSH2 0xC75 JUMP JUMPDEST SWAP3 SWAP2 POP POP JUMP JUMPDEST PUSH0 PUSH1 0x20 DUP3 DUP5 SUB SLT ISZERO PUSH2 0xCB4 JUMPI PUSH2 0xCB3 PUSH2 0xC41 JUMP JUMPDEST JUMPDEST PUSH0 PUSH2 0xCC1 DUP5 DUP3 DUP6 ADD PUSH2 0xC8B JUMP JUMPDEST SWAP2 POP POP SWAP3 SWAP2 POP POP JUMP JUMPDEST PUSH0 DUP2 ISZERO ISZERO SWAP1 POP SWAP2 SWAP1 POP JUMP JUMPDEST PUSH2 0xCDE DUP2 PUSH2 0xCCA JUMP JUMPDEST DUP3 MSTORE POP POP JUMP JUMPDEST PUSH0 PUSH1 0x20 DUP3 ADD SWAP1 POP PUSH2 0xCF7 PUSH0 DUP4 ADD DUP5 PUSH2 0xCD5 JUMP JUMPDEST SWAP3 SWAP2 POP POP JUMP JUMPDEST PUSH0 DUP2 SWAP1 POP SWAP2 SWAP1 POP JUMP JUMPDEST PUSH2 0xD0F DUP2 PUSH2 0xCFD JUMP JUMPDEST DUP3 MSTORE POP POP JUMP JUMPDEST PUSH0 PUSH1 0x20 DUP3 ADD SWAP1 POP PUSH2 0xD28 PUSH0 DUP4 ADD DUP5 PUSH2 0xD06 JUMP JUMPDEST SWAP3 SWAP2 POP POP JUMP JUMPDEST PUSH0 PUSH2 0xD38 DUP3 PUSH2 0xC45 JUMP JUMPDEST SWAP1 POP SWAP2 SWAP1 POP JUMP JUMPDEST PUSH2 0xD48 DUP2 PUSH2 0xD2E JUMP JUMPDEST DUP2 EQ PUSH2 0xD52 JUMPI PUSH0 DUP1 REVERT JUMPDEST POP JUMP JUMPDEST PUSH0 DUP2 CALLDATALOAD SWAP1 POP PUSH2 0xD63 DUP2 PUSH2 0xD3F JUMP JUMPDEST SWAP3 SWAP2 POP POP JUMP JUMPDEST PUSH0 PUSH1 0x20 DUP3 DUP5 SUB SLT ISZERO PUSH2 0xD7E JUMPI PUSH2 0xD7D PUSH2 0xC41 JUMP JUMPDEST JUMPDEST PUSH0 PUSH2 0xD8B DUP5 DUP3 DUP6 ADD PUSH2 0xD55 JUMP JUMPDEST SWAP2 POP POP SWAP3 SWAP2 POP POP JUMP JUMPDEST PUSH2 0xD9D DUP2 PUSH2 0xCFD JUMP JUMPDEST DUP2 EQ PUSH2 0xDA7 JUMPI PUSH0 DUP1 REVERT JUMPDEST POP JUMP JUMPDEST PUSH0 DUP2 CALLDATALOAD SWAP1 POP PUSH2 0xDB8 DUP2 PUSH2 0xD94 JUMP JUMPDEST SWAP3 SWAP2 POP POP JUMP JUMPDEST PUSH0 PUSH1 0x20 DUP3 DUP5 SUB SLT ISZERO PUSH2 0xDD3 JUMPI PUSH2 0xDD2 PUSH2 0xC41 JUMP JUMPDEST JUMPDEST PUSH0 PUSH2 0xDE0 DUP5 DUP3 DUP6 ADD PUSH2 0xDAA JUMP JUMPDEST SWAP2 POP POP SWAP3 SWAP2 POP POP JUMP JUMPDEST PUSH2 0xDF2 DUP2 PUSH2 0xC64 JUMP JUMPDEST DUP3 MSTORE POP POP JUMP JUMPDEST PUSH0 PUSH1 0x20 DUP3 ADD SWAP1 POP PUSH2 0xE0B PUSH0 DUP4 ADD DUP5 PUSH2 0xDE9 JUMP JUMPDEST SWAP3 SWAP2 POP POP JUMP JUMPDEST PUSH0 DUP1 PUSH1 0x40 DUP4 DUP6 SUB SLT ISZERO PUSH2 0xE27 JUMPI PUSH2 0xE26 PUSH2 0xC41 JUMP JUMPDEST JUMPDEST PUSH0 PUSH2 0xE34 DUP6 DUP3 DUP7 ADD PUSH2 0xC8B JUMP JUMPDEST SWAP3 POP POP PUSH1 0x20 PUSH2 0xE45 DUP6 DUP3 DUP7 ADD PUSH2 0xDAA JUMP JUMPDEST SWAP2 POP POP SWAP3 POP SWAP3 SWAP1 POP JUMP JUMPDEST PUSH0 DUP3 DUP3 MSTORE PUSH1 0x20 DUP3 ADD SWAP1 POP SWAP3 SWAP2 POP POP JUMP JUMPDEST PUSH32 0x6F776E6572206F6E6C7900000000000000000000000000000000000000000000 PUSH0 DUP3 ADD MSTORE POP JUMP JUMPDEST PUSH0 PUSH2 0xE93 PUSH1 0xA DUP4 PUSH2 0xE4F JUMP JUMPDEST SWAP2 POP PUSH2 0xE9E DUP3 PUSH2 0xE5F JUMP JUMPDEST PUSH1 0x20 DUP3 ADD SWAP1 POP SWAP2 SWAP1 POP JUMP JUMPDEST PUSH0 PUSH1 0x20 DUP3 ADD SWAP1 POP DUP2 DUP2 SUB PUSH0 DUP4 ADD MSTORE PUSH2 0xEC0 DUP2 PUSH2 0xE87 JUMP JUMPDEST SWAP1 POP SWAP2 SWAP1 POP JUMP JUMPDEST PUSH32 0x4E487B7100000000000000000000000000000000000000000000000000000000 PUSH0 MSTORE PUSH1 0x11 PUSH1 0x4 MSTORE PUSH1 0x24 PUSH0 REVERT JUMPDEST PUSH0 PUSH2 0xEFE DUP3 PUSH2 0xCFD JUMP JUMPDEST SWAP2 POP PUSH2 0xF09 DUP4 PUSH2 0xCFD JUMP JUMPDEST SWAP3 POP DUP3 DUP3 SUB SWAP1 POP DUP2 DUP2 GT ISZERO PUSH2 0xF21 JUMPI PUSH2 0xF20 PUSH2 0xEC7 JUMP JUMPDEST JUMPDEST SWAP3 SWAP2 POP POP JUMP JUMPDEST PUSH0 PUSH2 0xF31 DUP3 PUSH2 0xCFD JUMP JUMPDEST SWAP2 POP PUSH2 0xF3C DUP4 PUSH2 0xCFD JUMP JUMPDEST SWAP3 POP DUP3 DUP3 ADD SWAP1 POP DUP1 DUP3 GT ISZERO PUSH2 0xF54 JUMPI PUSH2 0xF53 PUSH2 0xEC7 JUMP JUMPDEST JUMPDEST SWAP3 SWAP2 POP POP JUMP JUMPDEST PUSH0 PUSH2 0xF64 DUP3 PUSH2 0xCFD JUMP JUMPDEST SWAP2 POP PUSH2 0xF6F DUP4 PUSH2 0xCFD JUMP JUMPDEST SWAP3 POP DUP3 DUP3 MUL PUSH2 0xF7D DUP2 PUSH2 0xCFD JUMP JUMPDEST SWAP2 POP DUP3 DUP3 DIV DUP5 EQ DUP4 ISZERO OR PUSH2 0xF94 JUMPI PUSH2 0xF93 PUSH2 0xEC7 JUMP JUMPDEST JUMPDEST POP SWAP3 SWAP2 POP POP JUMP JUMPDEST PUSH32 0x596F7520626F756768742065766572797468696E672100000000000000000000 PUSH0 DUP3 ADD MSTORE POP JUMP JUMPDEST PUSH0 PUSH2 0xFCF PUSH1 0x16 DUP4 PUSH2 0xE4F JUMP JUMPDEST SWAP2 POP PUSH2 0xFDA DUP3 PUSH2 0xF9B JUMP JUMPDEST PUSH1 0x20 DUP3 ADD SWAP1 POP SWAP2 SWAP1 POP JUMP JUMPDEST PUSH0 PUSH1 0x20 DUP3 ADD SWAP1 POP DUP2 DUP2 SUB PUSH0 DUP4 ADD MSTORE PUSH2 0xFFC DUP2 PUSH2 0xFC3 JUMP JUMPDEST SWAP1 POP SWAP2 SWAP1 POP JUMP JUMPDEST PUSH0 PUSH2 0x100D DUP3 PUSH2 0xCFD JUMP JUMPDEST SWAP2 POP PUSH32 0xFFFFFFFFFFFFFFFFFFFFFFFFFFFFFFFFFFFFFFFFFFFFFFFFFFFFFFFFFFFFFFFF DUP3 SUB PUSH2 0x103F JUMPI PUSH2 0x103E PUSH2 0xEC7 JUMP JUMPDEST JUMPDEST PUSH1 0x1 DUP3 ADD SWAP1 POP SWAP2 SWAP1 POP JUMP JUMPDEST PUSH32 0x6F67206F776E6572206F6E6C7900000000000000000000000000000000000000 PUSH0 DUP3 ADD MSTORE POP JUMP JUMPDEST PUSH0 PUSH2 0x107E PUSH1 0xD DUP4 PUSH2 0xE4F JUMP JUMPDEST SWAP2 POP PUSH2 0x1089 DUP3 PUSH2 0x104A JUMP JUMPDEST PUSH1 0x20 DUP3 ADD SWAP1 POP SWAP2 SWAP1 POP JUMP JUMPDEST PUSH0 PUSH1 0x20 DUP3 ADD SWAP1 POP DUP2 DUP2 SUB PUSH0 DUP4 ADD MSTORE PUSH2 0x10AB DUP2 PUSH2 0x1072 JUMP JUMPDEST SWAP1 POP SWAP2 SWAP1 POP JUMP JUMPDEST PUSH32 0x4E487B7100000000000000000000000000000000000000000000000000000000 PUSH0 MSTORE PUSH1 0x12 PUSH1 0x4 MSTORE PUSH1 0x24 PUSH0 REVERT JUMPDEST PUSH0 PUSH2 0x10E9 DUP3 PUSH2 0xCFD JUMP JUMPDEST SWAP2 POP PUSH2 0x10F4 DUP4 PUSH2 0xCFD JUMP JUMPDEST SWAP3 POP DUP3 PUSH2 0x1104 JUMPI PUSH2 0x1103 PUSH2 0x10B2 JUMP JUMPDEST JUMPDEST DUP3 DUP3 DIV SWAP1 POP SWAP3 SWAP2 POP POP JUMP INVALID LOG2 PUSH5 0x6970667358 0x22 SLT KECCAK256 EQ DUP8 DUP4 0xAE DUP8 SWAP2 SELFBALANCE PUSH11 0xB03207029DF973378ABECF 0xA7 0x29 SWAP12 SWAP4 0xEB 0x4B 0xE9 0x4F 0xE0 SWAP10 CALL SELFBALANCE 0xAA PUSH5 0x736F6C6343 STOP ADDMOD BYTE STOP CALLER "
				},
				"gasEstimates": {
					"creation": {
						"codeDepositCost": "884200",
						"executionCost": "95866",
						"totalCost": "980066"
					},
					"external": {
						"addOwner(address)": "27087",
						"balances(address)": "2825",
						"buyToken()": "infinite",
						"compute_token_value()": "355",
						"deleteOwner(address)": "26993",
						"getBalance()": "380",
						"hodlerCount()": "2513",
						"hodlers(uint256)": "5011",
						"mint(uint256)": "infinite",
						"originalOwner()": "2574",
						"ownerPayout(address)": "infinite",
						"owners(address)": "2856",
						"sellToken(uint256)": "infinite",
						"send(address,uint256)": "infinite",
						"tokens_remaining()": "2514",
						"total_tokens()": "2514"
					}
				},
				"methodIdentifiers": {
					"addOwner(address)": "7065cb48",
					"balances(address)": "27e235e3",
					"buyToken()": "a4821719",
					"compute_token_value()": "8c8a9606",
					"deleteOwner(address)": "cd5c4c70",
					"getBalance()": "12065fe0",
					"hodlerCount()": "fd1b6f2b",
					"hodlers(uint256)": "7a3b1e86",
					"mint(uint256)": "a0712d68",
					"originalOwner()": "f1fffdcb",
					"ownerPayout(address)": "1828db82",
					"owners(address)": "022914a7",
					"sellToken(uint256)": "2397e4d7",
					"send(address,uint256)": "d0679d34",
					"tokens_remaining()": "865cf928",
					"total_tokens()": "c6490835"
				}
			},
			"storageLayout": {
				"storage": [
					{
						"astId": 6,
						"contract": "contracts/3b_many_owners.sol:ERC20",
						"label": "owners",
						"offset": 0,
						"slot": "0",
						"type": "t_mapping(t_address,t_bool)"
					},
					{
						"astId": 8,
						"contract": "contracts/3b_many_owners.sol:ERC20",
						"label": "originalOwner",
						"offset": 0,
						"slot": "1",
						"type": "t_address"
					},
					{
						"astId": 11,
						"contract": "contracts/3b_many_owners.sol:ERC20",
						"label": "hodlers",
						"offset": 0,
						"slot": "2",
						"type": "t_array(t_address)dyn_storage"
					},
					{
						"astId": 13,
						"contract": "contracts/3b_many_owners.sol:ERC20",
						"label": "hodlerCount",
						"offset": 0,
						"slot": "3",
						"type": "t_uint256"
					},
					{
						"astId": 15,
						"contract": "contracts/3b_many_owners.sol:ERC20",
						"label": "total_tokens",
						"offset": 0,
						"slot": "4",
						"type": "t_uint256"
					},
					{
						"astId": 17,
						"contract": "contracts/3b_many_owners.sol:ERC20",
						"label": "tokens_remaining",
						"offset": 0,
						"slot": "5",
						"type": "t_uint256"
					},
					{
						"astId": 21,
						"contract": "contracts/3b_many_owners.sol:ERC20",
						"label": "balances",
						"offset": 0,
						"slot": "6",
						"type": "t_mapping(t_address,t_uint256)"
					}
				],
				"types": {
					"t_address": {
						"encoding": "inplace",
						"label": "address",
						"numberOfBytes": "20"
					},
					"t_array(t_address)dyn_storage": {
						"base": "t_address",
						"encoding": "dynamic_array",
						"label": "address[]",
						"numberOfBytes": "32"
					},
					"t_bool": {
						"encoding": "inplace",
						"label": "bool",
						"numberOfBytes": "1"
					},
					"t_mapping(t_address,t_bool)": {
						"encoding": "mapping",
						"key": "t_address",
						"label": "mapping(address => bool)",
						"numberOfBytes": "32",
						"value": "t_bool"
					},
					"t_mapping(t_address,t_uint256)": {
						"encoding": "mapping",
						"key": "t_address",
						"label": "mapping(address => uint256)",
						"numberOfBytes": "32",
						"value": "t_uint256"
					},
					"t_uint256": {
						"encoding": "inplace",
						"label": "uint256",
						"numberOfBytes": "32"
					}
				}
			},
			"userdoc": {
				"kind": "user",
				"methods": {},
				"version": 1
			}
		}
	}
}