{
	"contracts/3b_many_owners.sol": {
		"UChicagoFinMath": {
			"abi": [
				{
					"inputs": [
						{
							"internalType": "address payable",
							"name": "wallet",
							"type": "address"
						}
					],
					"stateMutability": "nonpayable",
					"type": "constructor"
				},
				{
					"anonymous": false,
					"inputs": [
						{
							"indexed": false,
							"internalType": "string",
							"name": "comment",
							"type": "string"
						}
					],
					"name": "MessageLog",
					"type": "event"
				},
				{
					"inputs": [
						{
							"internalType": "address",
							"name": "target",
							"type": "address"
						}
					],
					"name": "addOwner",
					"outputs": [],
					"stateMutability": "nonpayable",
					"type": "function"
				},
				{
					"inputs": [
						{
							"internalType": "address",
							"name": "",
							"type": "address"
						}
					],
					"name": "balances",
					"outputs": [
						{
							"internalType": "uint256",
							"name": "",
							"type": "uint256"
						}
					],
					"stateMutability": "view",
					"type": "function"
				},
				{
					"inputs": [],
					"name": "buyToken",
					"outputs": [],
					"stateMutability": "payable",
					"type": "function"
				},
				{
					"inputs": [],
					"name": "compute_token_value",
					"outputs": [
						{
							"internalType": "uint256",
							"name": "",
							"type": "uint256"
						}
					],
					"stateMutability": "pure",
					"type": "function"
				},
				{
					"inputs": [
						{
							"internalType": "address",
							"name": "target",
							"type": "address"
						}
					],
					"name": "deleteOwner",
					"outputs": [],
					"stateMutability": "nonpayable",
					"type": "function"
				},
				{
					"inputs": [],
					"name": "getBalance",
					"outputs": [
						{
							"internalType": "uint256",
							"name": "",
							"type": "uint256"
						}
					],
					"stateMutability": "view",
					"type": "function"
				},
				{
					"inputs": [],
					"name": "hodlerCount",
					"outputs": [
						{
							"internalType": "uint256",
							"name": "",
							"type": "uint256"
						}
					],
					"stateMutability": "view",
					"type": "function"
				},
				{
					"inputs": [
						{
							"internalType": "uint256",
							"name": "",
							"type": "uint256"
						}
					],
					"name": "hodlers",
					"outputs": [
						{
							"internalType": "address",
							"name": "",
							"type": "address"
						}
					],
					"stateMutability": "view",
					"type": "function"
				},
				{
					"inputs": [
						{
							"internalType": "uint256",
							"name": "amount",
							"type": "uint256"
						}
					],
					"name": "mint",
					"outputs": [],
					"stateMutability": "nonpayable",
					"type": "function"
				},
				{
					"inputs": [],
					"name": "originalOwner",
					"outputs": [
						{
							"internalType": "address",
							"name": "",
							"type": "address"
						}
					],
					"stateMutability": "view",
					"type": "function"
				},
				{
					"inputs": [
						{
							"internalType": "address payable",
							"name": "owner",
							"type": "address"
						}
					],
					"name": "ownerPayout",
					"outputs": [],
					"stateMutability": "payable",
					"type": "function"
				},
				{
					"inputs": [
						{
							"internalType": "address",
							"name": "",
							"type": "address"
						}
					],
					"name": "owners",
					"outputs": [
						{
							"internalType": "bool",
							"name": "",
							"type": "bool"
						}
					],
					"stateMutability": "view",
					"type": "function"
				},
				{
					"inputs": [
						{
							"internalType": "uint256",
							"name": "num_tokens",
							"type": "uint256"
						}
					],
					"name": "sellToken",
					"outputs": [],
					"stateMutability": "payable",
					"type": "function"
				},
				{
					"inputs": [
						{
							"internalType": "address",
							"name": "wallet",
							"type": "address"
						},
						{
							"internalType": "uint256",
							"name": "amount",
							"type": "uint256"
						}
					],
					"name": "send",
					"outputs": [],
					"stateMutability": "nonpayable",
					"type": "function"
				},
				{
					"inputs": [],
					"name": "symbol",
					"outputs": [
						{
							"internalType": "string",
							"name": "",
							"type": "string"
						}
					],
					"stateMutability": "view",
					"type": "function"
				},
				{
					"inputs": [],
					"name": "tokens_remaining",
					"outputs": [
						{
							"internalType": "uint256",
							"name": "",
							"type": "uint256"
						}
					],
					"stateMutability": "view",
					"type": "function"
				},
				{
					"inputs": [],
					"name": "total_tokens",
					"outputs": [
						{
							"internalType": "uint256",
							"name": "",
							"type": "uint256"
						}
					],
					"stateMutability": "view",
					"type": "function"
				},
				{
					"inputs": [],
					"name": "version",
					"outputs": [
						{
							"internalType": "uint256",
							"name": "",
							"type": "uint256"
						}
					],
					"stateMutability": "view",
					"type": "function"
				}
			],
			"devdoc": {
				"kind": "dev",
				"methods": {},
				"version": 1
			},
			"evm": {
				"assembly": "    /* \"contracts/3b_many_owners.sol\":3997:4342  contract UChicagoFinMath is ERC20 {... */\n  mstore(0x40, 0x80)\n    /* \"contracts/3b_many_owners.sol\":4122:4339  constructor(address payable wallet) ... */\n  callvalue\n  dup1\n  iszero\n  tag_1\n  jumpi\n  0x00\n  dup1\n  revert\ntag_1:\n  pop\n  mload(0x40)\n  sub(codesize, bytecodeSize)\n  dup1\n  bytecodeSize\n  dup4\n  codecopy\n  dup2\n  dup2\n  add\n  0x40\n  mstore\n  dup2\n  add\n  swap1\n  tag_2\n  swap2\n  swap1\n  tag_3\n  jump\t// in\ntag_2:\n    /* \"contracts/3b_many_owners.sol\":1195:1205  msg.sender */\n  caller\n    /* \"contracts/3b_many_owners.sol\":1179:1192  originalOwner */\n  0x01\n  0x00\n    /* \"contracts/3b_many_owners.sol\":1179:1205  originalOwner = msg.sender */\n  0x0100\n  exp\n  dup2\n  sload\n  dup2\n  0xffffffffffffffffffffffffffffffffffffffff\n  mul\n  not\n  and\n  swap1\n  dup4\n  0xffffffffffffffffffffffffffffffffffffffff\n  and\n  mul\n  or\n  swap1\n  sstore\n  pop\n    /* \"contracts/3b_many_owners.sol\":1234:1241  1000000 */\n  0x0f4240\n    /* \"contracts/3b_many_owners.sol\":1215:1231  tokens_remaining */\n  0x05\n    /* \"contracts/3b_many_owners.sol\":1215:1241  tokens_remaining = 1000000 */\n  dup2\n  swap1\n  sstore\n  pop\n    /* \"contracts/3b_many_owners.sol\":1266:1282  tokens_remaining */\n  sload(0x05)\n    /* \"contracts/3b_many_owners.sol\":1251:1263  total_tokens */\n  0x04\n    /* \"contracts/3b_many_owners.sol\":1251:1282  total_tokens = tokens_remaining */\n  dup2\n  swap1\n  sstore\n  pop\n    /* \"contracts/3b_many_owners.sol\":1313:1317  true */\n  0x01\n    /* \"contracts/3b_many_owners.sol\":1292:1298  owners */\n  0x00\n    /* \"contracts/3b_many_owners.sol\":1292:1310  owners[msg.sender] */\n  dup1\n    /* \"contracts/3b_many_owners.sol\":1299:1309  msg.sender */\n  caller\n    /* \"contracts/3b_many_owners.sol\":1292:1310  owners[msg.sender] */\n  0xffffffffffffffffffffffffffffffffffffffff\n  and\n  0xffffffffffffffffffffffffffffffffffffffff\n  and\n  dup2\n  mstore\n  0x20\n  add\n  swap1\n  dup2\n  mstore\n  0x20\n  add\n  0x00\n  keccak256\n  0x00\n    /* \"contracts/3b_many_owners.sol\":1292:1317  owners[msg.sender] = true */\n  0x0100\n  exp\n  dup2\n  sload\n  dup2\n  0xff\n  mul\n  not\n  and\n  swap1\n  dup4\n  iszero\n  iszero\n  mul\n  or\n  swap1\n  sstore\n  pop\n    /* \"contracts/3b_many_owners.sol\":4192:4200  10000000 */\n  0x989680\n    /* \"contracts/3b_many_owners.sol\":4173:4189  tokens_remaining */\n  0x05\n    /* \"contracts/3b_many_owners.sol\":4173:4200  tokens_remaining = 10000000 */\n  dup2\n  swap1\n  sstore\n  pop\n    /* \"contracts/3b_many_owners.sol\":4225:4241  tokens_remaining */\n  sload(0x05)\n    /* \"contracts/3b_many_owners.sol\":4210:4222  total_tokens */\n  0x04\n    /* \"contracts/3b_many_owners.sol\":4210:4241  total_tokens = tokens_remaining */\n  dup2\n  swap1\n  sstore\n  pop\n    /* \"contracts/3b_many_owners.sol\":4267:4273  wallet */\n  dup1\n    /* \"contracts/3b_many_owners.sol\":4251:4264  originalOwner */\n  0x01\n  0x00\n    /* \"contracts/3b_many_owners.sol\":4251:4273  originalOwner = wallet */\n  0x0100\n  exp\n  dup2\n  sload\n  dup2\n  0xffffffffffffffffffffffffffffffffffffffff\n  mul\n  not\n  and\n  swap1\n  dup4\n  0xffffffffffffffffffffffffffffffffffffffff\n  and\n  mul\n  or\n  swap1\n  sstore\n  pop\n    /* \"contracts/3b_many_owners.sol\":4300:4304  true */\n  0x01\n    /* \"contracts/3b_many_owners.sol\":4283:4289  owners */\n  0x00\n    /* \"contracts/3b_many_owners.sol\":4283:4297  owners[wallet] */\n  dup1\n    /* \"contracts/3b_many_owners.sol\":4290:4296  wallet */\n  dup4\n    /* \"contracts/3b_many_owners.sol\":4283:4297  owners[wallet] */\n  0xffffffffffffffffffffffffffffffffffffffff\n  and\n  0xffffffffffffffffffffffffffffffffffffffff\n  and\n  dup2\n  mstore\n  0x20\n  add\n  swap1\n  dup2\n  mstore\n  0x20\n  add\n  0x00\n  keccak256\n  0x00\n    /* \"contracts/3b_many_owners.sol\":4283:4304  owners[wallet] = true */\n  0x0100\n  exp\n  dup2\n  sload\n  dup2\n  0xff\n  mul\n  not\n  and\n  swap1\n  dup4\n  iszero\n  iszero\n  mul\n  or\n  swap1\n  sstore\n  pop\n    /* \"contracts/3b_many_owners.sol\":4314:4332  symbol = \"amyelee\" */\n  mload(0x40)\n  dup1\n  0x40\n  add\n  0x40\n  mstore\n  dup1\n  0x07\n  dup2\n  mstore\n  0x20\n  add\n  0x616d79656c656500000000000000000000000000000000000000000000000000\n  dup2\n  mstore\n  pop\n    /* \"contracts/3b_many_owners.sol\":4314:4320  symbol */\n  0x07\n    /* \"contracts/3b_many_owners.sol\":4314:4332  symbol = \"amyelee\" */\n  swap1\n  dup2\n  tag_8\n  swap2\n  swap1\n  tag_9\n  jump\t// in\ntag_8:\n  pop\n    /* \"contracts/3b_many_owners.sol\":4122:4339  constructor(address payable wallet) ... */\n  pop\n    /* \"contracts/3b_many_owners.sol\":3997:4342  contract UChicagoFinMath is ERC20 {... */\n  jump(tag_10)\n    /* \"#utility.yul\":88:205   */\ntag_12:\n    /* \"#utility.yul\":197:198   */\n  0x00\n    /* \"#utility.yul\":194:195   */\n  dup1\n    /* \"#utility.yul\":187:199   */\n  revert\n    /* \"#utility.yul\":334:460   */\ntag_14:\n    /* \"#utility.yul\":371:378   */\n  0x00\n    /* \"#utility.yul\":411:453   */\n  0xffffffffffffffffffffffffffffffffffffffff\n    /* \"#utility.yul\":404:409   */\n  dup3\n    /* \"#utility.yul\":400:454   */\n  and\n    /* \"#utility.yul\":389:454   */\n  swap1\n  pop\n    /* \"#utility.yul\":334:460   */\n  swap2\n  swap1\n  pop\n  jump\t// out\n    /* \"#utility.yul\":466:570   */\ntag_15:\n    /* \"#utility.yul\":511:518   */\n  0x00\n    /* \"#utility.yul\":540:564   */\n  tag_44\n    /* \"#utility.yul\":558:563   */\n  dup3\n    /* \"#utility.yul\":540:564   */\n  tag_14\n  jump\t// in\ntag_44:\n    /* \"#utility.yul\":529:564   */\n  swap1\n  pop\n    /* \"#utility.yul\":466:570   */\n  swap2\n  swap1\n  pop\n  jump\t// out\n    /* \"#utility.yul\":576:714   */\ntag_16:\n    /* \"#utility.yul\":657:689   */\n  tag_46\n    /* \"#utility.yul\":683:688   */\n  dup2\n    /* \"#utility.yul\":657:689   */\n  tag_15\n  jump\t// in\ntag_46:\n    /* \"#utility.yul\":650:655   */\n  dup2\n    /* \"#utility.yul\":647:690   */\n  eq\n    /* \"#utility.yul\":637:708   */\n  tag_47\n  jumpi\n    /* \"#utility.yul\":704:705   */\n  0x00\n    /* \"#utility.yul\":701:702   */\n  dup1\n    /* \"#utility.yul\":694:706   */\n  revert\n    /* \"#utility.yul\":637:708   */\ntag_47:\n    /* \"#utility.yul\":576:714   */\n  pop\n  jump\t// out\n    /* \"#utility.yul\":720:879   */\ntag_17:\n    /* \"#utility.yul\":785:790   */\n  0x00\n    /* \"#utility.yul\":816:822   */\n  dup2\n    /* \"#utility.yul\":810:823   */\n  mload\n    /* \"#utility.yul\":801:823   */\n  swap1\n  pop\n    /* \"#utility.yul\":832:873   */\n  tag_49\n    /* \"#utility.yul\":867:872   */\n  dup2\n    /* \"#utility.yul\":832:873   */\n  tag_16\n  jump\t// in\ntag_49:\n    /* \"#utility.yul\":720:879   */\n  swap3\n  swap2\n  pop\n  pop\n  jump\t// out\n    /* \"#utility.yul\":885:1252   */\ntag_3:\n    /* \"#utility.yul\":963:969   */\n  0x00\n    /* \"#utility.yul\":1012:1014   */\n  0x20\n    /* \"#utility.yul\":1000:1009   */\n  dup3\n    /* \"#utility.yul\":991:998   */\n  dup5\n    /* \"#utility.yul\":987:1010   */\n  sub\n    /* \"#utility.yul\":983:1015   */\n  slt\n    /* \"#utility.yul\":980:1099   */\n  iszero\n  tag_51\n  jumpi\n    /* \"#utility.yul\":1018:1097   */\n  tag_52\n  tag_12\n  jump\t// in\ntag_52:\n    /* \"#utility.yul\":980:1099   */\ntag_51:\n    /* \"#utility.yul\":1138:1139   */\n  0x00\n    /* \"#utility.yul\":1163:1235   */\n  tag_53\n    /* \"#utility.yul\":1227:1234   */\n  dup5\n    /* \"#utility.yul\":1218:1224   */\n  dup3\n    /* \"#utility.yul\":1207:1216   */\n  dup6\n    /* \"#utility.yul\":1203:1225   */\n  add\n    /* \"#utility.yul\":1163:1235   */\n  tag_17\n  jump\t// in\ntag_53:\n    /* \"#utility.yul\":1153:1235   */\n  swap2\n  pop\n    /* \"#utility.yul\":1109:1245   */\n  pop\n    /* \"#utility.yul\":885:1252   */\n  swap3\n  swap2\n  pop\n  pop\n  jump\t// out\n    /* \"#utility.yul\":1258:1357   */\ntag_18:\n    /* \"#utility.yul\":1310:1316   */\n  0x00\n    /* \"#utility.yul\":1344:1349   */\n  dup2\n    /* \"#utility.yul\":1338:1350   */\n  mload\n    /* \"#utility.yul\":1328:1350   */\n  swap1\n  pop\n    /* \"#utility.yul\":1258:1357   */\n  swap2\n  swap1\n  pop\n  jump\t// out\n    /* \"#utility.yul\":1363:1543   */\ntag_19:\n    /* \"#utility.yul\":1411:1488   */\n  0x4e487b7100000000000000000000000000000000000000000000000000000000\n    /* \"#utility.yul\":1408:1409   */\n  0x00\n    /* \"#utility.yul\":1401:1489   */\n  mstore\n    /* \"#utility.yul\":1508:1512   */\n  0x41\n    /* \"#utility.yul\":1505:1506   */\n  0x04\n    /* \"#utility.yul\":1498:1513   */\n  mstore\n    /* \"#utility.yul\":1532:1536   */\n  0x24\n    /* \"#utility.yul\":1529:1530   */\n  0x00\n    /* \"#utility.yul\":1522:1537   */\n  revert\n    /* \"#utility.yul\":1549:1729   */\ntag_20:\n    /* \"#utility.yul\":1597:1674   */\n  0x4e487b7100000000000000000000000000000000000000000000000000000000\n    /* \"#utility.yul\":1594:1595   */\n  0x00\n    /* \"#utility.yul\":1587:1675   */\n  mstore\n    /* \"#utility.yul\":1694:1698   */\n  0x22\n    /* \"#utility.yul\":1691:1692   */\n  0x04\n    /* \"#utility.yul\":1684:1699   */\n  mstore\n    /* \"#utility.yul\":1718:1722   */\n  0x24\n    /* \"#utility.yul\":1715:1716   */\n  0x00\n    /* \"#utility.yul\":1708:1723   */\n  revert\n    /* \"#utility.yul\":1735:2055   */\ntag_21:\n    /* \"#utility.yul\":1779:1785   */\n  0x00\n    /* \"#utility.yul\":1816:1817   */\n  0x02\n    /* \"#utility.yul\":1810:1814   */\n  dup3\n    /* \"#utility.yul\":1806:1818   */\n  div\n    /* \"#utility.yul\":1796:1818   */\n  swap1\n  pop\n    /* \"#utility.yul\":1863:1864   */\n  0x01\n    /* \"#utility.yul\":1857:1861   */\n  dup3\n    /* \"#utility.yul\":1853:1865   */\n  and\n    /* \"#utility.yul\":1884:1902   */\n  dup1\n    /* \"#utility.yul\":1874:1955   */\n  tag_58\n  jumpi\n    /* \"#utility.yul\":1940:1944   */\n  0x7f\n    /* \"#utility.yul\":1932:1938   */\n  dup3\n    /* \"#utility.yul\":1928:1945   */\n  and\n    /* \"#utility.yul\":1918:1945   */\n  swap2\n  pop\n    /* \"#utility.yul\":1874:1955   */\ntag_58:\n    /* \"#utility.yul\":2002:2004   */\n  0x20\n    /* \"#utility.yul\":1994:2000   */\n  dup3\n    /* \"#utility.yul\":1991:2005   */\n  lt\n    /* \"#utility.yul\":1971:1989   */\n  dup2\n    /* \"#utility.yul\":1968:2006   */\n  sub\n    /* \"#utility.yul\":1965:2049   */\n  tag_59\n  jumpi\n    /* \"#utility.yul\":2021:2039   */\n  tag_60\n  tag_20\n  jump\t// in\ntag_60:\n    /* \"#utility.yul\":1965:2049   */\ntag_59:\n    /* \"#utility.yul\":1786:2055   */\n  pop\n    /* \"#utility.yul\":1735:2055   */\n  swap2\n  swap1\n  pop\n  jump\t// out\n    /* \"#utility.yul\":2061:2202   */\ntag_22:\n    /* \"#utility.yul\":2110:2114   */\n  0x00\n    /* \"#utility.yul\":2133:2136   */\n  dup2\n    /* \"#utility.yul\":2125:2136   */\n  swap1\n  pop\n    /* \"#utility.yul\":2156:2159   */\n  dup2\n    /* \"#utility.yul\":2153:2154   */\n  0x00\n    /* \"#utility.yul\":2146:2160   */\n  mstore\n    /* \"#utility.yul\":2190:2194   */\n  0x20\n    /* \"#utility.yul\":2187:2188   */\n  0x00\n    /* \"#utility.yul\":2177:2195   */\n  keccak256\n    /* \"#utility.yul\":2169:2195   */\n  swap1\n  pop\n    /* \"#utility.yul\":2061:2202   */\n  swap2\n  swap1\n  pop\n  jump\t// out\n    /* \"#utility.yul\":2208:2301   */\ntag_23:\n    /* \"#utility.yul\":2245:2251   */\n  0x00\n    /* \"#utility.yul\":2292:2294   */\n  0x20\n    /* \"#utility.yul\":2287:2289   */\n  0x1f\n    /* \"#utility.yul\":2280:2285   */\n  dup4\n    /* \"#utility.yul\":2276:2290   */\n  add\n    /* \"#utility.yul\":2272:2295   */\n  div\n    /* \"#utility.yul\":2262:2295   */\n  swap1\n  pop\n    /* \"#utility.yul\":2208:2301   */\n  swap2\n  swap1\n  pop\n  jump\t// out\n    /* \"#utility.yul\":2307:2414   */\ntag_24:\n    /* \"#utility.yul\":2351:2359   */\n  0x00\n    /* \"#utility.yul\":2401:2406   */\n  dup3\n    /* \"#utility.yul\":2395:2399   */\n  dup3\n    /* \"#utility.yul\":2391:2407   */\n  shl\n    /* \"#utility.yul\":2370:2407   */\n  swap1\n  pop\n    /* \"#utility.yul\":2307:2414   */\n  swap3\n  swap2\n  pop\n  pop\n  jump\t// out\n    /* \"#utility.yul\":2420:2813   */\ntag_25:\n    /* \"#utility.yul\":2489:2495   */\n  0x00\n    /* \"#utility.yul\":2539:2540   */\n  0x08\n    /* \"#utility.yul\":2527:2537   */\n  dup4\n    /* \"#utility.yul\":2523:2541   */\n  mul\n    /* \"#utility.yul\":2562:2659   */\n  tag_65\n    /* \"#utility.yul\":2592:2658   */\n  0xffffffffffffffffffffffffffffffffffffffffffffffffffffffffffffffff\n    /* \"#utility.yul\":2581:2590   */\n  dup3\n    /* \"#utility.yul\":2562:2659   */\n  tag_24\n  jump\t// in\ntag_65:\n    /* \"#utility.yul\":2680:2719   */\n  tag_66\n    /* \"#utility.yul\":2710:2718   */\n  dup7\n    /* \"#utility.yul\":2699:2708   */\n  dup4\n    /* \"#utility.yul\":2680:2719   */\n  tag_24\n  jump\t// in\ntag_66:\n    /* \"#utility.yul\":2668:2719   */\n  swap6\n  pop\n    /* \"#utility.yul\":2752:2756   */\n  dup1\n    /* \"#utility.yul\":2748:2757   */\n  not\n    /* \"#utility.yul\":2741:2746   */\n  dup5\n    /* \"#utility.yul\":2737:2758   */\n  and\n    /* \"#utility.yul\":2728:2758   */\n  swap4\n  pop\n    /* \"#utility.yul\":2801:2805   */\n  dup1\n    /* \"#utility.yul\":2791:2799   */\n  dup7\n    /* \"#utility.yul\":2787:2806   */\n  and\n    /* \"#utility.yul\":2780:2785   */\n  dup5\n    /* \"#utility.yul\":2777:2807   */\n  or\n    /* \"#utility.yul\":2767:2807   */\n  swap3\n  pop\n    /* \"#utility.yul\":2496:2813   */\n  pop\n  pop\n    /* \"#utility.yul\":2420:2813   */\n  swap4\n  swap3\n  pop\n  pop\n  pop\n  jump\t// out\n    /* \"#utility.yul\":2819:2896   */\ntag_26:\n    /* \"#utility.yul\":2856:2863   */\n  0x00\n    /* \"#utility.yul\":2885:2890   */\n  dup2\n    /* \"#utility.yul\":2874:2890   */\n  swap1\n  pop\n    /* \"#utility.yul\":2819:2896   */\n  swap2\n  swap1\n  pop\n  jump\t// out\n    /* \"#utility.yul\":2902:2962   */\ntag_27:\n    /* \"#utility.yul\":2930:2933   */\n  0x00\n    /* \"#utility.yul\":2951:2956   */\n  dup2\n    /* \"#utility.yul\":2944:2956   */\n  swap1\n  pop\n    /* \"#utility.yul\":2902:2962   */\n  swap2\n  swap1\n  pop\n  jump\t// out\n    /* \"#utility.yul\":2968:3110   */\ntag_28:\n    /* \"#utility.yul\":3018:3027   */\n  0x00\n    /* \"#utility.yul\":3051:3104   */\n  tag_70\n    /* \"#utility.yul\":3069:3103   */\n  tag_71\n    /* \"#utility.yul\":3078:3102   */\n  tag_72\n    /* \"#utility.yul\":3096:3101   */\n  dup5\n    /* \"#utility.yul\":3078:3102   */\n  tag_26\n  jump\t// in\ntag_72:\n    /* \"#utility.yul\":3069:3103   */\n  tag_27\n  jump\t// in\ntag_71:\n    /* \"#utility.yul\":3051:3104   */\n  tag_26\n  jump\t// in\ntag_70:\n    /* \"#utility.yul\":3038:3104   */\n  swap1\n  pop\n    /* \"#utility.yul\":2968:3110   */\n  swap2\n  swap1\n  pop\n  jump\t// out\n    /* \"#utility.yul\":3116:3191   */\ntag_29:\n    /* \"#utility.yul\":3159:3162   */\n  0x00\n    /* \"#utility.yul\":3180:3185   */\n  dup2\n    /* \"#utility.yul\":3173:3185   */\n  swap1\n  pop\n    /* \"#utility.yul\":3116:3191   */\n  swap2\n  swap1\n  pop\n  jump\t// out\n    /* \"#utility.yul\":3197:3466   */\ntag_30:\n    /* \"#utility.yul\":3307:3346   */\n  tag_75\n    /* \"#utility.yul\":3338:3345   */\n  dup4\n    /* \"#utility.yul\":3307:3346   */\n  tag_28\n  jump\t// in\ntag_75:\n    /* \"#utility.yul\":3368:3459   */\n  tag_76\n    /* \"#utility.yul\":3417:3458   */\n  tag_77\n    /* \"#utility.yul\":3441:3457   */\n  dup3\n    /* \"#utility.yul\":3417:3458   */\n  tag_29\n  jump\t// in\ntag_77:\n    /* \"#utility.yul\":3409:3415   */\n  dup5\n    /* \"#utility.yul\":3402:3406   */\n  dup5\n    /* \"#utility.yul\":3396:3407   */\n  sload\n    /* \"#utility.yul\":3368:3459   */\n  tag_25\n  jump\t// in\ntag_76:\n    /* \"#utility.yul\":3362:3366   */\n  dup3\n    /* \"#utility.yul\":3355:3460   */\n  sstore\n    /* \"#utility.yul\":3273:3466   */\n  pop\n    /* \"#utility.yul\":3197:3466   */\n  pop\n  pop\n  pop\n  jump\t// out\n    /* \"#utility.yul\":3472:3545   */\ntag_31:\n    /* \"#utility.yul\":3517:3520   */\n  0x00\n    /* \"#utility.yul\":3472:3545   */\n  swap1\n  jump\t// out\n    /* \"#utility.yul\":3551:3740   */\ntag_32:\n    /* \"#utility.yul\":3628:3660   */\n  tag_80\n  tag_31\n  jump\t// in\ntag_80:\n    /* \"#utility.yul\":3669:3734   */\n  tag_81\n    /* \"#utility.yul\":3727:3733   */\n  dup2\n    /* \"#utility.yul\":3719:3725   */\n  dup5\n    /* \"#utility.yul\":3713:3717   */\n  dup5\n    /* \"#utility.yul\":3669:3734   */\n  tag_30\n  jump\t// in\ntag_81:\n    /* \"#utility.yul\":3604:3740   */\n  pop\n    /* \"#utility.yul\":3551:3740   */\n  pop\n  pop\n  jump\t// out\n    /* \"#utility.yul\":3746:3932   */\ntag_33:\n    /* \"#utility.yul\":3806:3926   */\ntag_83:\n    /* \"#utility.yul\":3823:3826   */\n  dup2\n    /* \"#utility.yul\":3816:3821   */\n  dup2\n    /* \"#utility.yul\":3813:3827   */\n  lt\n    /* \"#utility.yul\":3806:3926   */\n  iszero\n  tag_85\n  jumpi\n    /* \"#utility.yul\":3877:3916   */\n  tag_86\n    /* \"#utility.yul\":3914:3915   */\n  0x00\n    /* \"#utility.yul\":3907:3912   */\n  dup3\n    /* \"#utility.yul\":3877:3916   */\n  tag_32\n  jump\t// in\ntag_86:\n    /* \"#utility.yul\":3850:3851   */\n  0x01\n    /* \"#utility.yul\":3843:3848   */\n  dup2\n    /* \"#utility.yul\":3839:3852   */\n  add\n    /* \"#utility.yul\":3830:3852   */\n  swap1\n  pop\n    /* \"#utility.yul\":3806:3926   */\n  jump(tag_83)\ntag_85:\n    /* \"#utility.yul\":3746:3932   */\n  pop\n  pop\n  jump\t// out\n    /* \"#utility.yul\":3938:4481   */\ntag_34:\n    /* \"#utility.yul\":4039:4041   */\n  0x1f\n    /* \"#utility.yul\":4034:4037   */\n  dup3\n    /* \"#utility.yul\":4031:4042   */\n  gt\n    /* \"#utility.yul\":4028:4474   */\n  iszero\n  tag_88\n  jumpi\n    /* \"#utility.yul\":4073:4111   */\n  tag_89\n    /* \"#utility.yul\":4105:4110   */\n  dup2\n    /* \"#utility.yul\":4073:4111   */\n  tag_22\n  jump\t// in\ntag_89:\n    /* \"#utility.yul\":4157:4186   */\n  tag_90\n    /* \"#utility.yul\":4175:4185   */\n  dup5\n    /* \"#utility.yul\":4157:4186   */\n  tag_23\n  jump\t// in\ntag_90:\n    /* \"#utility.yul\":4147:4155   */\n  dup2\n    /* \"#utility.yul\":4143:4187   */\n  add\n    /* \"#utility.yul\":4340:4342   */\n  0x20\n    /* \"#utility.yul\":4328:4338   */\n  dup6\n    /* \"#utility.yul\":4325:4343   */\n  lt\n    /* \"#utility.yul\":4322:4371   */\n  iszero\n  tag_91\n  jumpi\n    /* \"#utility.yul\":4361:4369   */\n  dup2\n    /* \"#utility.yul\":4346:4369   */\n  swap1\n  pop\n    /* \"#utility.yul\":4322:4371   */\ntag_91:\n    /* \"#utility.yul\":4384:4464   */\n  tag_92\n    /* \"#utility.yul\":4440:4462   */\n  tag_93\n    /* \"#utility.yul\":4458:4461   */\n  dup6\n    /* \"#utility.yul\":4440:4462   */\n  tag_23\n  jump\t// in\ntag_93:\n    /* \"#utility.yul\":4430:4438   */\n  dup4\n    /* \"#utility.yul\":4426:4463   */\n  add\n    /* \"#utility.yul\":4413:4424   */\n  dup3\n    /* \"#utility.yul\":4384:4464   */\n  tag_33\n  jump\t// in\ntag_92:\n    /* \"#utility.yul\":4043:4474   */\n  pop\n  pop\n    /* \"#utility.yul\":4028:4474   */\ntag_88:\n    /* \"#utility.yul\":3938:4481   */\n  pop\n  pop\n  pop\n  jump\t// out\n    /* \"#utility.yul\":4487:4604   */\ntag_35:\n    /* \"#utility.yul\":4541:4549   */\n  0x00\n    /* \"#utility.yul\":4591:4596   */\n  dup3\n    /* \"#utility.yul\":4585:4589   */\n  dup3\n    /* \"#utility.yul\":4581:4597   */\n  shr\n    /* \"#utility.yul\":4560:4597   */\n  swap1\n  pop\n    /* \"#utility.yul\":4487:4604   */\n  swap3\n  swap2\n  pop\n  pop\n  jump\t// out\n    /* \"#utility.yul\":4610:4779   */\ntag_36:\n    /* \"#utility.yul\":4654:4660   */\n  0x00\n    /* \"#utility.yul\":4687:4738   */\n  tag_96\n    /* \"#utility.yul\":4735:4736   */\n  0x00\n    /* \"#utility.yul\":4731:4737   */\n  not\n    /* \"#utility.yul\":4723:4728   */\n  dup5\n    /* \"#utility.yul\":4720:4721   */\n  0x08\n    /* \"#utility.yul\":4716:4729   */\n  mul\n    /* \"#utility.yul\":4687:4738   */\n  tag_35\n  jump\t// in\ntag_96:\n    /* \"#utility.yul\":4683:4739   */\n  not\n    /* \"#utility.yul\":4768:4772   */\n  dup1\n    /* \"#utility.yul\":4762:4766   */\n  dup4\n    /* \"#utility.yul\":4758:4773   */\n  and\n    /* \"#utility.yul\":4748:4773   */\n  swap2\n  pop\n    /* \"#utility.yul\":4661:4779   */\n  pop\n    /* \"#utility.yul\":4610:4779   */\n  swap3\n  swap2\n  pop\n  pop\n  jump\t// out\n    /* \"#utility.yul\":4784:5079   */\ntag_37:\n    /* \"#utility.yul\":4860:4864   */\n  0x00\n    /* \"#utility.yul\":5006:5035   */\n  tag_98\n    /* \"#utility.yul\":5031:5034   */\n  dup4\n    /* \"#utility.yul\":5025:5029   */\n  dup4\n    /* \"#utility.yul\":5006:5035   */\n  tag_36\n  jump\t// in\ntag_98:\n    /* \"#utility.yul\":4998:5035   */\n  swap2\n  pop\n    /* \"#utility.yul\":5068:5071   */\n  dup3\n    /* \"#utility.yul\":5065:5066   */\n  0x02\n    /* \"#utility.yul\":5061:5072   */\n  mul\n    /* \"#utility.yul\":5055:5059   */\n  dup3\n    /* \"#utility.yul\":5052:5073   */\n  or\n    /* \"#utility.yul\":5044:5073   */\n  swap1\n  pop\n    /* \"#utility.yul\":4784:5079   */\n  swap3\n  swap2\n  pop\n  pop\n  jump\t// out\n    /* \"#utility.yul\":5084:6479   */\ntag_9:\n    /* \"#utility.yul\":5201:5238   */\n  tag_100\n    /* \"#utility.yul\":5234:5237   */\n  dup3\n    /* \"#utility.yul\":5201:5238   */\n  tag_18\n  jump\t// in\ntag_100:\n    /* \"#utility.yul\":5303:5321   */\n  0xffffffffffffffff\n    /* \"#utility.yul\":5295:5301   */\n  dup2\n    /* \"#utility.yul\":5292:5322   */\n  gt\n    /* \"#utility.yul\":5289:5345   */\n  iszero\n  tag_101\n  jumpi\n    /* \"#utility.yul\":5325:5343   */\n  tag_102\n  tag_19\n  jump\t// in\ntag_102:\n    /* \"#utility.yul\":5289:5345   */\ntag_101:\n    /* \"#utility.yul\":5369:5407   */\n  tag_103\n    /* \"#utility.yul\":5401:5405   */\n  dup3\n    /* \"#utility.yul\":5395:5406   */\n  sload\n    /* \"#utility.yul\":5369:5407   */\n  tag_21\n  jump\t// in\ntag_103:\n    /* \"#utility.yul\":5454:5521   */\n  tag_104\n    /* \"#utility.yul\":5514:5520   */\n  dup3\n    /* \"#utility.yul\":5506:5512   */\n  dup3\n    /* \"#utility.yul\":5500:5504   */\n  dup6\n    /* \"#utility.yul\":5454:5521   */\n  tag_34\n  jump\t// in\ntag_104:\n    /* \"#utility.yul\":5548:5549   */\n  0x00\n    /* \"#utility.yul\":5572:5576   */\n  0x20\n    /* \"#utility.yul\":5559:5576   */\n  swap1\n  pop\n    /* \"#utility.yul\":5604:5606   */\n  0x1f\n    /* \"#utility.yul\":5596:5602   */\n  dup4\n    /* \"#utility.yul\":5593:5607   */\n  gt\n    /* \"#utility.yul\":5621:5622   */\n  0x01\n    /* \"#utility.yul\":5616:6234   */\n  dup2\n  eq\n  tag_106\n  jumpi\n    /* \"#utility.yul\":6278:6279   */\n  0x00\n    /* \"#utility.yul\":6295:6301   */\n  dup5\n    /* \"#utility.yul\":6292:6369   */\n  iszero\n  tag_107\n  jumpi\n    /* \"#utility.yul\":6344:6353   */\n  dup3\n    /* \"#utility.yul\":6339:6342   */\n  dup8\n    /* \"#utility.yul\":6335:6354   */\n  add\n    /* \"#utility.yul\":6329:6355   */\n  mload\n    /* \"#utility.yul\":6320:6355   */\n  swap1\n  pop\n    /* \"#utility.yul\":6292:6369   */\ntag_107:\n    /* \"#utility.yul\":6395:6462   */\n  tag_108\n    /* \"#utility.yul\":6455:6461   */\n  dup6\n    /* \"#utility.yul\":6448:6453   */\n  dup3\n    /* \"#utility.yul\":6395:6462   */\n  tag_37\n  jump\t// in\ntag_108:\n    /* \"#utility.yul\":6389:6393   */\n  dup7\n    /* \"#utility.yul\":6382:6463   */\n  sstore\n    /* \"#utility.yul\":6251:6473   */\n  pop\n    /* \"#utility.yul\":5586:6473   */\n  jump(tag_105)\n    /* \"#utility.yul\":5616:6234   */\ntag_106:\n    /* \"#utility.yul\":5668:5672   */\n  0x1f\n    /* \"#utility.yul\":5664:5673   */\n  not\n    /* \"#utility.yul\":5656:5662   */\n  dup5\n    /* \"#utility.yul\":5652:5674   */\n  and\n    /* \"#utility.yul\":5702:5739   */\n  tag_109\n    /* \"#utility.yul\":5734:5738   */\n  dup7\n    /* \"#utility.yul\":5702:5739   */\n  tag_22\n  jump\t// in\ntag_109:\n    /* \"#utility.yul\":5761:5762   */\n  0x00\n    /* \"#utility.yul\":5775:5983   */\ntag_110:\n    /* \"#utility.yul\":5789:5796   */\n  dup3\n    /* \"#utility.yul\":5786:5787   */\n  dup2\n    /* \"#utility.yul\":5783:5797   */\n  lt\n    /* \"#utility.yul\":5775:5983   */\n  iszero\n  tag_112\n  jumpi\n    /* \"#utility.yul\":5868:5877   */\n  dup5\n    /* \"#utility.yul\":5863:5866   */\n  dup10\n    /* \"#utility.yul\":5859:5878   */\n  add\n    /* \"#utility.yul\":5853:5879   */\n  mload\n    /* \"#utility.yul\":5845:5851   */\n  dup3\n    /* \"#utility.yul\":5838:5880   */\n  sstore\n    /* \"#utility.yul\":5919:5920   */\n  0x01\n    /* \"#utility.yul\":5911:5917   */\n  dup3\n    /* \"#utility.yul\":5907:5921   */\n  add\n    /* \"#utility.yul\":5897:5921   */\n  swap2\n  pop\n    /* \"#utility.yul\":5966:5968   */\n  0x20\n    /* \"#utility.yul\":5955:5964   */\n  dup6\n    /* \"#utility.yul\":5951:5969   */\n  add\n    /* \"#utility.yul\":5938:5969   */\n  swap5\n  pop\n    /* \"#utility.yul\":5812:5816   */\n  0x20\n    /* \"#utility.yul\":5809:5810   */\n  dup2\n    /* \"#utility.yul\":5805:5817   */\n  add\n    /* \"#utility.yul\":5800:5817   */\n  swap1\n  pop\n    /* \"#utility.yul\":5775:5983   */\n  jump(tag_110)\ntag_112:\n    /* \"#utility.yul\":6011:6017   */\n  dup7\n    /* \"#utility.yul\":6002:6009   */\n  dup4\n    /* \"#utility.yul\":5999:6018   */\n  lt\n    /* \"#utility.yul\":5996:6175   */\n  iszero\n  tag_113\n  jumpi\n    /* \"#utility.yul\":6069:6078   */\n  dup5\n    /* \"#utility.yul\":6064:6067   */\n  dup10\n    /* \"#utility.yul\":6060:6079   */\n  add\n    /* \"#utility.yul\":6054:6080   */\n  mload\n    /* \"#utility.yul\":6112:6160   */\n  tag_114\n    /* \"#utility.yul\":6154:6158   */\n  0x1f\n    /* \"#utility.yul\":6146:6152   */\n  dup10\n    /* \"#utility.yul\":6142:6159   */\n  and\n    /* \"#utility.yul\":6131:6140   */\n  dup3\n    /* \"#utility.yul\":6112:6160   */\n  tag_36\n  jump\t// in\ntag_114:\n    /* \"#utility.yul\":6104:6110   */\n  dup4\n    /* \"#utility.yul\":6097:6161   */\n  sstore\n    /* \"#utility.yul\":6019:6175   */\n  pop\n    /* \"#utility.yul\":5996:6175   */\ntag_113:\n    /* \"#utility.yul\":6221:6222   */\n  0x01\n    /* \"#utility.yul\":6217:6218   */\n  0x02\n    /* \"#utility.yul\":6209:6215   */\n  dup9\n    /* \"#utility.yul\":6205:6219   */\n  mul\n    /* \"#utility.yul\":6201:6223   */\n  add\n    /* \"#utility.yul\":6195:6199   */\n  dup9\n    /* \"#utility.yul\":6188:6224   */\n  sstore\n    /* \"#utility.yul\":5623:6234   */\n  pop\n  pop\n  pop\n    /* \"#utility.yul\":5586:6473   */\ntag_105:\n  pop\n    /* \"#utility.yul\":5176:6479   */\n  pop\n  pop\n  pop\n    /* \"#utility.yul\":5084:6479   */\n  pop\n  pop\n  jump\t// out\n    /* \"contracts/3b_many_owners.sol\":3997:4342  contract UChicagoFinMath is ERC20 {... */\ntag_10:\n  dataSize(sub_0)\n  dup1\n  dataOffset(sub_0)\n  0x00\n  codecopy\n  0x00\n  return\nstop\n\nsub_0: assembly {\n        /* \"contracts/3b_many_owners.sol\":3997:4342  contract UChicagoFinMath is ERC20 {... */\n      mstore(0x40, 0x80)\n      jumpi(tag_1, lt(calldatasize, 0x04))\n      shr(0xe0, calldataload(0x00))\n      dup1\n      0x8c8a9606\n      gt\n      tag_20\n      jumpi\n      dup1\n      0xc6490835\n      gt\n      tag_21\n      jumpi\n      dup1\n      0xc6490835\n      eq\n      tag_15\n      jumpi\n      dup1\n      0xcd5c4c70\n      eq\n      tag_16\n      jumpi\n      dup1\n      0xd0679d34\n      eq\n      tag_17\n      jumpi\n      dup1\n      0xf1fffdcb\n      eq\n      tag_18\n      jumpi\n      dup1\n      0xfd1b6f2b\n      eq\n      tag_19\n      jumpi\n      jump(tag_1)\n    tag_21:\n      dup1\n      0x8c8a9606\n      eq\n      tag_11\n      jumpi\n      dup1\n      0x95d89b41\n      eq\n      tag_12\n      jumpi\n      dup1\n      0xa0712d68\n      eq\n      tag_13\n      jumpi\n      dup1\n      0xa4821719\n      eq\n      tag_14\n      jumpi\n      jump(tag_1)\n    tag_20:\n      dup1\n      0x27e235e3\n      gt\n      tag_22\n      jumpi\n      dup1\n      0x27e235e3\n      eq\n      tag_6\n      jumpi\n      dup1\n      0x54fd4d50\n      eq\n      tag_7\n      jumpi\n      dup1\n      0x7065cb48\n      eq\n      tag_8\n      jumpi\n      dup1\n      0x7a3b1e86\n      eq\n      tag_9\n      jumpi\n      dup1\n      0x865cf928\n      eq\n      tag_10\n      jumpi\n      jump(tag_1)\n    tag_22:\n      dup1\n      0x022914a7\n      eq\n      tag_2\n      jumpi\n      dup1\n      0x12065fe0\n      eq\n      tag_3\n      jumpi\n      dup1\n      0x1828db82\n      eq\n      tag_4\n      jumpi\n      dup1\n      0x2397e4d7\n      eq\n      tag_5\n      jumpi\n    tag_1:\n      0x00\n      dup1\n      revert\n        /* \"contracts/3b_many_owners.sol\":890:928  mapping(address => bool) public owners */\n    tag_2:\n      callvalue\n      dup1\n      iszero\n      tag_23\n      jumpi\n      0x00\n      dup1\n      revert\n    tag_23:\n      pop\n      tag_24\n      0x04\n      dup1\n      calldatasize\n      sub\n      dup2\n      add\n      swap1\n      tag_25\n      swap2\n      swap1\n      tag_26\n      jump\t// in\n    tag_25:\n      tag_27\n      jump\t// in\n    tag_24:\n      mload(0x40)\n      tag_28\n      swap2\n      swap1\n      tag_29\n      jump\t// in\n    tag_28:\n      mload(0x40)\n      dup1\n      swap2\n      sub\n      swap1\n      return\n        /* \"contracts/3b_many_owners.sol\":2310:2407  function getBalance() public view returns (uint256) {... */\n    tag_3:\n      callvalue\n      dup1\n      iszero\n      tag_30\n      jumpi\n      0x00\n      dup1\n      revert\n    tag_30:\n      pop\n      tag_31\n      tag_32\n      jump\t// in\n    tag_31:\n      mload(0x40)\n      tag_33\n      swap2\n      swap1\n      tag_34\n      jump\t// in\n    tag_33:\n      mload(0x40)\n      dup1\n      swap2\n      sub\n      swap1\n      return\n        /* \"contracts/3b_many_owners.sol\":2413:2561  function ownerPayout(address payable owner) public payable onlyOwner {... */\n    tag_4:\n      tag_35\n      0x04\n      dup1\n      calldatasize\n      sub\n      dup2\n      add\n      swap1\n      tag_36\n      swap2\n      swap1\n      tag_37\n      jump\t// in\n    tag_36:\n      tag_38\n      jump\t// in\n    tag_35:\n      stop\n        /* \"contracts/3b_many_owners.sol\":3396:3748  function sellToken(uint256 num_tokens) public payable{... */\n    tag_5:\n      tag_39\n      0x04\n      dup1\n      calldatasize\n      sub\n      dup2\n      add\n      swap1\n      tag_40\n      swap2\n      swap1\n      tag_41\n      jump\t// in\n    tag_40:\n      tag_42\n      jump\t// in\n    tag_39:\n      stop\n        /* \"contracts/3b_many_owners.sol\":1102:1145  mapping(address => uint256) public balances */\n    tag_6:\n      callvalue\n      dup1\n      iszero\n      tag_43\n      jumpi\n      0x00\n      dup1\n      revert\n    tag_43:\n      pop\n      tag_44\n      0x04\n      dup1\n      calldatasize\n      sub\n      dup2\n      add\n      swap1\n      tag_45\n      swap2\n      swap1\n      tag_26\n      jump\t// in\n    tag_45:\n      tag_46\n      jump\t// in\n    tag_44:\n      mload(0x40)\n      tag_47\n      swap2\n      swap1\n      tag_34\n      jump\t// in\n    tag_47:\n      mload(0x40)\n      dup1\n      swap2\n      sub\n      swap1\n      return\n        /* \"contracts/3b_many_owners.sol\":4093:4115  uint256 public version */\n    tag_7:\n      callvalue\n      dup1\n      iszero\n      tag_48\n      jumpi\n      0x00\n      dup1\n      revert\n    tag_48:\n      pop\n      tag_49\n      tag_50\n      jump\t// in\n    tag_49:\n      mload(0x40)\n      tag_51\n      swap2\n      swap1\n      tag_34\n      jump\t// in\n    tag_51:\n      mload(0x40)\n      dup1\n      swap2\n      sub\n      swap1\n      return\n        /* \"contracts/3b_many_owners.sol\":1814:1902  function addOwner(address target) public onlyOwner{... */\n    tag_8:\n      callvalue\n      dup1\n      iszero\n      tag_52\n      jumpi\n      0x00\n      dup1\n      revert\n    tag_52:\n      pop\n      tag_53\n      0x04\n      dup1\n      calldatasize\n      sub\n      dup2\n      add\n      swap1\n      tag_54\n      swap2\n      swap1\n      tag_26\n      jump\t// in\n    tag_54:\n      tag_55\n      jump\t// in\n    tag_53:\n      stop\n        /* \"contracts/3b_many_owners.sol\":969:993  address[] public hodlers */\n    tag_9:\n      callvalue\n      dup1\n      iszero\n      tag_56\n      jumpi\n      0x00\n      dup1\n      revert\n    tag_56:\n      pop\n      tag_57\n      0x04\n      dup1\n      calldatasize\n      sub\n      dup2\n      add\n      swap1\n      tag_58\n      swap2\n      swap1\n      tag_41\n      jump\t// in\n    tag_58:\n      tag_59\n      jump\t// in\n    tag_57:\n      mload(0x40)\n      tag_60\n      swap2\n      swap1\n      tag_61\n      jump\t// in\n    tag_60:\n      mload(0x40)\n      dup1\n      swap2\n      sub\n      swap1\n      return\n        /* \"contracts/3b_many_owners.sol\":1064:1095  uint256 public tokens_remaining */\n    tag_10:\n      callvalue\n      dup1\n      iszero\n      tag_62\n      jumpi\n      0x00\n      dup1\n      revert\n    tag_62:\n      pop\n      tag_63\n      tag_64\n      jump\t// in\n    tag_63:\n      mload(0x40)\n      tag_65\n      swap2\n      swap1\n      tag_34\n      jump\t// in\n    tag_65:\n      mload(0x40)\n      dup1\n      swap2\n      sub\n      swap1\n      return\n        /* \"contracts/3b_many_owners.sol\":2567:2676  function compute_token_value() public pure virtual returns(uint256)... */\n    tag_11:\n      callvalue\n      dup1\n      iszero\n      tag_66\n      jumpi\n      0x00\n      dup1\n      revert\n    tag_66:\n      pop\n      tag_67\n      tag_68\n      jump\t// in\n    tag_67:\n      mload(0x40)\n      tag_69\n      swap2\n      swap1\n      tag_34\n      jump\t// in\n    tag_69:\n      mload(0x40)\n      dup1\n      swap2\n      sub\n      swap1\n      return\n        /* \"contracts/3b_many_owners.sol\":4067:4087  string public symbol */\n    tag_12:\n      callvalue\n      dup1\n      iszero\n      tag_70\n      jumpi\n      0x00\n      dup1\n      revert\n    tag_70:\n      pop\n      tag_71\n      tag_72\n      jump\t// in\n    tag_71:\n      mload(0x40)\n      tag_73\n      swap2\n      swap1\n      tag_74\n      jump\t// in\n    tag_73:\n      mload(0x40)\n      dup1\n      swap2\n      sub\n      swap1\n      return\n        /* \"contracts/3b_many_owners.sol\":2182:2304  function mint(uint256 amount) public onlyOwner {... */\n    tag_13:\n      callvalue\n      dup1\n      iszero\n      tag_75\n      jumpi\n      0x00\n      dup1\n      revert\n    tag_75:\n      pop\n      tag_76\n      0x04\n      dup1\n      calldatasize\n      sub\n      dup2\n      add\n      swap1\n      tag_77\n      swap2\n      swap1\n      tag_41\n      jump\t// in\n    tag_77:\n      tag_78\n      jump\t// in\n    tag_76:\n      stop\n        /* \"contracts/3b_many_owners.sol\":2682:3389  function buyToken() public payable {... */\n    tag_14:\n      tag_79\n      tag_80\n      jump\t// in\n    tag_79:\n      stop\n        /* \"contracts/3b_many_owners.sol\":1031:1058  uint256 public total_tokens */\n    tag_15:\n      callvalue\n      dup1\n      iszero\n      tag_81\n      jumpi\n      0x00\n      dup1\n      revert\n    tag_81:\n      pop\n      tag_82\n      tag_83\n      jump\t// in\n    tag_82:\n      mload(0x40)\n      tag_84\n      swap2\n      swap1\n      tag_34\n      jump\t// in\n    tag_84:\n      mload(0x40)\n      dup1\n      swap2\n      sub\n      swap1\n      return\n        /* \"contracts/3b_many_owners.sol\":2076:2176  function deleteOwner(address target) public onlyOriginalOwner{... */\n    tag_16:\n      callvalue\n      dup1\n      iszero\n      tag_85\n      jumpi\n      0x00\n      dup1\n      revert\n    tag_85:\n      pop\n      tag_86\n      0x04\n      dup1\n      calldatasize\n      sub\n      dup2\n      add\n      swap1\n      tag_87\n      swap2\n      swap1\n      tag_26\n      jump\t// in\n    tag_87:\n      tag_88\n      jump\t// in\n    tag_86:\n      stop\n        /* \"contracts/3b_many_owners.sol\":3754:3993  function send(address wallet, uint256 amount) public {... */\n    tag_17:\n      callvalue\n      dup1\n      iszero\n      tag_89\n      jumpi\n      0x00\n      dup1\n      revert\n    tag_89:\n      pop\n      tag_90\n      0x04\n      dup1\n      calldatasize\n      sub\n      dup2\n      add\n      swap1\n      tag_91\n      swap2\n      swap1\n      tag_92\n      jump\t// in\n    tag_91:\n      tag_93\n      jump\t// in\n    tag_90:\n      stop\n        /* \"contracts/3b_many_owners.sol\":934:962  address public originalOwner */\n    tag_18:\n      callvalue\n      dup1\n      iszero\n      tag_94\n      jumpi\n      0x00\n      dup1\n      revert\n    tag_94:\n      pop\n      tag_95\n      tag_96\n      jump\t// in\n    tag_95:\n      mload(0x40)\n      tag_97\n      swap2\n      swap1\n      tag_61\n      jump\t// in\n    tag_97:\n      mload(0x40)\n      dup1\n      swap2\n      sub\n      swap1\n      return\n        /* \"contracts/3b_many_owners.sol\":999:1025  uint256 public hodlerCount */\n    tag_19:\n      callvalue\n      dup1\n      iszero\n      tag_98\n      jumpi\n      0x00\n      dup1\n      revert\n    tag_98:\n      pop\n      tag_99\n      tag_100\n      jump\t// in\n    tag_99:\n      mload(0x40)\n      tag_101\n      swap2\n      swap1\n      tag_34\n      jump\t// in\n    tag_101:\n      mload(0x40)\n      dup1\n      swap2\n      sub\n      swap1\n      return\n        /* \"contracts/3b_many_owners.sol\":890:928  mapping(address => bool) public owners */\n    tag_27:\n      mstore(0x20, 0x00)\n      dup1\n      0x00\n      mstore\n      keccak256(0x00, 0x40)\n      0x00\n      swap2\n      pop\n      sload\n      swap1\n      0x0100\n      exp\n      swap1\n      div\n      0xff\n      and\n      dup2\n      jump\t// out\n        /* \"contracts/3b_many_owners.sol\":2310:2407  function getBalance() public view returns (uint256) {... */\n    tag_32:\n        /* \"contracts/3b_many_owners.sol\":2353:2360  uint256 */\n      0x00\n        /* \"contracts/3b_many_owners.sol\":2379:2400  address(this).balance */\n      selfbalance\n        /* \"contracts/3b_many_owners.sol\":2372:2400  return address(this).balance */\n      swap1\n      pop\n        /* \"contracts/3b_many_owners.sol\":2310:2407  function getBalance() public view returns (uint256) {... */\n      swap1\n      jump\t// out\n        /* \"contracts/3b_many_owners.sol\":2413:2561  function ownerPayout(address payable owner) public payable onlyOwner {... */\n    tag_38:\n        /* \"contracts/3b_many_owners.sol\":1499:1505  owners */\n      0x00\n        /* \"contracts/3b_many_owners.sol\":1499:1517  owners[msg.sender] */\n      dup1\n        /* \"contracts/3b_many_owners.sol\":1506:1516  msg.sender */\n      caller\n        /* \"contracts/3b_many_owners.sol\":1499:1517  owners[msg.sender] */\n      0xffffffffffffffffffffffffffffffffffffffff\n      and\n      0xffffffffffffffffffffffffffffffffffffffff\n      and\n      dup2\n      mstore\n      0x20\n      add\n      swap1\n      dup2\n      mstore\n      0x20\n      add\n      0x00\n      keccak256\n      0x00\n      swap1\n      sload\n      swap1\n      0x0100\n      exp\n      swap1\n      div\n      0xff\n      and\n        /* \"contracts/3b_many_owners.sol\":1491:1532  require(owners[msg.sender], \"owner only\") */\n      tag_104\n      jumpi\n      mload(0x40)\n      0x08c379a000000000000000000000000000000000000000000000000000000000\n      dup2\n      mstore\n      0x04\n      add\n      tag_105\n      swap1\n      tag_106\n      jump\t// in\n    tag_105:\n      mload(0x40)\n      dup1\n      swap2\n      sub\n      swap1\n      revert\n    tag_104:\n        /* \"contracts/3b_many_owners.sol\":2500:2506  owners */\n      0x00\n        /* \"contracts/3b_many_owners.sol\":2500:2513  owners[owner] */\n      dup1\n        /* \"contracts/3b_many_owners.sol\":2507:2512  owner */\n      dup3\n        /* \"contracts/3b_many_owners.sol\":2500:2513  owners[owner] */\n      0xffffffffffffffffffffffffffffffffffffffff\n      and\n      0xffffffffffffffffffffffffffffffffffffffff\n      and\n      dup2\n      mstore\n      0x20\n      add\n      swap1\n      dup2\n      mstore\n      0x20\n      add\n      0x00\n      keccak256\n      0x00\n      swap1\n      sload\n      swap1\n      0x0100\n      exp\n      swap1\n      div\n      0xff\n      and\n        /* \"contracts/3b_many_owners.sol\":2492:2514  require(owners[owner]) */\n      tag_108\n      jumpi\n      0x00\n      dup1\n      revert\n    tag_108:\n        /* \"contracts/3b_many_owners.sol\":2524:2529  owner */\n      dup1\n        /* \"contracts/3b_many_owners.sol\":2524:2538  owner.transfer */\n      0xffffffffffffffffffffffffffffffffffffffff\n      and\n        /* \"contracts/3b_many_owners.sol\":2524:2554  owner.transfer( getBalance() ) */\n      0x08fc\n        /* \"contracts/3b_many_owners.sol\":2540:2552  getBalance() */\n      tag_109\n        /* \"contracts/3b_many_owners.sol\":2540:2550  getBalance */\n      tag_32\n        /* \"contracts/3b_many_owners.sol\":2540:2552  getBalance() */\n      jump\t// in\n    tag_109:\n        /* \"contracts/3b_many_owners.sol\":2524:2554  owner.transfer( getBalance() ) */\n      swap1\n      dup2\n      iszero\n      mul\n      swap1\n      mload(0x40)\n      0x00\n      mload(0x40)\n      dup1\n      dup4\n      sub\n      dup2\n      dup6\n      dup9\n      dup9\n      call\n      swap4\n      pop\n      pop\n      pop\n      pop\n      iszero\n      dup1\n      iszero\n      tag_111\n      jumpi\n      returndatasize\n      0x00\n      dup1\n      returndatacopy\n      revert(0x00, returndatasize)\n    tag_111:\n      pop\n        /* \"contracts/3b_many_owners.sol\":2413:2561  function ownerPayout(address payable owner) public payable onlyOwner {... */\n      pop\n      jump\t// out\n        /* \"contracts/3b_many_owners.sol\":3396:3748  function sellToken(uint256 num_tokens) public payable{... */\n    tag_42:\n        /* \"contracts/3b_many_owners.sol\":3459:3480  uint256 token_balance */\n      0x00\n        /* \"contracts/3b_many_owners.sol\":3483:3491  balances */\n      0x06\n        /* \"contracts/3b_many_owners.sol\":3483:3503  balances[msg.sender] */\n      0x00\n        /* \"contracts/3b_many_owners.sol\":3492:3502  msg.sender */\n      caller\n        /* \"contracts/3b_many_owners.sol\":3483:3503  balances[msg.sender] */\n      0xffffffffffffffffffffffffffffffffffffffff\n      and\n      0xffffffffffffffffffffffffffffffffffffffff\n      and\n      dup2\n      mstore\n      0x20\n      add\n      swap1\n      dup2\n      mstore\n      0x20\n      add\n      0x00\n      keccak256\n      sload\n        /* \"contracts/3b_many_owners.sol\":3459:3503  uint256 token_balance = balances[msg.sender] */\n      swap1\n      pop\n        /* \"contracts/3b_many_owners.sol\":3535:3548  token_balance */\n      dup1\n        /* \"contracts/3b_many_owners.sol\":3521:3531  num_tokens */\n      dup3\n        /* \"contracts/3b_many_owners.sol\":3521:3548  num_tokens <= token_balance */\n      gt\n      iszero\n        /* \"contracts/3b_many_owners.sol\":3513:3549  require(num_tokens <= token_balance) */\n      tag_113\n      jumpi\n      0x00\n      dup1\n      revert\n    tag_113:\n        /* \"contracts/3b_many_owners.sol\":3580:3581  0 */\n      0x00\n        /* \"contracts/3b_many_owners.sol\":3567:3577  num_tokens */\n      dup3\n        /* \"contracts/3b_many_owners.sol\":3567:3581  num_tokens > 0 */\n      gt\n        /* \"contracts/3b_many_owners.sol\":3559:3582  require(num_tokens > 0) */\n      tag_114\n      jumpi\n      0x00\n      dup1\n      revert\n    tag_114:\n        /* \"contracts/3b_many_owners.sol\":3616:3626  num_tokens */\n      dup2\n        /* \"contracts/3b_many_owners.sol\":3592:3600  balances */\n      0x06\n        /* \"contracts/3b_many_owners.sol\":3592:3612  balances[msg.sender] */\n      0x00\n        /* \"contracts/3b_many_owners.sol\":3601:3611  msg.sender */\n      caller\n        /* \"contracts/3b_many_owners.sol\":3592:3612  balances[msg.sender] */\n      0xffffffffffffffffffffffffffffffffffffffff\n      and\n      0xffffffffffffffffffffffffffffffffffffffff\n      and\n      dup2\n      mstore\n      0x20\n      add\n      swap1\n      dup2\n      mstore\n      0x20\n      add\n      0x00\n      keccak256\n      0x00\n        /* \"contracts/3b_many_owners.sol\":3592:3626  balances[msg.sender] -= num_tokens */\n      dup3\n      dup3\n      sload\n      tag_115\n      swap2\n      swap1\n      tag_116\n      jump\t// in\n    tag_115:\n      swap3\n      pop\n      pop\n      dup2\n      swap1\n      sstore\n      pop\n        /* \"contracts/3b_many_owners.sol\":3656:3666  num_tokens */\n      dup2\n        /* \"contracts/3b_many_owners.sol\":3636:3652  tokens_remaining */\n      0x05\n      0x00\n        /* \"contracts/3b_many_owners.sol\":3636:3666  tokens_remaining += num_tokens */\n      dup3\n      dup3\n      sload\n      tag_117\n      swap2\n      swap1\n      tag_118\n      jump\t// in\n    tag_117:\n      swap3\n      pop\n      pop\n      dup2\n      swap1\n      sstore\n      pop\n        /* \"contracts/3b_many_owners.sol\":3685:3695  msg.sender */\n      caller\n        /* \"contracts/3b_many_owners.sol\":3677:3705  payable(msg.sender).transfer */\n      0xffffffffffffffffffffffffffffffffffffffff\n      and\n        /* \"contracts/3b_many_owners.sol\":3677:3741  payable(msg.sender).transfer(num_tokens * compute_token_value()) */\n      0x08fc\n        /* \"contracts/3b_many_owners.sol\":3719:3740  compute_token_value() */\n      tag_119\n        /* \"contracts/3b_many_owners.sol\":3719:3738  compute_token_value */\n      tag_68\n        /* \"contracts/3b_many_owners.sol\":3719:3740  compute_token_value() */\n      jump\t// in\n    tag_119:\n        /* \"contracts/3b_many_owners.sol\":3706:3716  num_tokens */\n      dup5\n        /* \"contracts/3b_many_owners.sol\":3706:3740  num_tokens * compute_token_value() */\n      tag_120\n      swap2\n      swap1\n      tag_121\n      jump\t// in\n    tag_120:\n        /* \"contracts/3b_many_owners.sol\":3677:3741  payable(msg.sender).transfer(num_tokens * compute_token_value()) */\n      swap1\n      dup2\n      iszero\n      mul\n      swap1\n      mload(0x40)\n      0x00\n      mload(0x40)\n      dup1\n      dup4\n      sub\n      dup2\n      dup6\n      dup9\n      dup9\n      call\n      swap4\n      pop\n      pop\n      pop\n      pop\n      iszero\n      dup1\n      iszero\n      tag_123\n      jumpi\n      returndatasize\n      0x00\n      dup1\n      returndatacopy\n      revert(0x00, returndatasize)\n    tag_123:\n      pop\n        /* \"contracts/3b_many_owners.sol\":3449:3748  {... */\n      pop\n        /* \"contracts/3b_many_owners.sol\":3396:3748  function sellToken(uint256 num_tokens) public payable{... */\n      pop\n      jump\t// out\n        /* \"contracts/3b_many_owners.sol\":1102:1145  mapping(address => uint256) public balances */\n    tag_46:\n      mstore(0x20, 0x06)\n      dup1\n      0x00\n      mstore\n      keccak256(0x00, 0x40)\n      0x00\n      swap2\n      pop\n      swap1\n      pop\n      sload\n      dup2\n      jump\t// out\n        /* \"contracts/3b_many_owners.sol\":4093:4115  uint256 public version */\n    tag_50:\n      sload(0x08)\n      dup2\n      jump\t// out\n        /* \"contracts/3b_many_owners.sol\":1814:1902  function addOwner(address target) public onlyOwner{... */\n    tag_55:\n        /* \"contracts/3b_many_owners.sol\":1499:1505  owners */\n      0x00\n        /* \"contracts/3b_many_owners.sol\":1499:1517  owners[msg.sender] */\n      dup1\n        /* \"contracts/3b_many_owners.sol\":1506:1516  msg.sender */\n      caller\n        /* \"contracts/3b_many_owners.sol\":1499:1517  owners[msg.sender] */\n      0xffffffffffffffffffffffffffffffffffffffff\n      and\n      0xffffffffffffffffffffffffffffffffffffffff\n      and\n      dup2\n      mstore\n      0x20\n      add\n      swap1\n      dup2\n      mstore\n      0x20\n      add\n      0x00\n      keccak256\n      0x00\n      swap1\n      sload\n      swap1\n      0x0100\n      exp\n      swap1\n      div\n      0xff\n      and\n        /* \"contracts/3b_many_owners.sol\":1491:1532  require(owners[msg.sender], \"owner only\") */\n      tag_125\n      jumpi\n      mload(0x40)\n      0x08c379a000000000000000000000000000000000000000000000000000000000\n      dup2\n      mstore\n      0x04\n      add\n      tag_126\n      swap1\n      tag_106\n      jump\t// in\n    tag_126:\n      mload(0x40)\n      dup1\n      swap2\n      sub\n      swap1\n      revert\n    tag_125:\n        /* \"contracts/3b_many_owners.sol\":1891:1895  true */\n      0x01\n        /* \"contracts/3b_many_owners.sol\":1874:1880  owners */\n      0x00\n        /* \"contracts/3b_many_owners.sol\":1874:1888  owners[target] */\n      dup1\n        /* \"contracts/3b_many_owners.sol\":1881:1887  target */\n      dup4\n        /* \"contracts/3b_many_owners.sol\":1874:1888  owners[target] */\n      0xffffffffffffffffffffffffffffffffffffffff\n      and\n      0xffffffffffffffffffffffffffffffffffffffff\n      and\n      dup2\n      mstore\n      0x20\n      add\n      swap1\n      dup2\n      mstore\n      0x20\n      add\n      0x00\n      keccak256\n      0x00\n        /* \"contracts/3b_many_owners.sol\":1874:1895  owners[target] = true */\n      0x0100\n      exp\n      dup2\n      sload\n      dup2\n      0xff\n      mul\n      not\n      and\n      swap1\n      dup4\n      iszero\n      iszero\n      mul\n      or\n      swap1\n      sstore\n      pop\n        /* \"contracts/3b_many_owners.sol\":1814:1902  function addOwner(address target) public onlyOwner{... */\n      pop\n      jump\t// out\n        /* \"contracts/3b_many_owners.sol\":969:993  address[] public hodlers */\n    tag_59:\n      0x02\n      dup2\n      dup2\n      sload\n      dup2\n      lt\n      tag_128\n      jumpi\n      0x00\n      dup1\n      revert\n    tag_128:\n      swap1\n      0x00\n      mstore\n      keccak256(0x00, 0x20)\n      add\n      0x00\n      swap2\n      pop\n      sload\n      swap1\n      0x0100\n      exp\n      swap1\n      div\n      0xffffffffffffffffffffffffffffffffffffffff\n      and\n      dup2\n      jump\t// out\n        /* \"contracts/3b_many_owners.sol\":1064:1095  uint256 public tokens_remaining */\n    tag_64:\n      sload(0x05)\n      dup2\n      jump\t// out\n        /* \"contracts/3b_many_owners.sol\":2567:2676  function compute_token_value() public pure virtual returns(uint256)... */\n    tag_68:\n        /* \"contracts/3b_many_owners.sol\":2626:2633  uint256 */\n      0x00\n        /* \"contracts/3b_many_owners.sol\":2656:2669  1000000000000 */\n      0xe8d4a51000\n        /* \"contracts/3b_many_owners.sol\":2649:2669  return 1000000000000 */\n      swap1\n      pop\n        /* \"contracts/3b_many_owners.sol\":2567:2676  function compute_token_value() public pure virtual returns(uint256)... */\n      swap1\n      jump\t// out\n        /* \"contracts/3b_many_owners.sol\":4067:4087  string public symbol */\n    tag_72:\n      0x07\n      dup1\n      sload\n      tag_131\n      swap1\n      tag_132\n      jump\t// in\n    tag_131:\n      dup1\n      0x1f\n      add\n      0x20\n      dup1\n      swap2\n      div\n      mul\n      0x20\n      add\n      mload(0x40)\n      swap1\n      dup2\n      add\n      0x40\n      mstore\n      dup1\n      swap3\n      swap2\n      swap1\n      dup2\n      dup2\n      mstore\n      0x20\n      add\n      dup3\n      dup1\n      sload\n      tag_133\n      swap1\n      tag_132\n      jump\t// in\n    tag_133:\n      dup1\n      iszero\n      tag_134\n      jumpi\n      dup1\n      0x1f\n      lt\n      tag_135\n      jumpi\n      0x0100\n      dup1\n      dup4\n      sload\n      div\n      mul\n      dup4\n      mstore\n      swap2\n      0x20\n      add\n      swap2\n      jump(tag_134)\n    tag_135:\n      dup3\n      add\n      swap2\n      swap1\n      0x00\n      mstore\n      keccak256(0x00, 0x20)\n      swap1\n    tag_136:\n      dup2\n      sload\n      dup2\n      mstore\n      swap1\n      0x01\n      add\n      swap1\n      0x20\n      add\n      dup1\n      dup4\n      gt\n      tag_136\n      jumpi\n      dup3\n      swap1\n      sub\n      0x1f\n      and\n      dup3\n      add\n      swap2\n    tag_134:\n      pop\n      pop\n      pop\n      pop\n      pop\n      dup2\n      jump\t// out\n        /* \"contracts/3b_many_owners.sol\":2182:2304  function mint(uint256 amount) public onlyOwner {... */\n    tag_78:\n        /* \"contracts/3b_many_owners.sol\":1499:1505  owners */\n      0x00\n        /* \"contracts/3b_many_owners.sol\":1499:1517  owners[msg.sender] */\n      dup1\n        /* \"contracts/3b_many_owners.sol\":1506:1516  msg.sender */\n      caller\n        /* \"contracts/3b_many_owners.sol\":1499:1517  owners[msg.sender] */\n      0xffffffffffffffffffffffffffffffffffffffff\n      and\n      0xffffffffffffffffffffffffffffffffffffffff\n      and\n      dup2\n      mstore\n      0x20\n      add\n      swap1\n      dup2\n      mstore\n      0x20\n      add\n      0x00\n      keccak256\n      0x00\n      swap1\n      sload\n      swap1\n      0x0100\n      exp\n      swap1\n      div\n      0xff\n      and\n        /* \"contracts/3b_many_owners.sol\":1491:1532  require(owners[msg.sender], \"owner only\") */\n      tag_138\n      jumpi\n      mload(0x40)\n      0x08c379a000000000000000000000000000000000000000000000000000000000\n      dup2\n      mstore\n      0x04\n      add\n      tag_139\n      swap1\n      tag_106\n      jump\t// in\n    tag_139:\n      mload(0x40)\n      dup1\n      swap2\n      sub\n      swap1\n      revert\n    tag_138:\n        /* \"contracts/3b_many_owners.sol\":2255:2261  amount */\n      dup1\n        /* \"contracts/3b_many_owners.sol\":2239:2251  total_tokens */\n      0x04\n      0x00\n        /* \"contracts/3b_many_owners.sol\":2239:2261  total_tokens += amount */\n      dup3\n      dup3\n      sload\n      tag_141\n      swap2\n      swap1\n      tag_118\n      jump\t// in\n    tag_141:\n      swap3\n      pop\n      pop\n      dup2\n      swap1\n      sstore\n      pop\n        /* \"contracts/3b_many_owners.sol\":2291:2297  amount */\n      dup1\n        /* \"contracts/3b_many_owners.sol\":2271:2287  tokens_remaining */\n      0x05\n      0x00\n        /* \"contracts/3b_many_owners.sol\":2271:2297  tokens_remaining += amount */\n      dup3\n      dup3\n      sload\n      tag_142\n      swap2\n      swap1\n      tag_118\n      jump\t// in\n    tag_142:\n      swap3\n      pop\n      pop\n      dup2\n      swap1\n      sstore\n      pop\n        /* \"contracts/3b_many_owners.sol\":2182:2304  function mint(uint256 amount) public onlyOwner {... */\n      pop\n      jump\t// out\n        /* \"contracts/3b_many_owners.sol\":2682:3389  function buyToken() public payable {... */\n    tag_80:\n        /* \"contracts/3b_many_owners.sol\":2727:2746  uint256 token_value */\n      0x00\n        /* \"contracts/3b_many_owners.sol\":2749:2770  compute_token_value() */\n      tag_144\n        /* \"contracts/3b_many_owners.sol\":2749:2768  compute_token_value */\n      tag_68\n        /* \"contracts/3b_many_owners.sol\":2749:2770  compute_token_value() */\n      jump\t// in\n    tag_144:\n        /* \"contracts/3b_many_owners.sol\":2727:2770  uint256 token_value = compute_token_value() */\n      swap1\n      pop\n        /* \"contracts/3b_many_owners.sol\":2780:2798  uint256 num_tokens */\n      0x00\n        /* \"contracts/3b_many_owners.sol\":2801:2836  Math.divide(msg.value, token_value) */\n      tag_145\n        /* \"contracts/3b_many_owners.sol\":2813:2822  msg.value */\n      callvalue\n        /* \"contracts/3b_many_owners.sol\":2824:2835  token_value */\n      dup4\n        /* \"contracts/3b_many_owners.sol\":2801:2812  Math.divide */\n      tag_146\n        /* \"contracts/3b_many_owners.sol\":2801:2836  Math.divide(msg.value, token_value) */\n      jump\t// in\n    tag_145:\n        /* \"contracts/3b_many_owners.sol\":2780:2836  uint256 num_tokens = Math.divide(msg.value, token_value) */\n      swap1\n      pop\n        /* \"contracts/3b_many_owners.sol\":2868:2869  0 */\n      0x00\n        /* \"contracts/3b_many_owners.sol\":2855:2865  num_tokens */\n      dup2\n        /* \"contracts/3b_many_owners.sol\":2855:2869  num_tokens > 0 */\n      gt\n        /* \"contracts/3b_many_owners.sol\":2847:2870  require(num_tokens > 0) */\n      tag_147\n      jumpi\n      0x00\n      dup1\n      revert\n    tag_147:\n        /* \"contracts/3b_many_owners.sol\":2899:2915  tokens_remaining */\n      sload(0x05)\n        /* \"contracts/3b_many_owners.sol\":2885:2895  num_tokens */\n      dup2\n        /* \"contracts/3b_many_owners.sol\":2885:2915  num_tokens >= tokens_remaining */\n      lt\n        /* \"contracts/3b_many_owners.sol\":2881:3026  if (num_tokens >= tokens_remaining){... */\n      tag_148\n      jumpi\n        /* \"contracts/3b_many_owners.sol\":2943:2959  tokens_remaining */\n      sload(0x05)\n        /* \"contracts/3b_many_owners.sol\":2930:2959  num_tokens = tokens_remaining */\n      swap1\n      pop\n        /* \"contracts/3b_many_owners.sol\":2979:3015  MessageLog(\"You bought everything!\") */\n      0xded73d9b7994988fc49241f75c8f6577ad0070900ff55ffe76e498cf7e03bef4\n      mload(0x40)\n      tag_149\n      swap1\n      tag_150\n      jump\t// in\n    tag_149:\n      mload(0x40)\n      dup1\n      swap2\n      sub\n      swap1\n      log1\n        /* \"contracts/3b_many_owners.sol\":2881:3026  if (num_tokens >= tokens_remaining){... */\n    tag_148:\n        /* \"contracts/3b_many_owners.sol\":3036:3048  uint256 cost */\n      0x00\n        /* \"contracts/3b_many_owners.sol\":3065:3075  num_tokens */\n      dup2\n        /* \"contracts/3b_many_owners.sol\":3051:3062  token_value */\n      dup4\n        /* \"contracts/3b_many_owners.sol\":3051:3075  token_value * num_tokens */\n      tag_151\n      swap2\n      swap1\n      tag_121\n      jump\t// in\n    tag_151:\n        /* \"contracts/3b_many_owners.sol\":3036:3075  uint256 cost = token_value * num_tokens */\n      swap1\n      pop\n        /* \"contracts/3b_many_owners.sol\":3085:3099  uint256 change */\n      0x00\n        /* \"contracts/3b_many_owners.sol\":3123:3127  cost */\n      dup2\n        /* \"contracts/3b_many_owners.sol\":3111:3120  msg.value */\n      callvalue\n        /* \"contracts/3b_many_owners.sol\":3111:3127  msg.value - cost */\n      tag_152\n      swap2\n      swap1\n      tag_116\n      jump\t// in\n    tag_152:\n        /* \"contracts/3b_many_owners.sol\":3085:3129  uint256 change = uint256((msg.value - cost)) */\n      swap1\n      pop\n        /* \"contracts/3b_many_owners.sol\":3210:3220  msg.sender */\n      caller\n        /* \"contracts/3b_many_owners.sol\":3202:3230  payable(msg.sender).transfer */\n      0xffffffffffffffffffffffffffffffffffffffff\n      and\n        /* \"contracts/3b_many_owners.sol\":3202:3238  payable(msg.sender).transfer(change) */\n      0x08fc\n        /* \"contracts/3b_many_owners.sol\":3231:3237  change */\n      dup3\n        /* \"contracts/3b_many_owners.sol\":3202:3238  payable(msg.sender).transfer(change) */\n      swap1\n      dup2\n      iszero\n      mul\n      swap1\n      mload(0x40)\n      0x00\n      mload(0x40)\n      dup1\n      dup4\n      sub\n      dup2\n      dup6\n      dup9\n      dup9\n      call\n      swap4\n      pop\n      pop\n      pop\n      pop\n      iszero\n      dup1\n      iszero\n      tag_154\n      jumpi\n      returndatasize\n      0x00\n      dup1\n      returndatacopy\n      revert(0x00, returndatasize)\n    tag_154:\n      pop\n        /* \"contracts/3b_many_owners.sol\":3273:3283  num_tokens */\n      dup3\n        /* \"contracts/3b_many_owners.sol\":3249:3257  balances */\n      0x06\n        /* \"contracts/3b_many_owners.sol\":3249:3269  balances[msg.sender] */\n      0x00\n        /* \"contracts/3b_many_owners.sol\":3258:3268  msg.sender */\n      caller\n        /* \"contracts/3b_many_owners.sol\":3249:3269  balances[msg.sender] */\n      0xffffffffffffffffffffffffffffffffffffffff\n      and\n      0xffffffffffffffffffffffffffffffffffffffff\n      and\n      dup2\n      mstore\n      0x20\n      add\n      swap1\n      dup2\n      mstore\n      0x20\n      add\n      0x00\n      keccak256\n      0x00\n        /* \"contracts/3b_many_owners.sol\":3249:3283  balances[msg.sender] += num_tokens */\n      dup3\n      dup3\n      sload\n      tag_155\n      swap2\n      swap1\n      tag_118\n      jump\t// in\n    tag_155:\n      swap3\n      pop\n      pop\n      dup2\n      swap1\n      sstore\n      pop\n        /* \"contracts/3b_many_owners.sol\":3313:3323  num_tokens */\n      dup3\n        /* \"contracts/3b_many_owners.sol\":3293:3309  tokens_remaining */\n      0x05\n      0x00\n        /* \"contracts/3b_many_owners.sol\":3293:3323  tokens_remaining -= num_tokens */\n      dup3\n      dup3\n      sload\n      tag_156\n      swap2\n      swap1\n      tag_116\n      jump\t// in\n    tag_156:\n      swap3\n      pop\n      pop\n      dup2\n      swap1\n      sstore\n      pop\n        /* \"contracts/3b_many_owners.sol\":3334:3345  hodlerCount */\n      0x03\n      0x00\n        /* \"contracts/3b_many_owners.sol\":3334:3348  hodlerCount ++ */\n      dup2\n      sload\n      dup1\n      swap3\n      swap2\n      swap1\n      tag_157\n      swap1\n      tag_158\n      jump\t// in\n    tag_157:\n      swap2\n      swap1\n      pop\n      sstore\n      pop\n        /* \"contracts/3b_many_owners.sol\":3358:3365  hodlers */\n      0x02\n        /* \"contracts/3b_many_owners.sol\":3371:3381  msg.sender */\n      caller\n        /* \"contracts/3b_many_owners.sol\":3358:3382  hodlers.push(msg.sender) */\n      swap1\n      dup1\n      0x01\n      dup2\n      sload\n      add\n      dup1\n      dup3\n      sstore\n      dup1\n      swap2\n      pop\n      pop\n      0x01\n      swap1\n      sub\n      swap1\n      0x00\n      mstore\n      keccak256(0x00, 0x20)\n      add\n      0x00\n      swap1\n      swap2\n      swap1\n      swap2\n      swap1\n      swap2\n      0x0100\n      exp\n      dup2\n      sload\n      dup2\n      0xffffffffffffffffffffffffffffffffffffffff\n      mul\n      not\n      and\n      swap1\n      dup4\n      0xffffffffffffffffffffffffffffffffffffffff\n      and\n      mul\n      or\n      swap1\n      sstore\n      pop\n        /* \"contracts/3b_many_owners.sol\":2717:3389  {... */\n      pop\n      pop\n      pop\n      pop\n        /* \"contracts/3b_many_owners.sol\":2682:3389  function buyToken() public payable {... */\n      jump\t// out\n        /* \"contracts/3b_many_owners.sol\":1031:1058  uint256 public total_tokens */\n    tag_83:\n      sload(0x04)\n      dup2\n      jump\t// out\n        /* \"contracts/3b_many_owners.sol\":2076:2176  function deleteOwner(address target) public onlyOriginalOwner{... */\n    tag_88:\n        /* \"contracts/3b_many_owners.sol\":1619:1629  msg.sender */\n      caller\n        /* \"contracts/3b_many_owners.sol\":1602:1629  originalOwner == msg.sender */\n      0xffffffffffffffffffffffffffffffffffffffff\n      and\n        /* \"contracts/3b_many_owners.sol\":1602:1615  originalOwner */\n      0x01\n      0x00\n      swap1\n      sload\n      swap1\n      0x0100\n      exp\n      swap1\n      div\n      0xffffffffffffffffffffffffffffffffffffffff\n      and\n        /* \"contracts/3b_many_owners.sol\":1602:1629  originalOwner == msg.sender */\n      0xffffffffffffffffffffffffffffffffffffffff\n      and\n      eq\n        /* \"contracts/3b_many_owners.sol\":1594:1647  require(originalOwner == msg.sender, \"og owner only\") */\n      tag_161\n      jumpi\n      mload(0x40)\n      0x08c379a000000000000000000000000000000000000000000000000000000000\n      dup2\n      mstore\n      0x04\n      add\n      tag_162\n      swap1\n      tag_163\n      jump\t// in\n    tag_162:\n      mload(0x40)\n      dup1\n      swap2\n      sub\n      swap1\n      revert\n    tag_161:\n        /* \"contracts/3b_many_owners.sol\":2164:2169  false */\n      0x00\n        /* \"contracts/3b_many_owners.sol\":2147:2153  owners */\n      dup1\n        /* \"contracts/3b_many_owners.sol\":2147:2161  owners[target] */\n      0x00\n        /* \"contracts/3b_many_owners.sol\":2154:2160  target */\n      dup4\n        /* \"contracts/3b_many_owners.sol\":2147:2161  owners[target] */\n      0xffffffffffffffffffffffffffffffffffffffff\n      and\n      0xffffffffffffffffffffffffffffffffffffffff\n      and\n      dup2\n      mstore\n      0x20\n      add\n      swap1\n      dup2\n      mstore\n      0x20\n      add\n      0x00\n      keccak256\n      0x00\n        /* \"contracts/3b_many_owners.sol\":2147:2169  owners[target] = false */\n      0x0100\n      exp\n      dup2\n      sload\n      dup2\n      0xff\n      mul\n      not\n      and\n      swap1\n      dup4\n      iszero\n      iszero\n      mul\n      or\n      swap1\n      sstore\n      pop\n        /* \"contracts/3b_many_owners.sol\":2076:2176  function deleteOwner(address target) public onlyOriginalOwner{... */\n      pop\n      jump\t// out\n        /* \"contracts/3b_many_owners.sol\":3754:3993  function send(address wallet, uint256 amount) public {... */\n    tag_93:\n        /* \"contracts/3b_many_owners.sol\":3835:3843  balances */\n      0x06\n        /* \"contracts/3b_many_owners.sol\":3835:3855  balances[msg.sender] */\n      0x00\n        /* \"contracts/3b_many_owners.sol\":3844:3854  msg.sender */\n      caller\n        /* \"contracts/3b_many_owners.sol\":3835:3855  balances[msg.sender] */\n      0xffffffffffffffffffffffffffffffffffffffff\n      and\n      0xffffffffffffffffffffffffffffffffffffffff\n      and\n      dup2\n      mstore\n      0x20\n      add\n      swap1\n      dup2\n      mstore\n      0x20\n      add\n      0x00\n      keccak256\n      sload\n        /* \"contracts/3b_many_owners.sol\":3825:3831  amount */\n      dup2\n        /* \"contracts/3b_many_owners.sol\":3825:3855  amount <= balances[msg.sender] */\n      gt\n      iszero\n        /* \"contracts/3b_many_owners.sol\":3817:3856  require(amount <= balances[msg.sender]) */\n      tag_166\n      jumpi\n      0x00\n      dup1\n      revert\n    tag_166:\n        /* \"contracts/3b_many_owners.sol\":3890:3896  amount */\n      dup1\n        /* \"contracts/3b_many_owners.sol\":3866:3874  balances */\n      0x06\n        /* \"contracts/3b_many_owners.sol\":3866:3886  balances[msg.sender] */\n      0x00\n        /* \"contracts/3b_many_owners.sol\":3875:3885  msg.sender */\n      caller\n        /* \"contracts/3b_many_owners.sol\":3866:3886  balances[msg.sender] */\n      0xffffffffffffffffffffffffffffffffffffffff\n      and\n      0xffffffffffffffffffffffffffffffffffffffff\n      and\n      dup2\n      mstore\n      0x20\n      add\n      swap1\n      dup2\n      mstore\n      0x20\n      add\n      0x00\n      keccak256\n      0x00\n        /* \"contracts/3b_many_owners.sol\":3866:3896  balances[msg.sender] -= amount */\n      dup3\n      dup3\n      sload\n      tag_167\n      swap2\n      swap1\n      tag_116\n      jump\t// in\n    tag_167:\n      swap3\n      pop\n      pop\n      dup2\n      swap1\n      sstore\n      pop\n        /* \"contracts/3b_many_owners.sol\":3926:3932  amount */\n      dup1\n        /* \"contracts/3b_many_owners.sol\":3906:3914  balances */\n      0x06\n        /* \"contracts/3b_many_owners.sol\":3906:3922  balances[wallet] */\n      0x00\n        /* \"contracts/3b_many_owners.sol\":3915:3921  wallet */\n      dup5\n        /* \"contracts/3b_many_owners.sol\":3906:3922  balances[wallet] */\n      0xffffffffffffffffffffffffffffffffffffffff\n      and\n      0xffffffffffffffffffffffffffffffffffffffff\n      and\n      dup2\n      mstore\n      0x20\n      add\n      swap1\n      dup2\n      mstore\n      0x20\n      add\n      0x00\n      keccak256\n      0x00\n        /* \"contracts/3b_many_owners.sol\":3906:3932  balances[wallet] += amount */\n      dup3\n      dup3\n      sload\n      tag_168\n      swap2\n      swap1\n      tag_118\n      jump\t// in\n    tag_168:\n      swap3\n      pop\n      pop\n      dup2\n      swap1\n      sstore\n      pop\n        /* \"contracts/3b_many_owners.sol\":3942:3953  hodlerCount */\n      0x03\n      0x00\n        /* \"contracts/3b_many_owners.sol\":3942:3956  hodlerCount ++ */\n      dup2\n      sload\n      dup1\n      swap3\n      swap2\n      swap1\n      tag_169\n      swap1\n      tag_158\n      jump\t// in\n    tag_169:\n      swap2\n      swap1\n      pop\n      sstore\n      pop\n        /* \"contracts/3b_many_owners.sol\":3966:3973  hodlers */\n      0x02\n        /* \"contracts/3b_many_owners.sol\":3979:3985  wallet */\n      dup3\n        /* \"contracts/3b_many_owners.sol\":3966:3986  hodlers.push(wallet) */\n      swap1\n      dup1\n      0x01\n      dup2\n      sload\n      add\n      dup1\n      dup3\n      sstore\n      dup1\n      swap2\n      pop\n      pop\n      0x01\n      swap1\n      sub\n      swap1\n      0x00\n      mstore\n      keccak256(0x00, 0x20)\n      add\n      0x00\n      swap1\n      swap2\n      swap1\n      swap2\n      swap1\n      swap2\n      0x0100\n      exp\n      dup2\n      sload\n      dup2\n      0xffffffffffffffffffffffffffffffffffffffff\n      mul\n      not\n      and\n      swap1\n      dup4\n      0xffffffffffffffffffffffffffffffffffffffff\n      and\n      mul\n      or\n      swap1\n      sstore\n      pop\n        /* \"contracts/3b_many_owners.sol\":3754:3993  function send(address wallet, uint256 amount) public {... */\n      pop\n      pop\n      jump\t// out\n        /* \"contracts/3b_many_owners.sol\":934:962  address public originalOwner */\n    tag_96:\n      0x01\n      0x00\n      swap1\n      sload\n      swap1\n      0x0100\n      exp\n      swap1\n      div\n      0xffffffffffffffffffffffffffffffffffffffff\n      and\n      dup2\n      jump\t// out\n        /* \"contracts/3b_many_owners.sol\":999:1025  uint256 public hodlerCount */\n    tag_100:\n      sload(0x03)\n      dup2\n      jump\t// out\n        /* \"contracts/Math.sol\":76:231  function divide(uint256 a, uint256 b) internal pure returns (uint256) {... */\n    tag_146:\n        /* \"contracts/Math.sol\":137:144  uint256 */\n      0x00\n        /* \"contracts/Math.sol\":168:169  0 */\n      dup1\n        /* \"contracts/Math.sol\":164:165  b */\n      dup3\n        /* \"contracts/Math.sol\":164:169  b > 0 */\n      gt\n        /* \"contracts/Math.sol\":156:170  require(b > 0) */\n      tag_172\n      jumpi\n      0x00\n      dup1\n      revert\n    tag_172:\n        /* \"contracts/Math.sol\":180:189  uint256 c */\n      0x00\n        /* \"contracts/Math.sol\":194:195  b */\n      dup3\n        /* \"contracts/Math.sol\":192:193  a */\n      dup5\n        /* \"contracts/Math.sol\":192:195  a/b */\n      tag_173\n      swap2\n      swap1\n      tag_174\n      jump\t// in\n    tag_173:\n        /* \"contracts/Math.sol\":180:195  uint256 c = a/b */\n      swap1\n      pop\n        /* \"contracts/Math.sol\":212:213  c */\n      dup1\n        /* \"contracts/Math.sol\":205:213  return c */\n      swap2\n      pop\n      pop\n        /* \"contracts/Math.sol\":76:231  function divide(uint256 a, uint256 b) internal pure returns (uint256) {... */\n      swap3\n      swap2\n      pop\n      pop\n      jump\t// out\n        /* \"#utility.yul\":88:205   */\n    tag_176:\n        /* \"#utility.yul\":197:198   */\n      0x00\n        /* \"#utility.yul\":194:195   */\n      dup1\n        /* \"#utility.yul\":187:199   */\n      revert\n        /* \"#utility.yul\":334:460   */\n    tag_178:\n        /* \"#utility.yul\":371:378   */\n      0x00\n        /* \"#utility.yul\":411:453   */\n      0xffffffffffffffffffffffffffffffffffffffff\n        /* \"#utility.yul\":404:409   */\n      dup3\n        /* \"#utility.yul\":400:454   */\n      and\n        /* \"#utility.yul\":389:454   */\n      swap1\n      pop\n        /* \"#utility.yul\":334:460   */\n      swap2\n      swap1\n      pop\n      jump\t// out\n        /* \"#utility.yul\":466:562   */\n    tag_179:\n        /* \"#utility.yul\":503:510   */\n      0x00\n        /* \"#utility.yul\":532:556   */\n      tag_212\n        /* \"#utility.yul\":550:555   */\n      dup3\n        /* \"#utility.yul\":532:556   */\n      tag_178\n      jump\t// in\n    tag_212:\n        /* \"#utility.yul\":521:556   */\n      swap1\n      pop\n        /* \"#utility.yul\":466:562   */\n      swap2\n      swap1\n      pop\n      jump\t// out\n        /* \"#utility.yul\":568:690   */\n    tag_180:\n        /* \"#utility.yul\":641:665   */\n      tag_214\n        /* \"#utility.yul\":659:664   */\n      dup2\n        /* \"#utility.yul\":641:665   */\n      tag_179\n      jump\t// in\n    tag_214:\n        /* \"#utility.yul\":634:639   */\n      dup2\n        /* \"#utility.yul\":631:666   */\n      eq\n        /* \"#utility.yul\":621:684   */\n      tag_215\n      jumpi\n        /* \"#utility.yul\":680:681   */\n      0x00\n        /* \"#utility.yul\":677:678   */\n      dup1\n        /* \"#utility.yul\":670:682   */\n      revert\n        /* \"#utility.yul\":621:684   */\n    tag_215:\n        /* \"#utility.yul\":568:690   */\n      pop\n      jump\t// out\n        /* \"#utility.yul\":696:835   */\n    tag_181:\n        /* \"#utility.yul\":742:747   */\n      0x00\n        /* \"#utility.yul\":780:786   */\n      dup2\n        /* \"#utility.yul\":767:787   */\n      calldataload\n        /* \"#utility.yul\":758:787   */\n      swap1\n      pop\n        /* \"#utility.yul\":796:829   */\n      tag_217\n        /* \"#utility.yul\":823:828   */\n      dup2\n        /* \"#utility.yul\":796:829   */\n      tag_180\n      jump\t// in\n    tag_217:\n        /* \"#utility.yul\":696:835   */\n      swap3\n      swap2\n      pop\n      pop\n      jump\t// out\n        /* \"#utility.yul\":841:1170   */\n    tag_26:\n        /* \"#utility.yul\":900:906   */\n      0x00\n        /* \"#utility.yul\":949:951   */\n      0x20\n        /* \"#utility.yul\":937:946   */\n      dup3\n        /* \"#utility.yul\":928:935   */\n      dup5\n        /* \"#utility.yul\":924:947   */\n      sub\n        /* \"#utility.yul\":920:952   */\n      slt\n        /* \"#utility.yul\":917:1036   */\n      iszero\n      tag_219\n      jumpi\n        /* \"#utility.yul\":955:1034   */\n      tag_220\n      tag_176\n      jump\t// in\n    tag_220:\n        /* \"#utility.yul\":917:1036   */\n    tag_219:\n        /* \"#utility.yul\":1075:1076   */\n      0x00\n        /* \"#utility.yul\":1100:1153   */\n      tag_221\n        /* \"#utility.yul\":1145:1152   */\n      dup5\n        /* \"#utility.yul\":1136:1142   */\n      dup3\n        /* \"#utility.yul\":1125:1134   */\n      dup6\n        /* \"#utility.yul\":1121:1143   */\n      add\n        /* \"#utility.yul\":1100:1153   */\n      tag_181\n      jump\t// in\n    tag_221:\n        /* \"#utility.yul\":1090:1153   */\n      swap2\n      pop\n        /* \"#utility.yul\":1046:1163   */\n      pop\n        /* \"#utility.yul\":841:1170   */\n      swap3\n      swap2\n      pop\n      pop\n      jump\t// out\n        /* \"#utility.yul\":1176:1266   */\n    tag_182:\n        /* \"#utility.yul\":1210:1217   */\n      0x00\n        /* \"#utility.yul\":1253:1258   */\n      dup2\n        /* \"#utility.yul\":1246:1259   */\n      iszero\n        /* \"#utility.yul\":1239:1260   */\n      iszero\n        /* \"#utility.yul\":1228:1260   */\n      swap1\n      pop\n        /* \"#utility.yul\":1176:1266   */\n      swap2\n      swap1\n      pop\n      jump\t// out\n        /* \"#utility.yul\":1272:1381   */\n    tag_183:\n        /* \"#utility.yul\":1353:1374   */\n      tag_224\n        /* \"#utility.yul\":1368:1373   */\n      dup2\n        /* \"#utility.yul\":1353:1374   */\n      tag_182\n      jump\t// in\n    tag_224:\n        /* \"#utility.yul\":1348:1351   */\n      dup3\n        /* \"#utility.yul\":1341:1375   */\n      mstore\n        /* \"#utility.yul\":1272:1381   */\n      pop\n      pop\n      jump\t// out\n        /* \"#utility.yul\":1387:1597   */\n    tag_29:\n        /* \"#utility.yul\":1474:1478   */\n      0x00\n        /* \"#utility.yul\":1512:1514   */\n      0x20\n        /* \"#utility.yul\":1501:1510   */\n      dup3\n        /* \"#utility.yul\":1497:1515   */\n      add\n        /* \"#utility.yul\":1489:1515   */\n      swap1\n      pop\n        /* \"#utility.yul\":1525:1590   */\n      tag_226\n        /* \"#utility.yul\":1587:1588   */\n      0x00\n        /* \"#utility.yul\":1576:1585   */\n      dup4\n        /* \"#utility.yul\":1572:1589   */\n      add\n        /* \"#utility.yul\":1563:1569   */\n      dup5\n        /* \"#utility.yul\":1525:1590   */\n      tag_183\n      jump\t// in\n    tag_226:\n        /* \"#utility.yul\":1387:1597   */\n      swap3\n      swap2\n      pop\n      pop\n      jump\t// out\n        /* \"#utility.yul\":1603:1680   */\n    tag_184:\n        /* \"#utility.yul\":1640:1647   */\n      0x00\n        /* \"#utility.yul\":1669:1674   */\n      dup2\n        /* \"#utility.yul\":1658:1674   */\n      swap1\n      pop\n        /* \"#utility.yul\":1603:1680   */\n      swap2\n      swap1\n      pop\n      jump\t// out\n        /* \"#utility.yul\":1686:1804   */\n    tag_185:\n        /* \"#utility.yul\":1773:1797   */\n      tag_229\n        /* \"#utility.yul\":1791:1796   */\n      dup2\n        /* \"#utility.yul\":1773:1797   */\n      tag_184\n      jump\t// in\n    tag_229:\n        /* \"#utility.yul\":1768:1771   */\n      dup3\n        /* \"#utility.yul\":1761:1798   */\n      mstore\n        /* \"#utility.yul\":1686:1804   */\n      pop\n      pop\n      jump\t// out\n        /* \"#utility.yul\":1810:2032   */\n    tag_34:\n        /* \"#utility.yul\":1903:1907   */\n      0x00\n        /* \"#utility.yul\":1941:1943   */\n      0x20\n        /* \"#utility.yul\":1930:1939   */\n      dup3\n        /* \"#utility.yul\":1926:1944   */\n      add\n        /* \"#utility.yul\":1918:1944   */\n      swap1\n      pop\n        /* \"#utility.yul\":1954:2025   */\n      tag_231\n        /* \"#utility.yul\":2022:2023   */\n      0x00\n        /* \"#utility.yul\":2011:2020   */\n      dup4\n        /* \"#utility.yul\":2007:2024   */\n      add\n        /* \"#utility.yul\":1998:2004   */\n      dup5\n        /* \"#utility.yul\":1954:2025   */\n      tag_185\n      jump\t// in\n    tag_231:\n        /* \"#utility.yul\":1810:2032   */\n      swap3\n      swap2\n      pop\n      pop\n      jump\t// out\n        /* \"#utility.yul\":2038:2142   */\n    tag_186:\n        /* \"#utility.yul\":2083:2090   */\n      0x00\n        /* \"#utility.yul\":2112:2136   */\n      tag_233\n        /* \"#utility.yul\":2130:2135   */\n      dup3\n        /* \"#utility.yul\":2112:2136   */\n      tag_178\n      jump\t// in\n    tag_233:\n        /* \"#utility.yul\":2101:2136   */\n      swap1\n      pop\n        /* \"#utility.yul\":2038:2142   */\n      swap2\n      swap1\n      pop\n      jump\t// out\n        /* \"#utility.yul\":2148:2286   */\n    tag_187:\n        /* \"#utility.yul\":2229:2261   */\n      tag_235\n        /* \"#utility.yul\":2255:2260   */\n      dup2\n        /* \"#utility.yul\":2229:2261   */\n      tag_186\n      jump\t// in\n    tag_235:\n        /* \"#utility.yul\":2222:2227   */\n      dup2\n        /* \"#utility.yul\":2219:2262   */\n      eq\n        /* \"#utility.yul\":2209:2280   */\n      tag_236\n      jumpi\n        /* \"#utility.yul\":2276:2277   */\n      0x00\n        /* \"#utility.yul\":2273:2274   */\n      dup1\n        /* \"#utility.yul\":2266:2278   */\n      revert\n        /* \"#utility.yul\":2209:2280   */\n    tag_236:\n        /* \"#utility.yul\":2148:2286   */\n      pop\n      jump\t// out\n        /* \"#utility.yul\":2292:2447   */\n    tag_188:\n        /* \"#utility.yul\":2346:2351   */\n      0x00\n        /* \"#utility.yul\":2384:2390   */\n      dup2\n        /* \"#utility.yul\":2371:2391   */\n      calldataload\n        /* \"#utility.yul\":2362:2391   */\n      swap1\n      pop\n        /* \"#utility.yul\":2400:2441   */\n      tag_238\n        /* \"#utility.yul\":2435:2440   */\n      dup2\n        /* \"#utility.yul\":2400:2441   */\n      tag_187\n      jump\t// in\n    tag_238:\n        /* \"#utility.yul\":2292:2447   */\n      swap3\n      swap2\n      pop\n      pop\n      jump\t// out\n        /* \"#utility.yul\":2453:2798   */\n    tag_37:\n        /* \"#utility.yul\":2520:2526   */\n      0x00\n        /* \"#utility.yul\":2569:2571   */\n      0x20\n        /* \"#utility.yul\":2557:2566   */\n      dup3\n        /* \"#utility.yul\":2548:2555   */\n      dup5\n        /* \"#utility.yul\":2544:2567   */\n      sub\n        /* \"#utility.yul\":2540:2572   */\n      slt\n        /* \"#utility.yul\":2537:2656   */\n      iszero\n      tag_240\n      jumpi\n        /* \"#utility.yul\":2575:2654   */\n      tag_241\n      tag_176\n      jump\t// in\n    tag_241:\n        /* \"#utility.yul\":2537:2656   */\n    tag_240:\n        /* \"#utility.yul\":2695:2696   */\n      0x00\n        /* \"#utility.yul\":2720:2781   */\n      tag_242\n        /* \"#utility.yul\":2773:2780   */\n      dup5\n        /* \"#utility.yul\":2764:2770   */\n      dup3\n        /* \"#utility.yul\":2753:2762   */\n      dup6\n        /* \"#utility.yul\":2749:2771   */\n      add\n        /* \"#utility.yul\":2720:2781   */\n      tag_188\n      jump\t// in\n    tag_242:\n        /* \"#utility.yul\":2710:2781   */\n      swap2\n      pop\n        /* \"#utility.yul\":2666:2791   */\n      pop\n        /* \"#utility.yul\":2453:2798   */\n      swap3\n      swap2\n      pop\n      pop\n      jump\t// out\n        /* \"#utility.yul\":2804:2926   */\n    tag_189:\n        /* \"#utility.yul\":2877:2901   */\n      tag_244\n        /* \"#utility.yul\":2895:2900   */\n      dup2\n        /* \"#utility.yul\":2877:2901   */\n      tag_184\n      jump\t// in\n    tag_244:\n        /* \"#utility.yul\":2870:2875   */\n      dup2\n        /* \"#utility.yul\":2867:2902   */\n      eq\n        /* \"#utility.yul\":2857:2920   */\n      tag_245\n      jumpi\n        /* \"#utility.yul\":2916:2917   */\n      0x00\n        /* \"#utility.yul\":2913:2914   */\n      dup1\n        /* \"#utility.yul\":2906:2918   */\n      revert\n        /* \"#utility.yul\":2857:2920   */\n    tag_245:\n        /* \"#utility.yul\":2804:2926   */\n      pop\n      jump\t// out\n        /* \"#utility.yul\":2932:3071   */\n    tag_190:\n        /* \"#utility.yul\":2978:2983   */\n      0x00\n        /* \"#utility.yul\":3016:3022   */\n      dup2\n        /* \"#utility.yul\":3003:3023   */\n      calldataload\n        /* \"#utility.yul\":2994:3023   */\n      swap1\n      pop\n        /* \"#utility.yul\":3032:3065   */\n      tag_247\n        /* \"#utility.yul\":3059:3064   */\n      dup2\n        /* \"#utility.yul\":3032:3065   */\n      tag_189\n      jump\t// in\n    tag_247:\n        /* \"#utility.yul\":2932:3071   */\n      swap3\n      swap2\n      pop\n      pop\n      jump\t// out\n        /* \"#utility.yul\":3077:3406   */\n    tag_41:\n        /* \"#utility.yul\":3136:3142   */\n      0x00\n        /* \"#utility.yul\":3185:3187   */\n      0x20\n        /* \"#utility.yul\":3173:3182   */\n      dup3\n        /* \"#utility.yul\":3164:3171   */\n      dup5\n        /* \"#utility.yul\":3160:3183   */\n      sub\n        /* \"#utility.yul\":3156:3188   */\n      slt\n        /* \"#utility.yul\":3153:3272   */\n      iszero\n      tag_249\n      jumpi\n        /* \"#utility.yul\":3191:3270   */\n      tag_250\n      tag_176\n      jump\t// in\n    tag_250:\n        /* \"#utility.yul\":3153:3272   */\n    tag_249:\n        /* \"#utility.yul\":3311:3312   */\n      0x00\n        /* \"#utility.yul\":3336:3389   */\n      tag_251\n        /* \"#utility.yul\":3381:3388   */\n      dup5\n        /* \"#utility.yul\":3372:3378   */\n      dup3\n        /* \"#utility.yul\":3361:3370   */\n      dup6\n        /* \"#utility.yul\":3357:3379   */\n      add\n        /* \"#utility.yul\":3336:3389   */\n      tag_190\n      jump\t// in\n    tag_251:\n        /* \"#utility.yul\":3326:3389   */\n      swap2\n      pop\n        /* \"#utility.yul\":3282:3399   */\n      pop\n        /* \"#utility.yul\":3077:3406   */\n      swap3\n      swap2\n      pop\n      pop\n      jump\t// out\n        /* \"#utility.yul\":3412:3530   */\n    tag_191:\n        /* \"#utility.yul\":3499:3523   */\n      tag_253\n        /* \"#utility.yul\":3517:3522   */\n      dup2\n        /* \"#utility.yul\":3499:3523   */\n      tag_179\n      jump\t// in\n    tag_253:\n        /* \"#utility.yul\":3494:3497   */\n      dup3\n        /* \"#utility.yul\":3487:3524   */\n      mstore\n        /* \"#utility.yul\":3412:3530   */\n      pop\n      pop\n      jump\t// out\n        /* \"#utility.yul\":3536:3758   */\n    tag_61:\n        /* \"#utility.yul\":3629:3633   */\n      0x00\n        /* \"#utility.yul\":3667:3669   */\n      0x20\n        /* \"#utility.yul\":3656:3665   */\n      dup3\n        /* \"#utility.yul\":3652:3670   */\n      add\n        /* \"#utility.yul\":3644:3670   */\n      swap1\n      pop\n        /* \"#utility.yul\":3680:3751   */\n      tag_255\n        /* \"#utility.yul\":3748:3749   */\n      0x00\n        /* \"#utility.yul\":3737:3746   */\n      dup4\n        /* \"#utility.yul\":3733:3750   */\n      add\n        /* \"#utility.yul\":3724:3730   */\n      dup5\n        /* \"#utility.yul\":3680:3751   */\n      tag_191\n      jump\t// in\n    tag_255:\n        /* \"#utility.yul\":3536:3758   */\n      swap3\n      swap2\n      pop\n      pop\n      jump\t// out\n        /* \"#utility.yul\":3764:3863   */\n    tag_192:\n        /* \"#utility.yul\":3816:3822   */\n      0x00\n        /* \"#utility.yul\":3850:3855   */\n      dup2\n        /* \"#utility.yul\":3844:3856   */\n      mload\n        /* \"#utility.yul\":3834:3856   */\n      swap1\n      pop\n        /* \"#utility.yul\":3764:3863   */\n      swap2\n      swap1\n      pop\n      jump\t// out\n        /* \"#utility.yul\":3869:4038   */\n    tag_193:\n        /* \"#utility.yul\":3953:3964   */\n      0x00\n        /* \"#utility.yul\":3987:3993   */\n      dup3\n        /* \"#utility.yul\":3982:3985   */\n      dup3\n        /* \"#utility.yul\":3975:3994   */\n      mstore\n        /* \"#utility.yul\":4027:4031   */\n      0x20\n        /* \"#utility.yul\":4022:4025   */\n      dup3\n        /* \"#utility.yul\":4018:4032   */\n      add\n        /* \"#utility.yul\":4003:4032   */\n      swap1\n      pop\n        /* \"#utility.yul\":3869:4038   */\n      swap3\n      swap2\n      pop\n      pop\n      jump\t// out\n        /* \"#utility.yul\":4044:4183   */\n    tag_194:\n        /* \"#utility.yul\":4133:4139   */\n      dup3\n        /* \"#utility.yul\":4128:4131   */\n      dup2\n        /* \"#utility.yul\":4123:4126   */\n      dup4\n        /* \"#utility.yul\":4117:4140   */\n      mcopy\n        /* \"#utility.yul\":4174:4175   */\n      0x00\n        /* \"#utility.yul\":4165:4171   */\n      dup4\n        /* \"#utility.yul\":4160:4163   */\n      dup4\n        /* \"#utility.yul\":4156:4172   */\n      add\n        /* \"#utility.yul\":4149:4176   */\n      mstore\n        /* \"#utility.yul\":4044:4183   */\n      pop\n      pop\n      pop\n      jump\t// out\n        /* \"#utility.yul\":4189:4291   */\n    tag_195:\n        /* \"#utility.yul\":4230:4236   */\n      0x00\n        /* \"#utility.yul\":4281:4283   */\n      0x1f\n        /* \"#utility.yul\":4277:4284   */\n      not\n        /* \"#utility.yul\":4272:4274   */\n      0x1f\n        /* \"#utility.yul\":4265:4270   */\n      dup4\n        /* \"#utility.yul\":4261:4275   */\n      add\n        /* \"#utility.yul\":4257:4285   */\n      and\n        /* \"#utility.yul\":4247:4285   */\n      swap1\n      pop\n        /* \"#utility.yul\":4189:4291   */\n      swap2\n      swap1\n      pop\n      jump\t// out\n        /* \"#utility.yul\":4297:4674   */\n    tag_196:\n        /* \"#utility.yul\":4385:4388   */\n      0x00\n        /* \"#utility.yul\":4413:4452   */\n      tag_261\n        /* \"#utility.yul\":4446:4451   */\n      dup3\n        /* \"#utility.yul\":4413:4452   */\n      tag_192\n      jump\t// in\n    tag_261:\n        /* \"#utility.yul\":4468:4539   */\n      tag_262\n        /* \"#utility.yul\":4532:4538   */\n      dup2\n        /* \"#utility.yul\":4527:4530   */\n      dup6\n        /* \"#utility.yul\":4468:4539   */\n      tag_193\n      jump\t// in\n    tag_262:\n        /* \"#utility.yul\":4461:4539   */\n      swap4\n      pop\n        /* \"#utility.yul\":4548:4613   */\n      tag_263\n        /* \"#utility.yul\":4606:4612   */\n      dup2\n        /* \"#utility.yul\":4601:4604   */\n      dup6\n        /* \"#utility.yul\":4594:4598   */\n      0x20\n        /* \"#utility.yul\":4587:4592   */\n      dup7\n        /* \"#utility.yul\":4583:4599   */\n      add\n        /* \"#utility.yul\":4548:4613   */\n      tag_194\n      jump\t// in\n    tag_263:\n        /* \"#utility.yul\":4638:4667   */\n      tag_264\n        /* \"#utility.yul\":4660:4666   */\n      dup2\n        /* \"#utility.yul\":4638:4667   */\n      tag_195\n      jump\t// in\n    tag_264:\n        /* \"#utility.yul\":4633:4636   */\n      dup5\n        /* \"#utility.yul\":4629:4668   */\n      add\n        /* \"#utility.yul\":4622:4668   */\n      swap2\n      pop\n        /* \"#utility.yul\":4389:4674   */\n      pop\n        /* \"#utility.yul\":4297:4674   */\n      swap3\n      swap2\n      pop\n      pop\n      jump\t// out\n        /* \"#utility.yul\":4680:4993   */\n    tag_74:\n        /* \"#utility.yul\":4793:4797   */\n      0x00\n        /* \"#utility.yul\":4831:4833   */\n      0x20\n        /* \"#utility.yul\":4820:4829   */\n      dup3\n        /* \"#utility.yul\":4816:4834   */\n      add\n        /* \"#utility.yul\":4808:4834   */\n      swap1\n      pop\n        /* \"#utility.yul\":4880:4889   */\n      dup2\n        /* \"#utility.yul\":4874:4878   */\n      dup2\n        /* \"#utility.yul\":4870:4890   */\n      sub\n        /* \"#utility.yul\":4866:4867   */\n      0x00\n        /* \"#utility.yul\":4855:4864   */\n      dup4\n        /* \"#utility.yul\":4851:4868   */\n      add\n        /* \"#utility.yul\":4844:4891   */\n      mstore\n        /* \"#utility.yul\":4908:4986   */\n      tag_266\n        /* \"#utility.yul\":4981:4985   */\n      dup2\n        /* \"#utility.yul\":4972:4978   */\n      dup5\n        /* \"#utility.yul\":4908:4986   */\n      tag_196\n      jump\t// in\n    tag_266:\n        /* \"#utility.yul\":4900:4986   */\n      swap1\n      pop\n        /* \"#utility.yul\":4680:4993   */\n      swap3\n      swap2\n      pop\n      pop\n      jump\t// out\n        /* \"#utility.yul\":4999:5473   */\n    tag_92:\n        /* \"#utility.yul\":5067:5073   */\n      0x00\n        /* \"#utility.yul\":5075:5081   */\n      dup1\n        /* \"#utility.yul\":5124:5126   */\n      0x40\n        /* \"#utility.yul\":5112:5121   */\n      dup4\n        /* \"#utility.yul\":5103:5110   */\n      dup6\n        /* \"#utility.yul\":5099:5122   */\n      sub\n        /* \"#utility.yul\":5095:5127   */\n      slt\n        /* \"#utility.yul\":5092:5211   */\n      iszero\n      tag_268\n      jumpi\n        /* \"#utility.yul\":5130:5209   */\n      tag_269\n      tag_176\n      jump\t// in\n    tag_269:\n        /* \"#utility.yul\":5092:5211   */\n    tag_268:\n        /* \"#utility.yul\":5250:5251   */\n      0x00\n        /* \"#utility.yul\":5275:5328   */\n      tag_270\n        /* \"#utility.yul\":5320:5327   */\n      dup6\n        /* \"#utility.yul\":5311:5317   */\n      dup3\n        /* \"#utility.yul\":5300:5309   */\n      dup7\n        /* \"#utility.yul\":5296:5318   */\n      add\n        /* \"#utility.yul\":5275:5328   */\n      tag_181\n      jump\t// in\n    tag_270:\n        /* \"#utility.yul\":5265:5328   */\n      swap3\n      pop\n        /* \"#utility.yul\":5221:5338   */\n      pop\n        /* \"#utility.yul\":5377:5379   */\n      0x20\n        /* \"#utility.yul\":5403:5456   */\n      tag_271\n        /* \"#utility.yul\":5448:5455   */\n      dup6\n        /* \"#utility.yul\":5439:5445   */\n      dup3\n        /* \"#utility.yul\":5428:5437   */\n      dup7\n        /* \"#utility.yul\":5424:5446   */\n      add\n        /* \"#utility.yul\":5403:5456   */\n      tag_190\n      jump\t// in\n    tag_271:\n        /* \"#utility.yul\":5393:5456   */\n      swap2\n      pop\n        /* \"#utility.yul\":5348:5466   */\n      pop\n        /* \"#utility.yul\":4999:5473   */\n      swap3\n      pop\n      swap3\n      swap1\n      pop\n      jump\t// out\n        /* \"#utility.yul\":5479:5639   */\n    tag_197:\n        /* \"#utility.yul\":5619:5631   */\n      0x6f776e6572206f6e6c7900000000000000000000000000000000000000000000\n        /* \"#utility.yul\":5615:5616   */\n      0x00\n        /* \"#utility.yul\":5607:5613   */\n      dup3\n        /* \"#utility.yul\":5603:5617   */\n      add\n        /* \"#utility.yul\":5596:5632   */\n      mstore\n        /* \"#utility.yul\":5479:5639   */\n      pop\n      jump\t// out\n        /* \"#utility.yul\":5645:6011   */\n    tag_198:\n        /* \"#utility.yul\":5787:5790   */\n      0x00\n        /* \"#utility.yul\":5808:5875   */\n      tag_274\n        /* \"#utility.yul\":5872:5874   */\n      0x0a\n        /* \"#utility.yul\":5867:5870   */\n      dup4\n        /* \"#utility.yul\":5808:5875   */\n      tag_193\n      jump\t// in\n    tag_274:\n        /* \"#utility.yul\":5801:5875   */\n      swap2\n      pop\n        /* \"#utility.yul\":5884:5977   */\n      tag_275\n        /* \"#utility.yul\":5973:5976   */\n      dup3\n        /* \"#utility.yul\":5884:5977   */\n      tag_197\n      jump\t// in\n    tag_275:\n        /* \"#utility.yul\":6002:6004   */\n      0x20\n        /* \"#utility.yul\":5997:6000   */\n      dup3\n        /* \"#utility.yul\":5993:6005   */\n      add\n        /* \"#utility.yul\":5986:6005   */\n      swap1\n      pop\n        /* \"#utility.yul\":5645:6011   */\n      swap2\n      swap1\n      pop\n      jump\t// out\n        /* \"#utility.yul\":6017:6436   */\n    tag_106:\n        /* \"#utility.yul\":6183:6187   */\n      0x00\n        /* \"#utility.yul\":6221:6223   */\n      0x20\n        /* \"#utility.yul\":6210:6219   */\n      dup3\n        /* \"#utility.yul\":6206:6224   */\n      add\n        /* \"#utility.yul\":6198:6224   */\n      swap1\n      pop\n        /* \"#utility.yul\":6270:6279   */\n      dup2\n        /* \"#utility.yul\":6264:6268   */\n      dup2\n        /* \"#utility.yul\":6260:6280   */\n      sub\n        /* \"#utility.yul\":6256:6257   */\n      0x00\n        /* \"#utility.yul\":6245:6254   */\n      dup4\n        /* \"#utility.yul\":6241:6258   */\n      add\n        /* \"#utility.yul\":6234:6281   */\n      mstore\n        /* \"#utility.yul\":6298:6429   */\n      tag_277\n        /* \"#utility.yul\":6424:6428   */\n      dup2\n        /* \"#utility.yul\":6298:6429   */\n      tag_198\n      jump\t// in\n    tag_277:\n        /* \"#utility.yul\":6290:6429   */\n      swap1\n      pop\n        /* \"#utility.yul\":6017:6436   */\n      swap2\n      swap1\n      pop\n      jump\t// out\n        /* \"#utility.yul\":6442:6622   */\n    tag_199:\n        /* \"#utility.yul\":6490:6567   */\n      0x4e487b7100000000000000000000000000000000000000000000000000000000\n        /* \"#utility.yul\":6487:6488   */\n      0x00\n        /* \"#utility.yul\":6480:6568   */\n      mstore\n        /* \"#utility.yul\":6587:6591   */\n      0x11\n        /* \"#utility.yul\":6584:6585   */\n      0x04\n        /* \"#utility.yul\":6577:6592   */\n      mstore\n        /* \"#utility.yul\":6611:6615   */\n      0x24\n        /* \"#utility.yul\":6608:6609   */\n      0x00\n        /* \"#utility.yul\":6601:6616   */\n      revert\n        /* \"#utility.yul\":6628:6822   */\n    tag_116:\n        /* \"#utility.yul\":6668:6672   */\n      0x00\n        /* \"#utility.yul\":6688:6708   */\n      tag_280\n        /* \"#utility.yul\":6706:6707   */\n      dup3\n        /* \"#utility.yul\":6688:6708   */\n      tag_184\n      jump\t// in\n    tag_280:\n        /* \"#utility.yul\":6683:6708   */\n      swap2\n      pop\n        /* \"#utility.yul\":6722:6742   */\n      tag_281\n        /* \"#utility.yul\":6740:6741   */\n      dup4\n        /* \"#utility.yul\":6722:6742   */\n      tag_184\n      jump\t// in\n    tag_281:\n        /* \"#utility.yul\":6717:6742   */\n      swap3\n      pop\n        /* \"#utility.yul\":6766:6767   */\n      dup3\n        /* \"#utility.yul\":6763:6764   */\n      dup3\n        /* \"#utility.yul\":6759:6768   */\n      sub\n        /* \"#utility.yul\":6751:6768   */\n      swap1\n      pop\n        /* \"#utility.yul\":6790:6791   */\n      dup2\n        /* \"#utility.yul\":6784:6788   */\n      dup2\n        /* \"#utility.yul\":6781:6792   */\n      gt\n        /* \"#utility.yul\":6778:6815   */\n      iszero\n      tag_282\n      jumpi\n        /* \"#utility.yul\":6795:6813   */\n      tag_283\n      tag_199\n      jump\t// in\n    tag_283:\n        /* \"#utility.yul\":6778:6815   */\n    tag_282:\n        /* \"#utility.yul\":6628:6822   */\n      swap3\n      swap2\n      pop\n      pop\n      jump\t// out\n        /* \"#utility.yul\":6828:7019   */\n    tag_118:\n        /* \"#utility.yul\":6868:6871   */\n      0x00\n        /* \"#utility.yul\":6887:6907   */\n      tag_285\n        /* \"#utility.yul\":6905:6906   */\n      dup3\n        /* \"#utility.yul\":6887:6907   */\n      tag_184\n      jump\t// in\n    tag_285:\n        /* \"#utility.yul\":6882:6907   */\n      swap2\n      pop\n        /* \"#utility.yul\":6921:6941   */\n      tag_286\n        /* \"#utility.yul\":6939:6940   */\n      dup4\n        /* \"#utility.yul\":6921:6941   */\n      tag_184\n      jump\t// in\n    tag_286:\n        /* \"#utility.yul\":6916:6941   */\n      swap3\n      pop\n        /* \"#utility.yul\":6964:6965   */\n      dup3\n        /* \"#utility.yul\":6961:6962   */\n      dup3\n        /* \"#utility.yul\":6957:6966   */\n      add\n        /* \"#utility.yul\":6950:6966   */\n      swap1\n      pop\n        /* \"#utility.yul\":6985:6988   */\n      dup1\n        /* \"#utility.yul\":6982:6983   */\n      dup3\n        /* \"#utility.yul\":6979:6989   */\n      gt\n        /* \"#utility.yul\":6976:7012   */\n      iszero\n      tag_287\n      jumpi\n        /* \"#utility.yul\":6992:7010   */\n      tag_288\n      tag_199\n      jump\t// in\n    tag_288:\n        /* \"#utility.yul\":6976:7012   */\n    tag_287:\n        /* \"#utility.yul\":6828:7019   */\n      swap3\n      swap2\n      pop\n      pop\n      jump\t// out\n        /* \"#utility.yul\":7025:7435   */\n    tag_121:\n        /* \"#utility.yul\":7065:7072   */\n      0x00\n        /* \"#utility.yul\":7088:7108   */\n      tag_290\n        /* \"#utility.yul\":7106:7107   */\n      dup3\n        /* \"#utility.yul\":7088:7108   */\n      tag_184\n      jump\t// in\n    tag_290:\n        /* \"#utility.yul\":7083:7108   */\n      swap2\n      pop\n        /* \"#utility.yul\":7122:7142   */\n      tag_291\n        /* \"#utility.yul\":7140:7141   */\n      dup4\n        /* \"#utility.yul\":7122:7142   */\n      tag_184\n      jump\t// in\n    tag_291:\n        /* \"#utility.yul\":7117:7142   */\n      swap3\n      pop\n        /* \"#utility.yul\":7177:7178   */\n      dup3\n        /* \"#utility.yul\":7174:7175   */\n      dup3\n        /* \"#utility.yul\":7170:7179   */\n      mul\n        /* \"#utility.yul\":7199:7229   */\n      tag_292\n        /* \"#utility.yul\":7217:7228   */\n      dup2\n        /* \"#utility.yul\":7199:7229   */\n      tag_184\n      jump\t// in\n    tag_292:\n        /* \"#utility.yul\":7188:7229   */\n      swap2\n      pop\n        /* \"#utility.yul\":7378:7379   */\n      dup3\n        /* \"#utility.yul\":7369:7376   */\n      dup3\n        /* \"#utility.yul\":7365:7380   */\n      div\n        /* \"#utility.yul\":7362:7363   */\n      dup5\n        /* \"#utility.yul\":7359:7381   */\n      eq\n        /* \"#utility.yul\":7339:7340   */\n      dup4\n        /* \"#utility.yul\":7332:7341   */\n      iszero\n        /* \"#utility.yul\":7312:7395   */\n      or\n        /* \"#utility.yul\":7289:7428   */\n      tag_293\n      jumpi\n        /* \"#utility.yul\":7408:7426   */\n      tag_294\n      tag_199\n      jump\t// in\n    tag_294:\n        /* \"#utility.yul\":7289:7428   */\n    tag_293:\n        /* \"#utility.yul\":7073:7435   */\n      pop\n        /* \"#utility.yul\":7025:7435   */\n      swap3\n      swap2\n      pop\n      pop\n      jump\t// out\n        /* \"#utility.yul\":7441:7621   */\n    tag_200:\n        /* \"#utility.yul\":7489:7566   */\n      0x4e487b7100000000000000000000000000000000000000000000000000000000\n        /* \"#utility.yul\":7486:7487   */\n      0x00\n        /* \"#utility.yul\":7479:7567   */\n      mstore\n        /* \"#utility.yul\":7586:7590   */\n      0x22\n        /* \"#utility.yul\":7583:7584   */\n      0x04\n        /* \"#utility.yul\":7576:7591   */\n      mstore\n        /* \"#utility.yul\":7610:7614   */\n      0x24\n        /* \"#utility.yul\":7607:7608   */\n      0x00\n        /* \"#utility.yul\":7600:7615   */\n      revert\n        /* \"#utility.yul\":7627:7947   */\n    tag_132:\n        /* \"#utility.yul\":7671:7677   */\n      0x00\n        /* \"#utility.yul\":7708:7709   */\n      0x02\n        /* \"#utility.yul\":7702:7706   */\n      dup3\n        /* \"#utility.yul\":7698:7710   */\n      div\n        /* \"#utility.yul\":7688:7710   */\n      swap1\n      pop\n        /* \"#utility.yul\":7755:7756   */\n      0x01\n        /* \"#utility.yul\":7749:7753   */\n      dup3\n        /* \"#utility.yul\":7745:7757   */\n      and\n        /* \"#utility.yul\":7776:7794   */\n      dup1\n        /* \"#utility.yul\":7766:7847   */\n      tag_297\n      jumpi\n        /* \"#utility.yul\":7832:7836   */\n      0x7f\n        /* \"#utility.yul\":7824:7830   */\n      dup3\n        /* \"#utility.yul\":7820:7837   */\n      and\n        /* \"#utility.yul\":7810:7837   */\n      swap2\n      pop\n        /* \"#utility.yul\":7766:7847   */\n    tag_297:\n        /* \"#utility.yul\":7894:7896   */\n      0x20\n        /* \"#utility.yul\":7886:7892   */\n      dup3\n        /* \"#utility.yul\":7883:7897   */\n      lt\n        /* \"#utility.yul\":7863:7881   */\n      dup2\n        /* \"#utility.yul\":7860:7898   */\n      sub\n        /* \"#utility.yul\":7857:7941   */\n      tag_298\n      jumpi\n        /* \"#utility.yul\":7913:7931   */\n      tag_299\n      tag_200\n      jump\t// in\n    tag_299:\n        /* \"#utility.yul\":7857:7941   */\n    tag_298:\n        /* \"#utility.yul\":7678:7947   */\n      pop\n        /* \"#utility.yul\":7627:7947   */\n      swap2\n      swap1\n      pop\n      jump\t// out\n        /* \"#utility.yul\":7953:8125   */\n    tag_201:\n        /* \"#utility.yul\":8093:8117   */\n      0x596f7520626f756768742065766572797468696e672100000000000000000000\n        /* \"#utility.yul\":8089:8090   */\n      0x00\n        /* \"#utility.yul\":8081:8087   */\n      dup3\n        /* \"#utility.yul\":8077:8091   */\n      add\n        /* \"#utility.yul\":8070:8118   */\n      mstore\n        /* \"#utility.yul\":7953:8125   */\n      pop\n      jump\t// out\n        /* \"#utility.yul\":8131:8497   */\n    tag_202:\n        /* \"#utility.yul\":8273:8276   */\n      0x00\n        /* \"#utility.yul\":8294:8361   */\n      tag_302\n        /* \"#utility.yul\":8358:8360   */\n      0x16\n        /* \"#utility.yul\":8353:8356   */\n      dup4\n        /* \"#utility.yul\":8294:8361   */\n      tag_193\n      jump\t// in\n    tag_302:\n        /* \"#utility.yul\":8287:8361   */\n      swap2\n      pop\n        /* \"#utility.yul\":8370:8463   */\n      tag_303\n        /* \"#utility.yul\":8459:8462   */\n      dup3\n        /* \"#utility.yul\":8370:8463   */\n      tag_201\n      jump\t// in\n    tag_303:\n        /* \"#utility.yul\":8488:8490   */\n      0x20\n        /* \"#utility.yul\":8483:8486   */\n      dup3\n        /* \"#utility.yul\":8479:8491   */\n      add\n        /* \"#utility.yul\":8472:8491   */\n      swap1\n      pop\n        /* \"#utility.yul\":8131:8497   */\n      swap2\n      swap1\n      pop\n      jump\t// out\n        /* \"#utility.yul\":8503:8922   */\n    tag_150:\n        /* \"#utility.yul\":8669:8673   */\n      0x00\n        /* \"#utility.yul\":8707:8709   */\n      0x20\n        /* \"#utility.yul\":8696:8705   */\n      dup3\n        /* \"#utility.yul\":8692:8710   */\n      add\n        /* \"#utility.yul\":8684:8710   */\n      swap1\n      pop\n        /* \"#utility.yul\":8756:8765   */\n      dup2\n        /* \"#utility.yul\":8750:8754   */\n      dup2\n        /* \"#utility.yul\":8746:8766   */\n      sub\n        /* \"#utility.yul\":8742:8743   */\n      0x00\n        /* \"#utility.yul\":8731:8740   */\n      dup4\n        /* \"#utility.yul\":8727:8744   */\n      add\n        /* \"#utility.yul\":8720:8767   */\n      mstore\n        /* \"#utility.yul\":8784:8915   */\n      tag_305\n        /* \"#utility.yul\":8910:8914   */\n      dup2\n        /* \"#utility.yul\":8784:8915   */\n      tag_202\n      jump\t// in\n    tag_305:\n        /* \"#utility.yul\":8776:8915   */\n      swap1\n      pop\n        /* \"#utility.yul\":8503:8922   */\n      swap2\n      swap1\n      pop\n      jump\t// out\n        /* \"#utility.yul\":8928:9161   */\n    tag_158:\n        /* \"#utility.yul\":8967:8970   */\n      0x00\n        /* \"#utility.yul\":8990:9014   */\n      tag_307\n        /* \"#utility.yul\":9008:9013   */\n      dup3\n        /* \"#utility.yul\":8990:9014   */\n      tag_184\n      jump\t// in\n    tag_307:\n        /* \"#utility.yul\":8981:9014   */\n      swap2\n      pop\n        /* \"#utility.yul\":9036:9102   */\n      0xffffffffffffffffffffffffffffffffffffffffffffffffffffffffffffffff\n        /* \"#utility.yul\":9029:9034   */\n      dup3\n        /* \"#utility.yul\":9026:9103   */\n      sub\n        /* \"#utility.yul\":9023:9126   */\n      tag_308\n      jumpi\n        /* \"#utility.yul\":9106:9124   */\n      tag_309\n      tag_199\n      jump\t// in\n    tag_309:\n        /* \"#utility.yul\":9023:9126   */\n    tag_308:\n        /* \"#utility.yul\":9153:9154   */\n      0x01\n        /* \"#utility.yul\":9146:9151   */\n      dup3\n        /* \"#utility.yul\":9142:9155   */\n      add\n        /* \"#utility.yul\":9135:9155   */\n      swap1\n      pop\n        /* \"#utility.yul\":8928:9161   */\n      swap2\n      swap1\n      pop\n      jump\t// out\n        /* \"#utility.yul\":9167:9330   */\n    tag_203:\n        /* \"#utility.yul\":9307:9322   */\n      0x6f67206f776e6572206f6e6c7900000000000000000000000000000000000000\n        /* \"#utility.yul\":9303:9304   */\n      0x00\n        /* \"#utility.yul\":9295:9301   */\n      dup3\n        /* \"#utility.yul\":9291:9305   */\n      add\n        /* \"#utility.yul\":9284:9323   */\n      mstore\n        /* \"#utility.yul\":9167:9330   */\n      pop\n      jump\t// out\n        /* \"#utility.yul\":9336:9702   */\n    tag_204:\n        /* \"#utility.yul\":9478:9481   */\n      0x00\n        /* \"#utility.yul\":9499:9566   */\n      tag_312\n        /* \"#utility.yul\":9563:9565   */\n      0x0d\n        /* \"#utility.yul\":9558:9561   */\n      dup4\n        /* \"#utility.yul\":9499:9566   */\n      tag_193\n      jump\t// in\n    tag_312:\n        /* \"#utility.yul\":9492:9566   */\n      swap2\n      pop\n        /* \"#utility.yul\":9575:9668   */\n      tag_313\n        /* \"#utility.yul\":9664:9667   */\n      dup3\n        /* \"#utility.yul\":9575:9668   */\n      tag_203\n      jump\t// in\n    tag_313:\n        /* \"#utility.yul\":9693:9695   */\n      0x20\n        /* \"#utility.yul\":9688:9691   */\n      dup3\n        /* \"#utility.yul\":9684:9696   */\n      add\n        /* \"#utility.yul\":9677:9696   */\n      swap1\n      pop\n        /* \"#utility.yul\":9336:9702   */\n      swap2\n      swap1\n      pop\n      jump\t// out\n        /* \"#utility.yul\":9708:10127   */\n    tag_163:\n        /* \"#utility.yul\":9874:9878   */\n      0x00\n        /* \"#utility.yul\":9912:9914   */\n      0x20\n        /* \"#utility.yul\":9901:9910   */\n      dup3\n        /* \"#utility.yul\":9897:9915   */\n      add\n        /* \"#utility.yul\":9889:9915   */\n      swap1\n      pop\n        /* \"#utility.yul\":9961:9970   */\n      dup2\n        /* \"#utility.yul\":9955:9959   */\n      dup2\n        /* \"#utility.yul\":9951:9971   */\n      sub\n        /* \"#utility.yul\":9947:9948   */\n      0x00\n        /* \"#utility.yul\":9936:9945   */\n      dup4\n        /* \"#utility.yul\":9932:9949   */\n      add\n        /* \"#utility.yul\":9925:9972   */\n      mstore\n        /* \"#utility.yul\":9989:10120   */\n      tag_315\n        /* \"#utility.yul\":10115:10119   */\n      dup2\n        /* \"#utility.yul\":9989:10120   */\n      tag_204\n      jump\t// in\n    tag_315:\n        /* \"#utility.yul\":9981:10120   */\n      swap1\n      pop\n        /* \"#utility.yul\":9708:10127   */\n      swap2\n      swap1\n      pop\n      jump\t// out\n        /* \"#utility.yul\":10133:10313   */\n    tag_205:\n        /* \"#utility.yul\":10181:10258   */\n      0x4e487b7100000000000000000000000000000000000000000000000000000000\n        /* \"#utility.yul\":10178:10179   */\n      0x00\n        /* \"#utility.yul\":10171:10259   */\n      mstore\n        /* \"#utility.yul\":10278:10282   */\n      0x12\n        /* \"#utility.yul\":10275:10276   */\n      0x04\n        /* \"#utility.yul\":10268:10283   */\n      mstore\n        /* \"#utility.yul\":10302:10306   */\n      0x24\n        /* \"#utility.yul\":10299:10300   */\n      0x00\n        /* \"#utility.yul\":10292:10307   */\n      revert\n        /* \"#utility.yul\":10319:10504   */\n    tag_174:\n        /* \"#utility.yul\":10359:10360   */\n      0x00\n        /* \"#utility.yul\":10376:10396   */\n      tag_318\n        /* \"#utility.yul\":10394:10395   */\n      dup3\n        /* \"#utility.yul\":10376:10396   */\n      tag_184\n      jump\t// in\n    tag_318:\n        /* \"#utility.yul\":10371:10396   */\n      swap2\n      pop\n        /* \"#utility.yul\":10410:10430   */\n      tag_319\n        /* \"#utility.yul\":10428:10429   */\n      dup4\n        /* \"#utility.yul\":10410:10430   */\n      tag_184\n      jump\t// in\n    tag_319:\n        /* \"#utility.yul\":10405:10430   */\n      swap3\n      pop\n        /* \"#utility.yul\":10449:10450   */\n      dup3\n        /* \"#utility.yul\":10439:10474   */\n      tag_320\n      jumpi\n        /* \"#utility.yul\":10454:10472   */\n      tag_321\n      tag_205\n      jump\t// in\n    tag_321:\n        /* \"#utility.yul\":10439:10474   */\n    tag_320:\n        /* \"#utility.yul\":10496:10497   */\n      dup3\n        /* \"#utility.yul\":10493:10494   */\n      dup3\n        /* \"#utility.yul\":10489:10498   */\n      div\n        /* \"#utility.yul\":10484:10498   */\n      swap1\n      pop\n        /* \"#utility.yul\":10319:10504   */\n      swap3\n      swap2\n      pop\n      pop\n      jump\t// out\n\n    auxdata: 0xa26469706673582212206c6c977dc67f9a95fb52d37af5c3e222f1da872d0530f5147b51134f9c2da75e64736f6c634300081a0033\n}\n",
				"bytecode": {
					"linkReferences": {},
					"object": "608060405234801561000f575f80fd5b5060405161188738038061188783398181016040528101906100319190610228565b3360015f6101000a81548173ffffffffffffffffffffffffffffffffffffffff021916908373ffffffffffffffffffffffffffffffffffffffff160217905550620f424060058190555060055460048190555060015f803373ffffffffffffffffffffffffffffffffffffffff1673ffffffffffffffffffffffffffffffffffffffff1681526020019081526020015f205f6101000a81548160ff021916908315150217905550629896806005819055506005546004819055508060015f6101000a81548173ffffffffffffffffffffffffffffffffffffffff021916908373ffffffffffffffffffffffffffffffffffffffff16021790555060015f808373ffffffffffffffffffffffffffffffffffffffff1673ffffffffffffffffffffffffffffffffffffffff1681526020019081526020015f205f6101000a81548160ff0219169083151502179055506040518060400160405280600781526020017f616d79656c656500000000000000000000000000000000000000000000000000815250600790816101c3919061048d565b505061055c565b5f80fd5b5f73ffffffffffffffffffffffffffffffffffffffff82169050919050565b5f6101f7826101ce565b9050919050565b610207816101ed565b8114610211575f80fd5b50565b5f81519050610222816101fe565b92915050565b5f6020828403121561023d5761023c6101ca565b5b5f61024a84828501610214565b91505092915050565b5f81519050919050565b7f4e487b71000000000000000000000000000000000000000000000000000000005f52604160045260245ffd5b7f4e487b71000000000000000000000000000000000000000000000000000000005f52602260045260245ffd5b5f60028204905060018216806102ce57607f821691505b6020821081036102e1576102e061028a565b5b50919050565b5f819050815f5260205f209050919050565b5f6020601f8301049050919050565b5f82821b905092915050565b5f600883026103437fffffffffffffffffffffffffffffffffffffffffffffffffffffffffffffffff82610308565b61034d8683610308565b95508019841693508086168417925050509392505050565b5f819050919050565b5f819050919050565b5f61039161038c61038784610365565b61036e565b610365565b9050919050565b5f819050919050565b6103aa83610377565b6103be6103b682610398565b848454610314565b825550505050565b5f90565b6103d26103c6565b6103dd8184846103a1565b505050565b5b81811015610400576103f55f826103ca565b6001810190506103e3565b5050565b601f82111561044557610416816102e7565b61041f846102f9565b8101602085101561042e578190505b61044261043a856102f9565b8301826103e2565b50505b505050565b5f82821c905092915050565b5f6104655f198460080261044a565b1980831691505092915050565b5f61047d8383610456565b9150826002028217905092915050565b61049682610253565b67ffffffffffffffff8111156104af576104ae61025d565b5b6104b982546102b7565b6104c4828285610404565b5f60209050601f8311600181146104f5575f84156104e3578287015190505b6104ed8582610472565b865550610554565b601f198416610503866102e7565b5f5b8281101561052a57848901518255600182019150602085019450602081019050610505565b868310156105475784890151610543601f891682610456565b8355505b6001600288020188555050505b505050505050565b61131e806105695f395ff3fe608060405260043610610108575f3560e01c80638c8a960611610094578063c649083511610063578063c649083514610324578063cd5c4c701461034e578063d0679d3414610376578063f1fffdcb1461039e578063fd1b6f2b146103c857610108565b80638c8a96061461029e57806395d89b41146102c8578063a0712d68146102f2578063a48217191461031a57610108565b806327e235e3116100db57806327e235e3146101aa57806354fd4d50146101e65780637065cb48146102105780637a3b1e8614610238578063865cf9281461027457610108565b8063022914a71461010c57806312065fe0146101485780631828db82146101725780632397e4d71461018e575b5f80fd5b348015610117575f80fd5b50610132600480360381019061012d9190610d9b565b6103f2565b60405161013f9190610de0565b60405180910390f35b348015610153575f80fd5b5061015c61040e565b6040516101699190610e11565b60405180910390f35b61018c60048036038101906101879190610e65565b610415565b005b6101a860048036038101906101a39190610eba565b61053c565b005b3480156101b5575f80fd5b506101d060048036038101906101cb9190610d9b565b610659565b6040516101dd9190610e11565b60405180910390f35b3480156101f1575f80fd5b506101fa61066e565b6040516102079190610e11565b60405180910390f35b34801561021b575f80fd5b5061023660048036038101906102319190610d9b565b610674565b005b348015610243575f80fd5b5061025e60048036038101906102599190610eba565b610753565b60405161026b9190610ef4565b60405180910390f35b34801561027f575f80fd5b5061028861078e565b6040516102959190610e11565b60405180910390f35b3480156102a9575f80fd5b506102b2610794565b6040516102bf9190610e11565b60405180910390f35b3480156102d3575f80fd5b506102dc6107a0565b6040516102e99190610f7d565b60405180910390f35b3480156102fd575f80fd5b5061031860048036038101906103139190610eba565b61082c565b005b6103226108e7565b005b34801561032f575f80fd5b50610338610a98565b6040516103459190610e11565b60405180910390f35b348015610359575f80fd5b50610374600480360381019061036f9190610d9b565b610a9e565b005b348015610381575f80fd5b5061039c60048036038101906103979190610f9d565b610b83565b005b3480156103a9575f80fd5b506103b2610ced565b6040516103bf9190610ef4565b60405180910390f35b3480156103d3575f80fd5b506103dc610d12565b6040516103e99190610e11565b60405180910390f35b5f602052805f5260405f205f915054906101000a900460ff1681565b5f47905090565b5f803373ffffffffffffffffffffffffffffffffffffffff1673ffffffffffffffffffffffffffffffffffffffff1681526020019081526020015f205f9054906101000a900460ff1661049d576040517f08c379a000000000000000000000000000000000000000000000000000000000815260040161049490611025565b60405180910390fd5b5f808273ffffffffffffffffffffffffffffffffffffffff1673ffffffffffffffffffffffffffffffffffffffff1681526020019081526020015f205f9054906101000a900460ff166104ee575f80fd5b8073ffffffffffffffffffffffffffffffffffffffff166108fc61051061040e565b90811502906040515f60405180830381858888f19350505050158015610538573d5f803e3d5ffd5b5050565b5f60065f3373ffffffffffffffffffffffffffffffffffffffff1673ffffffffffffffffffffffffffffffffffffffff1681526020019081526020015f2054905080821115610589575f80fd5b5f8211610594575f80fd5b8160065f3373ffffffffffffffffffffffffffffffffffffffff1673ffffffffffffffffffffffffffffffffffffffff1681526020019081526020015f205f8282546105e09190611070565b925050819055508160055f8282546105f891906110a3565b925050819055503373ffffffffffffffffffffffffffffffffffffffff166108fc610621610794565b8461062c91906110d6565b90811502906040515f60405180830381858888f19350505050158015610654573d5f803e3d5ffd5b505050565b6006602052805f5260405f205f915090505481565b60085481565b5f803373ffffffffffffffffffffffffffffffffffffffff1673ffffffffffffffffffffffffffffffffffffffff1681526020019081526020015f205f9054906101000a900460ff166106fc576040517f08c379a00000000000000000000000000000000000000000000000000000000081526004016106f390611025565b60405180910390fd5b60015f808373ffffffffffffffffffffffffffffffffffffffff1673ffffffffffffffffffffffffffffffffffffffff1681526020019081526020015f205f6101000a81548160ff02191690831515021790555050565b60028181548110610762575f80fd5b905f5260205f20015f915054906101000a900473ffffffffffffffffffffffffffffffffffffffff1681565b60055481565b5f64e8d4a51000905090565b600780546107ad90611144565b80601f01602080910402602001604051908101604052809291908181526020018280546107d990611144565b80156108245780601f106107fb57610100808354040283529160200191610824565b820191905f5260205f20905b81548152906001019060200180831161080757829003601f168201915b505050505081565b5f803373ffffffffffffffffffffffffffffffffffffffff1673ffffffffffffffffffffffffffffffffffffffff1681526020019081526020015f205f9054906101000a900460ff166108b4576040517f08c379a00000000000000000000000000000000000000000000000000000000081526004016108ab90611025565b60405180910390fd5b8060045f8282546108c591906110a3565b925050819055508060055f8282546108dd91906110a3565b9250508190555050565b5f6108f0610794565b90505f6108fd3483610d18565b90505f811161090a575f80fd5b600554811061094e5760055490507fded73d9b7994988fc49241f75c8f6577ad0070900ff55ffe76e498cf7e03bef4604051610945906111be565b60405180910390a15b5f818361095b91906110d6565b90505f813461096a9190611070565b90503373ffffffffffffffffffffffffffffffffffffffff166108fc8290811502906040515f60405180830381858888f193505050501580156109af573d5f803e3d5ffd5b508260065f3373ffffffffffffffffffffffffffffffffffffffff1673ffffffffffffffffffffffffffffffffffffffff1681526020019081526020015f205f8282546109fc91906110a3565b925050819055508260055f828254610a149190611070565b9250508190555060035f815480929190610a2d906111dc565b9190505550600233908060018154018082558091505060019003905f5260205f20015f9091909190916101000a81548173ffffffffffffffffffffffffffffffffffffffff021916908373ffffffffffffffffffffffffffffffffffffffff16021790555050505050565b60045481565b3373ffffffffffffffffffffffffffffffffffffffff1660015f9054906101000a900473ffffffffffffffffffffffffffffffffffffffff1673ffffffffffffffffffffffffffffffffffffffff1614610b2d576040517f08c379a0000000000000000000000000000000000000000000000000000000008152600401610b249061126d565b60405180910390fd5b5f805f8373ffffffffffffffffffffffffffffffffffffffff1673ffffffffffffffffffffffffffffffffffffffff1681526020019081526020015f205f6101000a81548160ff02191690831515021790555050565b60065f3373ffffffffffffffffffffffffffffffffffffffff1673ffffffffffffffffffffffffffffffffffffffff1681526020019081526020015f2054811115610bcc575f80fd5b8060065f3373ffffffffffffffffffffffffffffffffffffffff1673ffffffffffffffffffffffffffffffffffffffff1681526020019081526020015f205f828254610c189190611070565b925050819055508060065f8473ffffffffffffffffffffffffffffffffffffffff1673ffffffffffffffffffffffffffffffffffffffff1681526020019081526020015f205f828254610c6b91906110a3565b9250508190555060035f815480929190610c84906111dc565b9190505550600282908060018154018082558091505060019003905f5260205f20015f9091909190916101000a81548173ffffffffffffffffffffffffffffffffffffffff021916908373ffffffffffffffffffffffffffffffffffffffff1602179055505050565b60015f9054906101000a900473ffffffffffffffffffffffffffffffffffffffff1681565b60035481565b5f808211610d24575f80fd5b5f8284610d3191906112b8565b90508091505092915050565b5f80fd5b5f73ffffffffffffffffffffffffffffffffffffffff82169050919050565b5f610d6a82610d41565b9050919050565b610d7a81610d60565b8114610d84575f80fd5b50565b5f81359050610d9581610d71565b92915050565b5f60208284031215610db057610daf610d3d565b5b5f610dbd84828501610d87565b91505092915050565b5f8115159050919050565b610dda81610dc6565b82525050565b5f602082019050610df35f830184610dd1565b92915050565b5f819050919050565b610e0b81610df9565b82525050565b5f602082019050610e245f830184610e02565b92915050565b5f610e3482610d41565b9050919050565b610e4481610e2a565b8114610e4e575f80fd5b50565b5f81359050610e5f81610e3b565b92915050565b5f60208284031215610e7a57610e79610d3d565b5b5f610e8784828501610e51565b91505092915050565b610e9981610df9565b8114610ea3575f80fd5b50565b5f81359050610eb481610e90565b92915050565b5f60208284031215610ecf57610ece610d3d565b5b5f610edc84828501610ea6565b91505092915050565b610eee81610d60565b82525050565b5f602082019050610f075f830184610ee5565b92915050565b5f81519050919050565b5f82825260208201905092915050565b8281835e5f83830152505050565b5f601f19601f8301169050919050565b5f610f4f82610f0d565b610f598185610f17565b9350610f69818560208601610f27565b610f7281610f35565b840191505092915050565b5f6020820190508181035f830152610f958184610f45565b905092915050565b5f8060408385031215610fb357610fb2610d3d565b5b5f610fc085828601610d87565b9250506020610fd185828601610ea6565b9150509250929050565b7f6f776e6572206f6e6c79000000000000000000000000000000000000000000005f82015250565b5f61100f600a83610f17565b915061101a82610fdb565b602082019050919050565b5f6020820190508181035f83015261103c81611003565b9050919050565b7f4e487b71000000000000000000000000000000000000000000000000000000005f52601160045260245ffd5b5f61107a82610df9565b915061108583610df9565b925082820390508181111561109d5761109c611043565b5b92915050565b5f6110ad82610df9565b91506110b883610df9565b92508282019050808211156110d0576110cf611043565b5b92915050565b5f6110e082610df9565b91506110eb83610df9565b92508282026110f981610df9565b915082820484148315176111105761110f611043565b5b5092915050565b7f4e487b71000000000000000000000000000000000000000000000000000000005f52602260045260245ffd5b5f600282049050600182168061115b57607f821691505b60208210810361116e5761116d611117565b5b50919050565b7f596f7520626f756768742065766572797468696e6721000000000000000000005f82015250565b5f6111a8601683610f17565b91506111b382611174565b602082019050919050565b5f6020820190508181035f8301526111d58161119c565b9050919050565b5f6111e682610df9565b91507fffffffffffffffffffffffffffffffffffffffffffffffffffffffffffffffff820361121857611217611043565b5b600182019050919050565b7f6f67206f776e6572206f6e6c79000000000000000000000000000000000000005f82015250565b5f611257600d83610f17565b915061126282611223565b602082019050919050565b5f6020820190508181035f8301526112848161124b565b9050919050565b7f4e487b71000000000000000000000000000000000000000000000000000000005f52601260045260245ffd5b5f6112c282610df9565b91506112cd83610df9565b9250826112dd576112dc61128b565b5b82820490509291505056fea26469706673582212206c6c977dc67f9a95fb52d37af5c3e222f1da872d0530f5147b51134f9c2da75e64736f6c634300081a0033",
					"opcodes": "PUSH1 0x80 PUSH1 0x40 MSTORE CALLVALUE DUP1 ISZERO PUSH2 0xF JUMPI PUSH0 DUP1 REVERT JUMPDEST POP PUSH1 0x40 MLOAD PUSH2 0x1887 CODESIZE SUB DUP1 PUSH2 0x1887 DUP4 CODECOPY DUP2 DUP2 ADD PUSH1 0x40 MSTORE DUP2 ADD SWAP1 PUSH2 0x31 SWAP2 SWAP1 PUSH2 0x228 JUMP JUMPDEST CALLER PUSH1 0x1 PUSH0 PUSH2 0x100 EXP DUP2 SLOAD DUP2 PUSH20 0xFFFFFFFFFFFFFFFFFFFFFFFFFFFFFFFFFFFFFFFF MUL NOT AND SWAP1 DUP4 PUSH20 0xFFFFFFFFFFFFFFFFFFFFFFFFFFFFFFFFFFFFFFFF AND MUL OR SWAP1 SSTORE POP PUSH3 0xF4240 PUSH1 0x5 DUP2 SWAP1 SSTORE POP PUSH1 0x5 SLOAD PUSH1 0x4 DUP2 SWAP1 SSTORE POP PUSH1 0x1 PUSH0 DUP1 CALLER PUSH20 0xFFFFFFFFFFFFFFFFFFFFFFFFFFFFFFFFFFFFFFFF AND PUSH20 0xFFFFFFFFFFFFFFFFFFFFFFFFFFFFFFFFFFFFFFFF AND DUP2 MSTORE PUSH1 0x20 ADD SWAP1 DUP2 MSTORE PUSH1 0x20 ADD PUSH0 KECCAK256 PUSH0 PUSH2 0x100 EXP DUP2 SLOAD DUP2 PUSH1 0xFF MUL NOT AND SWAP1 DUP4 ISZERO ISZERO MUL OR SWAP1 SSTORE POP PUSH3 0x989680 PUSH1 0x5 DUP2 SWAP1 SSTORE POP PUSH1 0x5 SLOAD PUSH1 0x4 DUP2 SWAP1 SSTORE POP DUP1 PUSH1 0x1 PUSH0 PUSH2 0x100 EXP DUP2 SLOAD DUP2 PUSH20 0xFFFFFFFFFFFFFFFFFFFFFFFFFFFFFFFFFFFFFFFF MUL NOT AND SWAP1 DUP4 PUSH20 0xFFFFFFFFFFFFFFFFFFFFFFFFFFFFFFFFFFFFFFFF AND MUL OR SWAP1 SSTORE POP PUSH1 0x1 PUSH0 DUP1 DUP4 PUSH20 0xFFFFFFFFFFFFFFFFFFFFFFFFFFFFFFFFFFFFFFFF AND PUSH20 0xFFFFFFFFFFFFFFFFFFFFFFFFFFFFFFFFFFFFFFFF AND DUP2 MSTORE PUSH1 0x20 ADD SWAP1 DUP2 MSTORE PUSH1 0x20 ADD PUSH0 KECCAK256 PUSH0 PUSH2 0x100 EXP DUP2 SLOAD DUP2 PUSH1 0xFF MUL NOT AND SWAP1 DUP4 ISZERO ISZERO MUL OR SWAP1 SSTORE POP PUSH1 0x40 MLOAD DUP1 PUSH1 0x40 ADD PUSH1 0x40 MSTORE DUP1 PUSH1 0x7 DUP2 MSTORE PUSH1 0x20 ADD PUSH32 0x616D79656C656500000000000000000000000000000000000000000000000000 DUP2 MSTORE POP PUSH1 0x7 SWAP1 DUP2 PUSH2 0x1C3 SWAP2 SWAP1 PUSH2 0x48D JUMP JUMPDEST POP POP PUSH2 0x55C JUMP JUMPDEST PUSH0 DUP1 REVERT JUMPDEST PUSH0 PUSH20 0xFFFFFFFFFFFFFFFFFFFFFFFFFFFFFFFFFFFFFFFF DUP3 AND SWAP1 POP SWAP2 SWAP1 POP JUMP JUMPDEST PUSH0 PUSH2 0x1F7 DUP3 PUSH2 0x1CE JUMP JUMPDEST SWAP1 POP SWAP2 SWAP1 POP JUMP JUMPDEST PUSH2 0x207 DUP2 PUSH2 0x1ED JUMP JUMPDEST DUP2 EQ PUSH2 0x211 JUMPI PUSH0 DUP1 REVERT JUMPDEST POP JUMP JUMPDEST PUSH0 DUP2 MLOAD SWAP1 POP PUSH2 0x222 DUP2 PUSH2 0x1FE JUMP JUMPDEST SWAP3 SWAP2 POP POP JUMP JUMPDEST PUSH0 PUSH1 0x20 DUP3 DUP5 SUB SLT ISZERO PUSH2 0x23D JUMPI PUSH2 0x23C PUSH2 0x1CA JUMP JUMPDEST JUMPDEST PUSH0 PUSH2 0x24A DUP5 DUP3 DUP6 ADD PUSH2 0x214 JUMP JUMPDEST SWAP2 POP POP SWAP3 SWAP2 POP POP JUMP JUMPDEST PUSH0 DUP2 MLOAD SWAP1 POP SWAP2 SWAP1 POP JUMP JUMPDEST PUSH32 0x4E487B7100000000000000000000000000000000000000000000000000000000 PUSH0 MSTORE PUSH1 0x41 PUSH1 0x4 MSTORE PUSH1 0x24 PUSH0 REVERT JUMPDEST PUSH32 0x4E487B7100000000000000000000000000000000000000000000000000000000 PUSH0 MSTORE PUSH1 0x22 PUSH1 0x4 MSTORE PUSH1 0x24 PUSH0 REVERT JUMPDEST PUSH0 PUSH1 0x2 DUP3 DIV SWAP1 POP PUSH1 0x1 DUP3 AND DUP1 PUSH2 0x2CE JUMPI PUSH1 0x7F DUP3 AND SWAP2 POP JUMPDEST PUSH1 0x20 DUP3 LT DUP2 SUB PUSH2 0x2E1 JUMPI PUSH2 0x2E0 PUSH2 0x28A JUMP JUMPDEST JUMPDEST POP SWAP2 SWAP1 POP JUMP JUMPDEST PUSH0 DUP2 SWAP1 POP DUP2 PUSH0 MSTORE PUSH1 0x20 PUSH0 KECCAK256 SWAP1 POP SWAP2 SWAP1 POP JUMP JUMPDEST PUSH0 PUSH1 0x20 PUSH1 0x1F DUP4 ADD DIV SWAP1 POP SWAP2 SWAP1 POP JUMP JUMPDEST PUSH0 DUP3 DUP3 SHL SWAP1 POP SWAP3 SWAP2 POP POP JUMP JUMPDEST PUSH0 PUSH1 0x8 DUP4 MUL PUSH2 0x343 PUSH32 0xFFFFFFFFFFFFFFFFFFFFFFFFFFFFFFFFFFFFFFFFFFFFFFFFFFFFFFFFFFFFFFFF DUP3 PUSH2 0x308 JUMP JUMPDEST PUSH2 0x34D DUP7 DUP4 PUSH2 0x308 JUMP JUMPDEST SWAP6 POP DUP1 NOT DUP5 AND SWAP4 POP DUP1 DUP7 AND DUP5 OR SWAP3 POP POP POP SWAP4 SWAP3 POP POP POP JUMP JUMPDEST PUSH0 DUP2 SWAP1 POP SWAP2 SWAP1 POP JUMP JUMPDEST PUSH0 DUP2 SWAP1 POP SWAP2 SWAP1 POP JUMP JUMPDEST PUSH0 PUSH2 0x391 PUSH2 0x38C PUSH2 0x387 DUP5 PUSH2 0x365 JUMP JUMPDEST PUSH2 0x36E JUMP JUMPDEST PUSH2 0x365 JUMP JUMPDEST SWAP1 POP SWAP2 SWAP1 POP JUMP JUMPDEST PUSH0 DUP2 SWAP1 POP SWAP2 SWAP1 POP JUMP JUMPDEST PUSH2 0x3AA DUP4 PUSH2 0x377 JUMP JUMPDEST PUSH2 0x3BE PUSH2 0x3B6 DUP3 PUSH2 0x398 JUMP JUMPDEST DUP5 DUP5 SLOAD PUSH2 0x314 JUMP JUMPDEST DUP3 SSTORE POP POP POP POP JUMP JUMPDEST PUSH0 SWAP1 JUMP JUMPDEST PUSH2 0x3D2 PUSH2 0x3C6 JUMP JUMPDEST PUSH2 0x3DD DUP2 DUP5 DUP5 PUSH2 0x3A1 JUMP JUMPDEST POP POP POP JUMP JUMPDEST JUMPDEST DUP2 DUP2 LT ISZERO PUSH2 0x400 JUMPI PUSH2 0x3F5 PUSH0 DUP3 PUSH2 0x3CA JUMP JUMPDEST PUSH1 0x1 DUP2 ADD SWAP1 POP PUSH2 0x3E3 JUMP JUMPDEST POP POP JUMP JUMPDEST PUSH1 0x1F DUP3 GT ISZERO PUSH2 0x445 JUMPI PUSH2 0x416 DUP2 PUSH2 0x2E7 JUMP JUMPDEST PUSH2 0x41F DUP5 PUSH2 0x2F9 JUMP JUMPDEST DUP2 ADD PUSH1 0x20 DUP6 LT ISZERO PUSH2 0x42E JUMPI DUP2 SWAP1 POP JUMPDEST PUSH2 0x442 PUSH2 0x43A DUP6 PUSH2 0x2F9 JUMP JUMPDEST DUP4 ADD DUP3 PUSH2 0x3E2 JUMP JUMPDEST POP POP JUMPDEST POP POP POP JUMP JUMPDEST PUSH0 DUP3 DUP3 SHR SWAP1 POP SWAP3 SWAP2 POP POP JUMP JUMPDEST PUSH0 PUSH2 0x465 PUSH0 NOT DUP5 PUSH1 0x8 MUL PUSH2 0x44A JUMP JUMPDEST NOT DUP1 DUP4 AND SWAP2 POP POP SWAP3 SWAP2 POP POP JUMP JUMPDEST PUSH0 PUSH2 0x47D DUP4 DUP4 PUSH2 0x456 JUMP JUMPDEST SWAP2 POP DUP3 PUSH1 0x2 MUL DUP3 OR SWAP1 POP SWAP3 SWAP2 POP POP JUMP JUMPDEST PUSH2 0x496 DUP3 PUSH2 0x253 JUMP JUMPDEST PUSH8 0xFFFFFFFFFFFFFFFF DUP2 GT ISZERO PUSH2 0x4AF JUMPI PUSH2 0x4AE PUSH2 0x25D JUMP JUMPDEST JUMPDEST PUSH2 0x4B9 DUP3 SLOAD PUSH2 0x2B7 JUMP JUMPDEST PUSH2 0x4C4 DUP3 DUP3 DUP6 PUSH2 0x404 JUMP JUMPDEST PUSH0 PUSH1 0x20 SWAP1 POP PUSH1 0x1F DUP4 GT PUSH1 0x1 DUP2 EQ PUSH2 0x4F5 JUMPI PUSH0 DUP5 ISZERO PUSH2 0x4E3 JUMPI DUP3 DUP8 ADD MLOAD SWAP1 POP JUMPDEST PUSH2 0x4ED DUP6 DUP3 PUSH2 0x472 JUMP JUMPDEST DUP7 SSTORE POP PUSH2 0x554 JUMP JUMPDEST PUSH1 0x1F NOT DUP5 AND PUSH2 0x503 DUP7 PUSH2 0x2E7 JUMP JUMPDEST PUSH0 JUMPDEST DUP3 DUP2 LT ISZERO PUSH2 0x52A JUMPI DUP5 DUP10 ADD MLOAD DUP3 SSTORE PUSH1 0x1 DUP3 ADD SWAP2 POP PUSH1 0x20 DUP6 ADD SWAP5 POP PUSH1 0x20 DUP2 ADD SWAP1 POP PUSH2 0x505 JUMP JUMPDEST DUP7 DUP4 LT ISZERO PUSH2 0x547 JUMPI DUP5 DUP10 ADD MLOAD PUSH2 0x543 PUSH1 0x1F DUP10 AND DUP3 PUSH2 0x456 JUMP JUMPDEST DUP4 SSTORE POP JUMPDEST PUSH1 0x1 PUSH1 0x2 DUP9 MUL ADD DUP9 SSTORE POP POP POP JUMPDEST POP POP POP POP POP POP JUMP JUMPDEST PUSH2 0x131E DUP1 PUSH2 0x569 PUSH0 CODECOPY PUSH0 RETURN INVALID PUSH1 0x80 PUSH1 0x40 MSTORE PUSH1 0x4 CALLDATASIZE LT PUSH2 0x108 JUMPI PUSH0 CALLDATALOAD PUSH1 0xE0 SHR DUP1 PUSH4 0x8C8A9606 GT PUSH2 0x94 JUMPI DUP1 PUSH4 0xC6490835 GT PUSH2 0x63 JUMPI DUP1 PUSH4 0xC6490835 EQ PUSH2 0x324 JUMPI DUP1 PUSH4 0xCD5C4C70 EQ PUSH2 0x34E JUMPI DUP1 PUSH4 0xD0679D34 EQ PUSH2 0x376 JUMPI DUP1 PUSH4 0xF1FFFDCB EQ PUSH2 0x39E JUMPI DUP1 PUSH4 0xFD1B6F2B EQ PUSH2 0x3C8 JUMPI PUSH2 0x108 JUMP JUMPDEST DUP1 PUSH4 0x8C8A9606 EQ PUSH2 0x29E JUMPI DUP1 PUSH4 0x95D89B41 EQ PUSH2 0x2C8 JUMPI DUP1 PUSH4 0xA0712D68 EQ PUSH2 0x2F2 JUMPI DUP1 PUSH4 0xA4821719 EQ PUSH2 0x31A JUMPI PUSH2 0x108 JUMP JUMPDEST DUP1 PUSH4 0x27E235E3 GT PUSH2 0xDB JUMPI DUP1 PUSH4 0x27E235E3 EQ PUSH2 0x1AA JUMPI DUP1 PUSH4 0x54FD4D50 EQ PUSH2 0x1E6 JUMPI DUP1 PUSH4 0x7065CB48 EQ PUSH2 0x210 JUMPI DUP1 PUSH4 0x7A3B1E86 EQ PUSH2 0x238 JUMPI DUP1 PUSH4 0x865CF928 EQ PUSH2 0x274 JUMPI PUSH2 0x108 JUMP JUMPDEST DUP1 PUSH4 0x22914A7 EQ PUSH2 0x10C JUMPI DUP1 PUSH4 0x12065FE0 EQ PUSH2 0x148 JUMPI DUP1 PUSH4 0x1828DB82 EQ PUSH2 0x172 JUMPI DUP1 PUSH4 0x2397E4D7 EQ PUSH2 0x18E JUMPI JUMPDEST PUSH0 DUP1 REVERT JUMPDEST CALLVALUE DUP1 ISZERO PUSH2 0x117 JUMPI PUSH0 DUP1 REVERT JUMPDEST POP PUSH2 0x132 PUSH1 0x4 DUP1 CALLDATASIZE SUB DUP2 ADD SWAP1 PUSH2 0x12D SWAP2 SWAP1 PUSH2 0xD9B JUMP JUMPDEST PUSH2 0x3F2 JUMP JUMPDEST PUSH1 0x40 MLOAD PUSH2 0x13F SWAP2 SWAP1 PUSH2 0xDE0 JUMP JUMPDEST PUSH1 0x40 MLOAD DUP1 SWAP2 SUB SWAP1 RETURN JUMPDEST CALLVALUE DUP1 ISZERO PUSH2 0x153 JUMPI PUSH0 DUP1 REVERT JUMPDEST POP PUSH2 0x15C PUSH2 0x40E JUMP JUMPDEST PUSH1 0x40 MLOAD PUSH2 0x169 SWAP2 SWAP1 PUSH2 0xE11 JUMP JUMPDEST PUSH1 0x40 MLOAD DUP1 SWAP2 SUB SWAP1 RETURN JUMPDEST PUSH2 0x18C PUSH1 0x4 DUP1 CALLDATASIZE SUB DUP2 ADD SWAP1 PUSH2 0x187 SWAP2 SWAP1 PUSH2 0xE65 JUMP JUMPDEST PUSH2 0x415 JUMP JUMPDEST STOP JUMPDEST PUSH2 0x1A8 PUSH1 0x4 DUP1 CALLDATASIZE SUB DUP2 ADD SWAP1 PUSH2 0x1A3 SWAP2 SWAP1 PUSH2 0xEBA JUMP JUMPDEST PUSH2 0x53C JUMP JUMPDEST STOP JUMPDEST CALLVALUE DUP1 ISZERO PUSH2 0x1B5 JUMPI PUSH0 DUP1 REVERT JUMPDEST POP PUSH2 0x1D0 PUSH1 0x4 DUP1 CALLDATASIZE SUB DUP2 ADD SWAP1 PUSH2 0x1CB SWAP2 SWAP1 PUSH2 0xD9B JUMP JUMPDEST PUSH2 0x659 JUMP JUMPDEST PUSH1 0x40 MLOAD PUSH2 0x1DD SWAP2 SWAP1 PUSH2 0xE11 JUMP JUMPDEST PUSH1 0x40 MLOAD DUP1 SWAP2 SUB SWAP1 RETURN JUMPDEST CALLVALUE DUP1 ISZERO PUSH2 0x1F1 JUMPI PUSH0 DUP1 REVERT JUMPDEST POP PUSH2 0x1FA PUSH2 0x66E JUMP JUMPDEST PUSH1 0x40 MLOAD PUSH2 0x207 SWAP2 SWAP1 PUSH2 0xE11 JUMP JUMPDEST PUSH1 0x40 MLOAD DUP1 SWAP2 SUB SWAP1 RETURN JUMPDEST CALLVALUE DUP1 ISZERO PUSH2 0x21B JUMPI PUSH0 DUP1 REVERT JUMPDEST POP PUSH2 0x236 PUSH1 0x4 DUP1 CALLDATASIZE SUB DUP2 ADD SWAP1 PUSH2 0x231 SWAP2 SWAP1 PUSH2 0xD9B JUMP JUMPDEST PUSH2 0x674 JUMP JUMPDEST STOP JUMPDEST CALLVALUE DUP1 ISZERO PUSH2 0x243 JUMPI PUSH0 DUP1 REVERT JUMPDEST POP PUSH2 0x25E PUSH1 0x4 DUP1 CALLDATASIZE SUB DUP2 ADD SWAP1 PUSH2 0x259 SWAP2 SWAP1 PUSH2 0xEBA JUMP JUMPDEST PUSH2 0x753 JUMP JUMPDEST PUSH1 0x40 MLOAD PUSH2 0x26B SWAP2 SWAP1 PUSH2 0xEF4 JUMP JUMPDEST PUSH1 0x40 MLOAD DUP1 SWAP2 SUB SWAP1 RETURN JUMPDEST CALLVALUE DUP1 ISZERO PUSH2 0x27F JUMPI PUSH0 DUP1 REVERT JUMPDEST POP PUSH2 0x288 PUSH2 0x78E JUMP JUMPDEST PUSH1 0x40 MLOAD PUSH2 0x295 SWAP2 SWAP1 PUSH2 0xE11 JUMP JUMPDEST PUSH1 0x40 MLOAD DUP1 SWAP2 SUB SWAP1 RETURN JUMPDEST CALLVALUE DUP1 ISZERO PUSH2 0x2A9 JUMPI PUSH0 DUP1 REVERT JUMPDEST POP PUSH2 0x2B2 PUSH2 0x794 JUMP JUMPDEST PUSH1 0x40 MLOAD PUSH2 0x2BF SWAP2 SWAP1 PUSH2 0xE11 JUMP JUMPDEST PUSH1 0x40 MLOAD DUP1 SWAP2 SUB SWAP1 RETURN JUMPDEST CALLVALUE DUP1 ISZERO PUSH2 0x2D3 JUMPI PUSH0 DUP1 REVERT JUMPDEST POP PUSH2 0x2DC PUSH2 0x7A0 JUMP JUMPDEST PUSH1 0x40 MLOAD PUSH2 0x2E9 SWAP2 SWAP1 PUSH2 0xF7D JUMP JUMPDEST PUSH1 0x40 MLOAD DUP1 SWAP2 SUB SWAP1 RETURN JUMPDEST CALLVALUE DUP1 ISZERO PUSH2 0x2FD JUMPI PUSH0 DUP1 REVERT JUMPDEST POP PUSH2 0x318 PUSH1 0x4 DUP1 CALLDATASIZE SUB DUP2 ADD SWAP1 PUSH2 0x313 SWAP2 SWAP1 PUSH2 0xEBA JUMP JUMPDEST PUSH2 0x82C JUMP JUMPDEST STOP JUMPDEST PUSH2 0x322 PUSH2 0x8E7 JUMP JUMPDEST STOP JUMPDEST CALLVALUE DUP1 ISZERO PUSH2 0x32F JUMPI PUSH0 DUP1 REVERT JUMPDEST POP PUSH2 0x338 PUSH2 0xA98 JUMP JUMPDEST PUSH1 0x40 MLOAD PUSH2 0x345 SWAP2 SWAP1 PUSH2 0xE11 JUMP JUMPDEST PUSH1 0x40 MLOAD DUP1 SWAP2 SUB SWAP1 RETURN JUMPDEST CALLVALUE DUP1 ISZERO PUSH2 0x359 JUMPI PUSH0 DUP1 REVERT JUMPDEST POP PUSH2 0x374 PUSH1 0x4 DUP1 CALLDATASIZE SUB DUP2 ADD SWAP1 PUSH2 0x36F SWAP2 SWAP1 PUSH2 0xD9B JUMP JUMPDEST PUSH2 0xA9E JUMP JUMPDEST STOP JUMPDEST CALLVALUE DUP1 ISZERO PUSH2 0x381 JUMPI PUSH0 DUP1 REVERT JUMPDEST POP PUSH2 0x39C PUSH1 0x4 DUP1 CALLDATASIZE SUB DUP2 ADD SWAP1 PUSH2 0x397 SWAP2 SWAP1 PUSH2 0xF9D JUMP JUMPDEST PUSH2 0xB83 JUMP JUMPDEST STOP JUMPDEST CALLVALUE DUP1 ISZERO PUSH2 0x3A9 JUMPI PUSH0 DUP1 REVERT JUMPDEST POP PUSH2 0x3B2 PUSH2 0xCED JUMP JUMPDEST PUSH1 0x40 MLOAD PUSH2 0x3BF SWAP2 SWAP1 PUSH2 0xEF4 JUMP JUMPDEST PUSH1 0x40 MLOAD DUP1 SWAP2 SUB SWAP1 RETURN JUMPDEST CALLVALUE DUP1 ISZERO PUSH2 0x3D3 JUMPI PUSH0 DUP1 REVERT JUMPDEST POP PUSH2 0x3DC PUSH2 0xD12 JUMP JUMPDEST PUSH1 0x40 MLOAD PUSH2 0x3E9 SWAP2 SWAP1 PUSH2 0xE11 JUMP JUMPDEST PUSH1 0x40 MLOAD DUP1 SWAP2 SUB SWAP1 RETURN JUMPDEST PUSH0 PUSH1 0x20 MSTORE DUP1 PUSH0 MSTORE PUSH1 0x40 PUSH0 KECCAK256 PUSH0 SWAP2 POP SLOAD SWAP1 PUSH2 0x100 EXP SWAP1 DIV PUSH1 0xFF AND DUP2 JUMP JUMPDEST PUSH0 SELFBALANCE SWAP1 POP SWAP1 JUMP JUMPDEST PUSH0 DUP1 CALLER PUSH20 0xFFFFFFFFFFFFFFFFFFFFFFFFFFFFFFFFFFFFFFFF AND PUSH20 0xFFFFFFFFFFFFFFFFFFFFFFFFFFFFFFFFFFFFFFFF AND DUP2 MSTORE PUSH1 0x20 ADD SWAP1 DUP2 MSTORE PUSH1 0x20 ADD PUSH0 KECCAK256 PUSH0 SWAP1 SLOAD SWAP1 PUSH2 0x100 EXP SWAP1 DIV PUSH1 0xFF AND PUSH2 0x49D JUMPI PUSH1 0x40 MLOAD PUSH32 0x8C379A000000000000000000000000000000000000000000000000000000000 DUP2 MSTORE PUSH1 0x4 ADD PUSH2 0x494 SWAP1 PUSH2 0x1025 JUMP JUMPDEST PUSH1 0x40 MLOAD DUP1 SWAP2 SUB SWAP1 REVERT JUMPDEST PUSH0 DUP1 DUP3 PUSH20 0xFFFFFFFFFFFFFFFFFFFFFFFFFFFFFFFFFFFFFFFF AND PUSH20 0xFFFFFFFFFFFFFFFFFFFFFFFFFFFFFFFFFFFFFFFF AND DUP2 MSTORE PUSH1 0x20 ADD SWAP1 DUP2 MSTORE PUSH1 0x20 ADD PUSH0 KECCAK256 PUSH0 SWAP1 SLOAD SWAP1 PUSH2 0x100 EXP SWAP1 DIV PUSH1 0xFF AND PUSH2 0x4EE JUMPI PUSH0 DUP1 REVERT JUMPDEST DUP1 PUSH20 0xFFFFFFFFFFFFFFFFFFFFFFFFFFFFFFFFFFFFFFFF AND PUSH2 0x8FC PUSH2 0x510 PUSH2 0x40E JUMP JUMPDEST SWAP1 DUP2 ISZERO MUL SWAP1 PUSH1 0x40 MLOAD PUSH0 PUSH1 0x40 MLOAD DUP1 DUP4 SUB DUP2 DUP6 DUP9 DUP9 CALL SWAP4 POP POP POP POP ISZERO DUP1 ISZERO PUSH2 0x538 JUMPI RETURNDATASIZE PUSH0 DUP1 RETURNDATACOPY RETURNDATASIZE PUSH0 REVERT JUMPDEST POP POP JUMP JUMPDEST PUSH0 PUSH1 0x6 PUSH0 CALLER PUSH20 0xFFFFFFFFFFFFFFFFFFFFFFFFFFFFFFFFFFFFFFFF AND PUSH20 0xFFFFFFFFFFFFFFFFFFFFFFFFFFFFFFFFFFFFFFFF AND DUP2 MSTORE PUSH1 0x20 ADD SWAP1 DUP2 MSTORE PUSH1 0x20 ADD PUSH0 KECCAK256 SLOAD SWAP1 POP DUP1 DUP3 GT ISZERO PUSH2 0x589 JUMPI PUSH0 DUP1 REVERT JUMPDEST PUSH0 DUP3 GT PUSH2 0x594 JUMPI PUSH0 DUP1 REVERT JUMPDEST DUP2 PUSH1 0x6 PUSH0 CALLER PUSH20 0xFFFFFFFFFFFFFFFFFFFFFFFFFFFFFFFFFFFFFFFF AND PUSH20 0xFFFFFFFFFFFFFFFFFFFFFFFFFFFFFFFFFFFFFFFF AND DUP2 MSTORE PUSH1 0x20 ADD SWAP1 DUP2 MSTORE PUSH1 0x20 ADD PUSH0 KECCAK256 PUSH0 DUP3 DUP3 SLOAD PUSH2 0x5E0 SWAP2 SWAP1 PUSH2 0x1070 JUMP JUMPDEST SWAP3 POP POP DUP2 SWAP1 SSTORE POP DUP2 PUSH1 0x5 PUSH0 DUP3 DUP3 SLOAD PUSH2 0x5F8 SWAP2 SWAP1 PUSH2 0x10A3 JUMP JUMPDEST SWAP3 POP POP DUP2 SWAP1 SSTORE POP CALLER PUSH20 0xFFFFFFFFFFFFFFFFFFFFFFFFFFFFFFFFFFFFFFFF AND PUSH2 0x8FC PUSH2 0x621 PUSH2 0x794 JUMP JUMPDEST DUP5 PUSH2 0x62C SWAP2 SWAP1 PUSH2 0x10D6 JUMP JUMPDEST SWAP1 DUP2 ISZERO MUL SWAP1 PUSH1 0x40 MLOAD PUSH0 PUSH1 0x40 MLOAD DUP1 DUP4 SUB DUP2 DUP6 DUP9 DUP9 CALL SWAP4 POP POP POP POP ISZERO DUP1 ISZERO PUSH2 0x654 JUMPI RETURNDATASIZE PUSH0 DUP1 RETURNDATACOPY RETURNDATASIZE PUSH0 REVERT JUMPDEST POP POP POP JUMP JUMPDEST PUSH1 0x6 PUSH1 0x20 MSTORE DUP1 PUSH0 MSTORE PUSH1 0x40 PUSH0 KECCAK256 PUSH0 SWAP2 POP SWAP1 POP SLOAD DUP2 JUMP JUMPDEST PUSH1 0x8 SLOAD DUP2 JUMP JUMPDEST PUSH0 DUP1 CALLER PUSH20 0xFFFFFFFFFFFFFFFFFFFFFFFFFFFFFFFFFFFFFFFF AND PUSH20 0xFFFFFFFFFFFFFFFFFFFFFFFFFFFFFFFFFFFFFFFF AND DUP2 MSTORE PUSH1 0x20 ADD SWAP1 DUP2 MSTORE PUSH1 0x20 ADD PUSH0 KECCAK256 PUSH0 SWAP1 SLOAD SWAP1 PUSH2 0x100 EXP SWAP1 DIV PUSH1 0xFF AND PUSH2 0x6FC JUMPI PUSH1 0x40 MLOAD PUSH32 0x8C379A000000000000000000000000000000000000000000000000000000000 DUP2 MSTORE PUSH1 0x4 ADD PUSH2 0x6F3 SWAP1 PUSH2 0x1025 JUMP JUMPDEST PUSH1 0x40 MLOAD DUP1 SWAP2 SUB SWAP1 REVERT JUMPDEST PUSH1 0x1 PUSH0 DUP1 DUP4 PUSH20 0xFFFFFFFFFFFFFFFFFFFFFFFFFFFFFFFFFFFFFFFF AND PUSH20 0xFFFFFFFFFFFFFFFFFFFFFFFFFFFFFFFFFFFFFFFF AND DUP2 MSTORE PUSH1 0x20 ADD SWAP1 DUP2 MSTORE PUSH1 0x20 ADD PUSH0 KECCAK256 PUSH0 PUSH2 0x100 EXP DUP2 SLOAD DUP2 PUSH1 0xFF MUL NOT AND SWAP1 DUP4 ISZERO ISZERO MUL OR SWAP1 SSTORE POP POP JUMP JUMPDEST PUSH1 0x2 DUP2 DUP2 SLOAD DUP2 LT PUSH2 0x762 JUMPI PUSH0 DUP1 REVERT JUMPDEST SWAP1 PUSH0 MSTORE PUSH1 0x20 PUSH0 KECCAK256 ADD PUSH0 SWAP2 POP SLOAD SWAP1 PUSH2 0x100 EXP SWAP1 DIV PUSH20 0xFFFFFFFFFFFFFFFFFFFFFFFFFFFFFFFFFFFFFFFF AND DUP2 JUMP JUMPDEST PUSH1 0x5 SLOAD DUP2 JUMP JUMPDEST PUSH0 PUSH5 0xE8D4A51000 SWAP1 POP SWAP1 JUMP JUMPDEST PUSH1 0x7 DUP1 SLOAD PUSH2 0x7AD SWAP1 PUSH2 0x1144 JUMP JUMPDEST DUP1 PUSH1 0x1F ADD PUSH1 0x20 DUP1 SWAP2 DIV MUL PUSH1 0x20 ADD PUSH1 0x40 MLOAD SWAP1 DUP2 ADD PUSH1 0x40 MSTORE DUP1 SWAP3 SWAP2 SWAP1 DUP2 DUP2 MSTORE PUSH1 0x20 ADD DUP3 DUP1 SLOAD PUSH2 0x7D9 SWAP1 PUSH2 0x1144 JUMP JUMPDEST DUP1 ISZERO PUSH2 0x824 JUMPI DUP1 PUSH1 0x1F LT PUSH2 0x7FB JUMPI PUSH2 0x100 DUP1 DUP4 SLOAD DIV MUL DUP4 MSTORE SWAP2 PUSH1 0x20 ADD SWAP2 PUSH2 0x824 JUMP JUMPDEST DUP3 ADD SWAP2 SWAP1 PUSH0 MSTORE PUSH1 0x20 PUSH0 KECCAK256 SWAP1 JUMPDEST DUP2 SLOAD DUP2 MSTORE SWAP1 PUSH1 0x1 ADD SWAP1 PUSH1 0x20 ADD DUP1 DUP4 GT PUSH2 0x807 JUMPI DUP3 SWAP1 SUB PUSH1 0x1F AND DUP3 ADD SWAP2 JUMPDEST POP POP POP POP POP DUP2 JUMP JUMPDEST PUSH0 DUP1 CALLER PUSH20 0xFFFFFFFFFFFFFFFFFFFFFFFFFFFFFFFFFFFFFFFF AND PUSH20 0xFFFFFFFFFFFFFFFFFFFFFFFFFFFFFFFFFFFFFFFF AND DUP2 MSTORE PUSH1 0x20 ADD SWAP1 DUP2 MSTORE PUSH1 0x20 ADD PUSH0 KECCAK256 PUSH0 SWAP1 SLOAD SWAP1 PUSH2 0x100 EXP SWAP1 DIV PUSH1 0xFF AND PUSH2 0x8B4 JUMPI PUSH1 0x40 MLOAD PUSH32 0x8C379A000000000000000000000000000000000000000000000000000000000 DUP2 MSTORE PUSH1 0x4 ADD PUSH2 0x8AB SWAP1 PUSH2 0x1025 JUMP JUMPDEST PUSH1 0x40 MLOAD DUP1 SWAP2 SUB SWAP1 REVERT JUMPDEST DUP1 PUSH1 0x4 PUSH0 DUP3 DUP3 SLOAD PUSH2 0x8C5 SWAP2 SWAP1 PUSH2 0x10A3 JUMP JUMPDEST SWAP3 POP POP DUP2 SWAP1 SSTORE POP DUP1 PUSH1 0x5 PUSH0 DUP3 DUP3 SLOAD PUSH2 0x8DD SWAP2 SWAP1 PUSH2 0x10A3 JUMP JUMPDEST SWAP3 POP POP DUP2 SWAP1 SSTORE POP POP JUMP JUMPDEST PUSH0 PUSH2 0x8F0 PUSH2 0x794 JUMP JUMPDEST SWAP1 POP PUSH0 PUSH2 0x8FD CALLVALUE DUP4 PUSH2 0xD18 JUMP JUMPDEST SWAP1 POP PUSH0 DUP2 GT PUSH2 0x90A JUMPI PUSH0 DUP1 REVERT JUMPDEST PUSH1 0x5 SLOAD DUP2 LT PUSH2 0x94E JUMPI PUSH1 0x5 SLOAD SWAP1 POP PUSH32 0xDED73D9B7994988FC49241F75C8F6577AD0070900FF55FFE76E498CF7E03BEF4 PUSH1 0x40 MLOAD PUSH2 0x945 SWAP1 PUSH2 0x11BE JUMP JUMPDEST PUSH1 0x40 MLOAD DUP1 SWAP2 SUB SWAP1 LOG1 JUMPDEST PUSH0 DUP2 DUP4 PUSH2 0x95B SWAP2 SWAP1 PUSH2 0x10D6 JUMP JUMPDEST SWAP1 POP PUSH0 DUP2 CALLVALUE PUSH2 0x96A SWAP2 SWAP1 PUSH2 0x1070 JUMP JUMPDEST SWAP1 POP CALLER PUSH20 0xFFFFFFFFFFFFFFFFFFFFFFFFFFFFFFFFFFFFFFFF AND PUSH2 0x8FC DUP3 SWAP1 DUP2 ISZERO MUL SWAP1 PUSH1 0x40 MLOAD PUSH0 PUSH1 0x40 MLOAD DUP1 DUP4 SUB DUP2 DUP6 DUP9 DUP9 CALL SWAP4 POP POP POP POP ISZERO DUP1 ISZERO PUSH2 0x9AF JUMPI RETURNDATASIZE PUSH0 DUP1 RETURNDATACOPY RETURNDATASIZE PUSH0 REVERT JUMPDEST POP DUP3 PUSH1 0x6 PUSH0 CALLER PUSH20 0xFFFFFFFFFFFFFFFFFFFFFFFFFFFFFFFFFFFFFFFF AND PUSH20 0xFFFFFFFFFFFFFFFFFFFFFFFFFFFFFFFFFFFFFFFF AND DUP2 MSTORE PUSH1 0x20 ADD SWAP1 DUP2 MSTORE PUSH1 0x20 ADD PUSH0 KECCAK256 PUSH0 DUP3 DUP3 SLOAD PUSH2 0x9FC SWAP2 SWAP1 PUSH2 0x10A3 JUMP JUMPDEST SWAP3 POP POP DUP2 SWAP1 SSTORE POP DUP3 PUSH1 0x5 PUSH0 DUP3 DUP3 SLOAD PUSH2 0xA14 SWAP2 SWAP1 PUSH2 0x1070 JUMP JUMPDEST SWAP3 POP POP DUP2 SWAP1 SSTORE POP PUSH1 0x3 PUSH0 DUP2 SLOAD DUP1 SWAP3 SWAP2 SWAP1 PUSH2 0xA2D SWAP1 PUSH2 0x11DC JUMP JUMPDEST SWAP2 SWAP1 POP SSTORE POP PUSH1 0x2 CALLER SWAP1 DUP1 PUSH1 0x1 DUP2 SLOAD ADD DUP1 DUP3 SSTORE DUP1 SWAP2 POP POP PUSH1 0x1 SWAP1 SUB SWAP1 PUSH0 MSTORE PUSH1 0x20 PUSH0 KECCAK256 ADD PUSH0 SWAP1 SWAP2 SWAP1 SWAP2 SWAP1 SWAP2 PUSH2 0x100 EXP DUP2 SLOAD DUP2 PUSH20 0xFFFFFFFFFFFFFFFFFFFFFFFFFFFFFFFFFFFFFFFF MUL NOT AND SWAP1 DUP4 PUSH20 0xFFFFFFFFFFFFFFFFFFFFFFFFFFFFFFFFFFFFFFFF AND MUL OR SWAP1 SSTORE POP POP POP POP POP JUMP JUMPDEST PUSH1 0x4 SLOAD DUP2 JUMP JUMPDEST CALLER PUSH20 0xFFFFFFFFFFFFFFFFFFFFFFFFFFFFFFFFFFFFFFFF AND PUSH1 0x1 PUSH0 SWAP1 SLOAD SWAP1 PUSH2 0x100 EXP SWAP1 DIV PUSH20 0xFFFFFFFFFFFFFFFFFFFFFFFFFFFFFFFFFFFFFFFF AND PUSH20 0xFFFFFFFFFFFFFFFFFFFFFFFFFFFFFFFFFFFFFFFF AND EQ PUSH2 0xB2D JUMPI PUSH1 0x40 MLOAD PUSH32 0x8C379A000000000000000000000000000000000000000000000000000000000 DUP2 MSTORE PUSH1 0x4 ADD PUSH2 0xB24 SWAP1 PUSH2 0x126D JUMP JUMPDEST PUSH1 0x40 MLOAD DUP1 SWAP2 SUB SWAP1 REVERT JUMPDEST PUSH0 DUP1 PUSH0 DUP4 PUSH20 0xFFFFFFFFFFFFFFFFFFFFFFFFFFFFFFFFFFFFFFFF AND PUSH20 0xFFFFFFFFFFFFFFFFFFFFFFFFFFFFFFFFFFFFFFFF AND DUP2 MSTORE PUSH1 0x20 ADD SWAP1 DUP2 MSTORE PUSH1 0x20 ADD PUSH0 KECCAK256 PUSH0 PUSH2 0x100 EXP DUP2 SLOAD DUP2 PUSH1 0xFF MUL NOT AND SWAP1 DUP4 ISZERO ISZERO MUL OR SWAP1 SSTORE POP POP JUMP JUMPDEST PUSH1 0x6 PUSH0 CALLER PUSH20 0xFFFFFFFFFFFFFFFFFFFFFFFFFFFFFFFFFFFFFFFF AND PUSH20 0xFFFFFFFFFFFFFFFFFFFFFFFFFFFFFFFFFFFFFFFF AND DUP2 MSTORE PUSH1 0x20 ADD SWAP1 DUP2 MSTORE PUSH1 0x20 ADD PUSH0 KECCAK256 SLOAD DUP2 GT ISZERO PUSH2 0xBCC JUMPI PUSH0 DUP1 REVERT JUMPDEST DUP1 PUSH1 0x6 PUSH0 CALLER PUSH20 0xFFFFFFFFFFFFFFFFFFFFFFFFFFFFFFFFFFFFFFFF AND PUSH20 0xFFFFFFFFFFFFFFFFFFFFFFFFFFFFFFFFFFFFFFFF AND DUP2 MSTORE PUSH1 0x20 ADD SWAP1 DUP2 MSTORE PUSH1 0x20 ADD PUSH0 KECCAK256 PUSH0 DUP3 DUP3 SLOAD PUSH2 0xC18 SWAP2 SWAP1 PUSH2 0x1070 JUMP JUMPDEST SWAP3 POP POP DUP2 SWAP1 SSTORE POP DUP1 PUSH1 0x6 PUSH0 DUP5 PUSH20 0xFFFFFFFFFFFFFFFFFFFFFFFFFFFFFFFFFFFFFFFF AND PUSH20 0xFFFFFFFFFFFFFFFFFFFFFFFFFFFFFFFFFFFFFFFF AND DUP2 MSTORE PUSH1 0x20 ADD SWAP1 DUP2 MSTORE PUSH1 0x20 ADD PUSH0 KECCAK256 PUSH0 DUP3 DUP3 SLOAD PUSH2 0xC6B SWAP2 SWAP1 PUSH2 0x10A3 JUMP JUMPDEST SWAP3 POP POP DUP2 SWAP1 SSTORE POP PUSH1 0x3 PUSH0 DUP2 SLOAD DUP1 SWAP3 SWAP2 SWAP1 PUSH2 0xC84 SWAP1 PUSH2 0x11DC JUMP JUMPDEST SWAP2 SWAP1 POP SSTORE POP PUSH1 0x2 DUP3 SWAP1 DUP1 PUSH1 0x1 DUP2 SLOAD ADD DUP1 DUP3 SSTORE DUP1 SWAP2 POP POP PUSH1 0x1 SWAP1 SUB SWAP1 PUSH0 MSTORE PUSH1 0x20 PUSH0 KECCAK256 ADD PUSH0 SWAP1 SWAP2 SWAP1 SWAP2 SWAP1 SWAP2 PUSH2 0x100 EXP DUP2 SLOAD DUP2 PUSH20 0xFFFFFFFFFFFFFFFFFFFFFFFFFFFFFFFFFFFFFFFF MUL NOT AND SWAP1 DUP4 PUSH20 0xFFFFFFFFFFFFFFFFFFFFFFFFFFFFFFFFFFFFFFFF AND MUL OR SWAP1 SSTORE POP POP POP JUMP JUMPDEST PUSH1 0x1 PUSH0 SWAP1 SLOAD SWAP1 PUSH2 0x100 EXP SWAP1 DIV PUSH20 0xFFFFFFFFFFFFFFFFFFFFFFFFFFFFFFFFFFFFFFFF AND DUP2 JUMP JUMPDEST PUSH1 0x3 SLOAD DUP2 JUMP JUMPDEST PUSH0 DUP1 DUP3 GT PUSH2 0xD24 JUMPI PUSH0 DUP1 REVERT JUMPDEST PUSH0 DUP3 DUP5 PUSH2 0xD31 SWAP2 SWAP1 PUSH2 0x12B8 JUMP JUMPDEST SWAP1 POP DUP1 SWAP2 POP POP SWAP3 SWAP2 POP POP JUMP JUMPDEST PUSH0 DUP1 REVERT JUMPDEST PUSH0 PUSH20 0xFFFFFFFFFFFFFFFFFFFFFFFFFFFFFFFFFFFFFFFF DUP3 AND SWAP1 POP SWAP2 SWAP1 POP JUMP JUMPDEST PUSH0 PUSH2 0xD6A DUP3 PUSH2 0xD41 JUMP JUMPDEST SWAP1 POP SWAP2 SWAP1 POP JUMP JUMPDEST PUSH2 0xD7A DUP2 PUSH2 0xD60 JUMP JUMPDEST DUP2 EQ PUSH2 0xD84 JUMPI PUSH0 DUP1 REVERT JUMPDEST POP JUMP JUMPDEST PUSH0 DUP2 CALLDATALOAD SWAP1 POP PUSH2 0xD95 DUP2 PUSH2 0xD71 JUMP JUMPDEST SWAP3 SWAP2 POP POP JUMP JUMPDEST PUSH0 PUSH1 0x20 DUP3 DUP5 SUB SLT ISZERO PUSH2 0xDB0 JUMPI PUSH2 0xDAF PUSH2 0xD3D JUMP JUMPDEST JUMPDEST PUSH0 PUSH2 0xDBD DUP5 DUP3 DUP6 ADD PUSH2 0xD87 JUMP JUMPDEST SWAP2 POP POP SWAP3 SWAP2 POP POP JUMP JUMPDEST PUSH0 DUP2 ISZERO ISZERO SWAP1 POP SWAP2 SWAP1 POP JUMP JUMPDEST PUSH2 0xDDA DUP2 PUSH2 0xDC6 JUMP JUMPDEST DUP3 MSTORE POP POP JUMP JUMPDEST PUSH0 PUSH1 0x20 DUP3 ADD SWAP1 POP PUSH2 0xDF3 PUSH0 DUP4 ADD DUP5 PUSH2 0xDD1 JUMP JUMPDEST SWAP3 SWAP2 POP POP JUMP JUMPDEST PUSH0 DUP2 SWAP1 POP SWAP2 SWAP1 POP JUMP JUMPDEST PUSH2 0xE0B DUP2 PUSH2 0xDF9 JUMP JUMPDEST DUP3 MSTORE POP POP JUMP JUMPDEST PUSH0 PUSH1 0x20 DUP3 ADD SWAP1 POP PUSH2 0xE24 PUSH0 DUP4 ADD DUP5 PUSH2 0xE02 JUMP JUMPDEST SWAP3 SWAP2 POP POP JUMP JUMPDEST PUSH0 PUSH2 0xE34 DUP3 PUSH2 0xD41 JUMP JUMPDEST SWAP1 POP SWAP2 SWAP1 POP JUMP JUMPDEST PUSH2 0xE44 DUP2 PUSH2 0xE2A JUMP JUMPDEST DUP2 EQ PUSH2 0xE4E JUMPI PUSH0 DUP1 REVERT JUMPDEST POP JUMP JUMPDEST PUSH0 DUP2 CALLDATALOAD SWAP1 POP PUSH2 0xE5F DUP2 PUSH2 0xE3B JUMP JUMPDEST SWAP3 SWAP2 POP POP JUMP JUMPDEST PUSH0 PUSH1 0x20 DUP3 DUP5 SUB SLT ISZERO PUSH2 0xE7A JUMPI PUSH2 0xE79 PUSH2 0xD3D JUMP JUMPDEST JUMPDEST PUSH0 PUSH2 0xE87 DUP5 DUP3 DUP6 ADD PUSH2 0xE51 JUMP JUMPDEST SWAP2 POP POP SWAP3 SWAP2 POP POP JUMP JUMPDEST PUSH2 0xE99 DUP2 PUSH2 0xDF9 JUMP JUMPDEST DUP2 EQ PUSH2 0xEA3 JUMPI PUSH0 DUP1 REVERT JUMPDEST POP JUMP JUMPDEST PUSH0 DUP2 CALLDATALOAD SWAP1 POP PUSH2 0xEB4 DUP2 PUSH2 0xE90 JUMP JUMPDEST SWAP3 SWAP2 POP POP JUMP JUMPDEST PUSH0 PUSH1 0x20 DUP3 DUP5 SUB SLT ISZERO PUSH2 0xECF JUMPI PUSH2 0xECE PUSH2 0xD3D JUMP JUMPDEST JUMPDEST PUSH0 PUSH2 0xEDC DUP5 DUP3 DUP6 ADD PUSH2 0xEA6 JUMP JUMPDEST SWAP2 POP POP SWAP3 SWAP2 POP POP JUMP JUMPDEST PUSH2 0xEEE DUP2 PUSH2 0xD60 JUMP JUMPDEST DUP3 MSTORE POP POP JUMP JUMPDEST PUSH0 PUSH1 0x20 DUP3 ADD SWAP1 POP PUSH2 0xF07 PUSH0 DUP4 ADD DUP5 PUSH2 0xEE5 JUMP JUMPDEST SWAP3 SWAP2 POP POP JUMP JUMPDEST PUSH0 DUP2 MLOAD SWAP1 POP SWAP2 SWAP1 POP JUMP JUMPDEST PUSH0 DUP3 DUP3 MSTORE PUSH1 0x20 DUP3 ADD SWAP1 POP SWAP3 SWAP2 POP POP JUMP JUMPDEST DUP3 DUP2 DUP4 MCOPY PUSH0 DUP4 DUP4 ADD MSTORE POP POP POP JUMP JUMPDEST PUSH0 PUSH1 0x1F NOT PUSH1 0x1F DUP4 ADD AND SWAP1 POP SWAP2 SWAP1 POP JUMP JUMPDEST PUSH0 PUSH2 0xF4F DUP3 PUSH2 0xF0D JUMP JUMPDEST PUSH2 0xF59 DUP2 DUP6 PUSH2 0xF17 JUMP JUMPDEST SWAP4 POP PUSH2 0xF69 DUP2 DUP6 PUSH1 0x20 DUP7 ADD PUSH2 0xF27 JUMP JUMPDEST PUSH2 0xF72 DUP2 PUSH2 0xF35 JUMP JUMPDEST DUP5 ADD SWAP2 POP POP SWAP3 SWAP2 POP POP JUMP JUMPDEST PUSH0 PUSH1 0x20 DUP3 ADD SWAP1 POP DUP2 DUP2 SUB PUSH0 DUP4 ADD MSTORE PUSH2 0xF95 DUP2 DUP5 PUSH2 0xF45 JUMP JUMPDEST SWAP1 POP SWAP3 SWAP2 POP POP JUMP JUMPDEST PUSH0 DUP1 PUSH1 0x40 DUP4 DUP6 SUB SLT ISZERO PUSH2 0xFB3 JUMPI PUSH2 0xFB2 PUSH2 0xD3D JUMP JUMPDEST JUMPDEST PUSH0 PUSH2 0xFC0 DUP6 DUP3 DUP7 ADD PUSH2 0xD87 JUMP JUMPDEST SWAP3 POP POP PUSH1 0x20 PUSH2 0xFD1 DUP6 DUP3 DUP7 ADD PUSH2 0xEA6 JUMP JUMPDEST SWAP2 POP POP SWAP3 POP SWAP3 SWAP1 POP JUMP JUMPDEST PUSH32 0x6F776E6572206F6E6C7900000000000000000000000000000000000000000000 PUSH0 DUP3 ADD MSTORE POP JUMP JUMPDEST PUSH0 PUSH2 0x100F PUSH1 0xA DUP4 PUSH2 0xF17 JUMP JUMPDEST SWAP2 POP PUSH2 0x101A DUP3 PUSH2 0xFDB JUMP JUMPDEST PUSH1 0x20 DUP3 ADD SWAP1 POP SWAP2 SWAP1 POP JUMP JUMPDEST PUSH0 PUSH1 0x20 DUP3 ADD SWAP1 POP DUP2 DUP2 SUB PUSH0 DUP4 ADD MSTORE PUSH2 0x103C DUP2 PUSH2 0x1003 JUMP JUMPDEST SWAP1 POP SWAP2 SWAP1 POP JUMP JUMPDEST PUSH32 0x4E487B7100000000000000000000000000000000000000000000000000000000 PUSH0 MSTORE PUSH1 0x11 PUSH1 0x4 MSTORE PUSH1 0x24 PUSH0 REVERT JUMPDEST PUSH0 PUSH2 0x107A DUP3 PUSH2 0xDF9 JUMP JUMPDEST SWAP2 POP PUSH2 0x1085 DUP4 PUSH2 0xDF9 JUMP JUMPDEST SWAP3 POP DUP3 DUP3 SUB SWAP1 POP DUP2 DUP2 GT ISZERO PUSH2 0x109D JUMPI PUSH2 0x109C PUSH2 0x1043 JUMP JUMPDEST JUMPDEST SWAP3 SWAP2 POP POP JUMP JUMPDEST PUSH0 PUSH2 0x10AD DUP3 PUSH2 0xDF9 JUMP JUMPDEST SWAP2 POP PUSH2 0x10B8 DUP4 PUSH2 0xDF9 JUMP JUMPDEST SWAP3 POP DUP3 DUP3 ADD SWAP1 POP DUP1 DUP3 GT ISZERO PUSH2 0x10D0 JUMPI PUSH2 0x10CF PUSH2 0x1043 JUMP JUMPDEST JUMPDEST SWAP3 SWAP2 POP POP JUMP JUMPDEST PUSH0 PUSH2 0x10E0 DUP3 PUSH2 0xDF9 JUMP JUMPDEST SWAP2 POP PUSH2 0x10EB DUP4 PUSH2 0xDF9 JUMP JUMPDEST SWAP3 POP DUP3 DUP3 MUL PUSH2 0x10F9 DUP2 PUSH2 0xDF9 JUMP JUMPDEST SWAP2 POP DUP3 DUP3 DIV DUP5 EQ DUP4 ISZERO OR PUSH2 0x1110 JUMPI PUSH2 0x110F PUSH2 0x1043 JUMP JUMPDEST JUMPDEST POP SWAP3 SWAP2 POP POP JUMP JUMPDEST PUSH32 0x4E487B7100000000000000000000000000000000000000000000000000000000 PUSH0 MSTORE PUSH1 0x22 PUSH1 0x4 MSTORE PUSH1 0x24 PUSH0 REVERT JUMPDEST PUSH0 PUSH1 0x2 DUP3 DIV SWAP1 POP PUSH1 0x1 DUP3 AND DUP1 PUSH2 0x115B JUMPI PUSH1 0x7F DUP3 AND SWAP2 POP JUMPDEST PUSH1 0x20 DUP3 LT DUP2 SUB PUSH2 0x116E JUMPI PUSH2 0x116D PUSH2 0x1117 JUMP JUMPDEST JUMPDEST POP SWAP2 SWAP1 POP JUMP JUMPDEST PUSH32 0x596F7520626F756768742065766572797468696E672100000000000000000000 PUSH0 DUP3 ADD MSTORE POP JUMP JUMPDEST PUSH0 PUSH2 0x11A8 PUSH1 0x16 DUP4 PUSH2 0xF17 JUMP JUMPDEST SWAP2 POP PUSH2 0x11B3 DUP3 PUSH2 0x1174 JUMP JUMPDEST PUSH1 0x20 DUP3 ADD SWAP1 POP SWAP2 SWAP1 POP JUMP JUMPDEST PUSH0 PUSH1 0x20 DUP3 ADD SWAP1 POP DUP2 DUP2 SUB PUSH0 DUP4 ADD MSTORE PUSH2 0x11D5 DUP2 PUSH2 0x119C JUMP JUMPDEST SWAP1 POP SWAP2 SWAP1 POP JUMP JUMPDEST PUSH0 PUSH2 0x11E6 DUP3 PUSH2 0xDF9 JUMP JUMPDEST SWAP2 POP PUSH32 0xFFFFFFFFFFFFFFFFFFFFFFFFFFFFFFFFFFFFFFFFFFFFFFFFFFFFFFFFFFFFFFFF DUP3 SUB PUSH2 0x1218 JUMPI PUSH2 0x1217 PUSH2 0x1043 JUMP JUMPDEST JUMPDEST PUSH1 0x1 DUP3 ADD SWAP1 POP SWAP2 SWAP1 POP JUMP JUMPDEST PUSH32 0x6F67206F776E6572206F6E6C7900000000000000000000000000000000000000 PUSH0 DUP3 ADD MSTORE POP JUMP JUMPDEST PUSH0 PUSH2 0x1257 PUSH1 0xD DUP4 PUSH2 0xF17 JUMP JUMPDEST SWAP2 POP PUSH2 0x1262 DUP3 PUSH2 0x1223 JUMP JUMPDEST PUSH1 0x20 DUP3 ADD SWAP1 POP SWAP2 SWAP1 POP JUMP JUMPDEST PUSH0 PUSH1 0x20 DUP3 ADD SWAP1 POP DUP2 DUP2 SUB PUSH0 DUP4 ADD MSTORE PUSH2 0x1284 DUP2 PUSH2 0x124B JUMP JUMPDEST SWAP1 POP SWAP2 SWAP1 POP JUMP JUMPDEST PUSH32 0x4E487B7100000000000000000000000000000000000000000000000000000000 PUSH0 MSTORE PUSH1 0x12 PUSH1 0x4 MSTORE PUSH1 0x24 PUSH0 REVERT JUMPDEST PUSH0 PUSH2 0x12C2 DUP3 PUSH2 0xDF9 JUMP JUMPDEST SWAP2 POP PUSH2 0x12CD DUP4 PUSH2 0xDF9 JUMP JUMPDEST SWAP3 POP DUP3 PUSH2 0x12DD JUMPI PUSH2 0x12DC PUSH2 0x128B JUMP JUMPDEST JUMPDEST DUP3 DUP3 DIV SWAP1 POP SWAP3 SWAP2 POP POP JUMP INVALID LOG2 PUSH5 0x6970667358 0x22 SLT KECCAK256 PUSH13 0x6C977DC67F9A95FB52D37AF5C3 0xE2 0x22 CALL 0xDA DUP8 0x2D SDIV ADDRESS CREATE2 EQ PUSH28 0x51134F9C2DA75E64736F6C634300081A003300000000000000000000 "
				},
				"gasEstimates": {
					"creation": {
						"codeDepositCost": "978800",
						"executionCost": "infinite",
						"totalCost": "infinite"
					},
					"external": {
						"addOwner(address)": "27109",
						"balances(address)": "2825",
						"buyToken()": "infinite",
						"compute_token_value()": "355",
						"deleteOwner(address)": "27015",
						"getBalance()": "380",
						"hodlerCount()": "2535",
						"hodlers(uint256)": "5033",
						"mint(uint256)": "infinite",
						"originalOwner()": "2596",
						"ownerPayout(address)": "infinite",
						"owners(address)": "2856",
						"sellToken(uint256)": "infinite",
						"send(address,uint256)": "infinite",
						"symbol()": "infinite",
						"tokens_remaining()": "2536",
						"total_tokens()": "2447",
						"version()": "2470"
					}
				},
				"methodIdentifiers": {
					"addOwner(address)": "7065cb48",
					"balances(address)": "27e235e3",
					"buyToken()": "a4821719",
					"compute_token_value()": "8c8a9606",
					"deleteOwner(address)": "cd5c4c70",
					"getBalance()": "12065fe0",
					"hodlerCount()": "fd1b6f2b",
					"hodlers(uint256)": "7a3b1e86",
					"mint(uint256)": "a0712d68",
					"originalOwner()": "f1fffdcb",
					"ownerPayout(address)": "1828db82",
					"owners(address)": "022914a7",
					"sellToken(uint256)": "2397e4d7",
					"send(address,uint256)": "d0679d34",
					"symbol()": "95d89b41",
					"tokens_remaining()": "865cf928",
					"total_tokens()": "c6490835",
					"version()": "54fd4d50"
				}
			},
			"storageLayout": {
				"storage": [
					{
						"astId": 6,
						"contract": "contracts/3b_many_owners.sol:UChicagoFinMath",
						"label": "owners",
						"offset": 0,
						"slot": "0",
						"type": "t_mapping(t_address,t_bool)"
					},
					{
						"astId": 8,
						"contract": "contracts/3b_many_owners.sol:UChicagoFinMath",
						"label": "originalOwner",
						"offset": 0,
						"slot": "1",
						"type": "t_address"
					},
					{
						"astId": 11,
						"contract": "contracts/3b_many_owners.sol:UChicagoFinMath",
						"label": "hodlers",
						"offset": 0,
						"slot": "2",
						"type": "t_array(t_address)dyn_storage"
					},
					{
						"astId": 13,
						"contract": "contracts/3b_many_owners.sol:UChicagoFinMath",
						"label": "hodlerCount",
						"offset": 0,
						"slot": "3",
						"type": "t_uint256"
					},
					{
						"astId": 15,
						"contract": "contracts/3b_many_owners.sol:UChicagoFinMath",
						"label": "total_tokens",
						"offset": 0,
						"slot": "4",
						"type": "t_uint256"
					},
					{
						"astId": 17,
						"contract": "contracts/3b_many_owners.sol:UChicagoFinMath",
						"label": "tokens_remaining",
						"offset": 0,
						"slot": "5",
						"type": "t_uint256"
					},
					{
						"astId": 21,
						"contract": "contracts/3b_many_owners.sol:UChicagoFinMath",
						"label": "balances",
						"offset": 0,
						"slot": "6",
						"type": "t_mapping(t_address,t_uint256)"
					},
					{
						"astId": 334,
						"contract": "contracts/3b_many_owners.sol:UChicagoFinMath",
						"label": "symbol",
						"offset": 0,
						"slot": "7",
						"type": "t_string_storage"
					},
					{
						"astId": 336,
						"contract": "contracts/3b_many_owners.sol:UChicagoFinMath",
						"label": "version",
						"offset": 0,
						"slot": "8",
						"type": "t_uint256"
					}
				],
				"types": {
					"t_address": {
						"encoding": "inplace",
						"label": "address",
						"numberOfBytes": "20"
					},
					"t_array(t_address)dyn_storage": {
						"base": "t_address",
						"encoding": "dynamic_array",
						"label": "address[]",
						"numberOfBytes": "32"
					},
					"t_bool": {
						"encoding": "inplace",
						"label": "bool",
						"numberOfBytes": "1"
					},
					"t_mapping(t_address,t_bool)": {
						"encoding": "mapping",
						"key": "t_address",
						"label": "mapping(address => bool)",
						"numberOfBytes": "32",
						"value": "t_bool"
					},
					"t_mapping(t_address,t_uint256)": {
						"encoding": "mapping",
						"key": "t_address",
						"label": "mapping(address => uint256)",
						"numberOfBytes": "32",
						"value": "t_uint256"
					},
					"t_string_storage": {
						"encoding": "bytes",
						"label": "string",
						"numberOfBytes": "32"
					},
					"t_uint256": {
						"encoding": "inplace",
						"label": "uint256",
						"numberOfBytes": "32"
					}
				}
			},
			"userdoc": {
				"kind": "user",
				"methods": {},
				"version": 1
			}
		}
	}
}